{
  "_format": "hh-sol-artifact-1",
  "contractName": "DynamicNFT",
  "sourceName": "contracts/DynamicNFT.sol",
  "abi": [
    {
      "inputs": [
        {
          "internalType": "address",
          "name": "priceFeedAddress",
          "type": "address"
        },
        {
          "internalType": "string",
          "name": "lowImg",
          "type": "string"
        },
        {
          "internalType": "string",
          "name": "highImg",
          "type": "string"
        }
      ],
      "stateMutability": "nonpayable",
      "type": "constructor"
    },
    {
      "anonymous": false,
      "inputs": [
        {
          "indexed": true,
          "internalType": "address",
          "name": "owner",
          "type": "address"
        },
        {
          "indexed": true,
          "internalType": "address",
          "name": "approved",
          "type": "address"
        },
        {
          "indexed": true,
          "internalType": "uint256",
          "name": "tokenId",
          "type": "uint256"
        }
      ],
      "name": "Approval",
      "type": "event"
    },
    {
      "anonymous": false,
      "inputs": [
        {
          "indexed": true,
          "internalType": "address",
          "name": "owner",
          "type": "address"
        },
        {
          "indexed": true,
          "internalType": "address",
          "name": "operator",
          "type": "address"
        },
        {
          "indexed": false,
          "internalType": "bool",
          "name": "approved",
          "type": "bool"
        }
      ],
      "name": "ApprovalForAll",
      "type": "event"
    },
    {
      "anonymous": false,
      "inputs": [
        {
          "indexed": true,
          "internalType": "uint256",
          "name": "tokenID",
          "type": "uint256"
        },
        {
          "indexed": false,
          "internalType": "int256",
          "name": "highValue",
          "type": "int256"
        }
      ],
      "name": "CreatedNFT",
      "type": "event"
    },
    {
      "anonymous": false,
      "inputs": [
        {
          "indexed": true,
          "internalType": "address",
          "name": "from",
          "type": "address"
        },
        {
          "indexed": true,
          "internalType": "address",
          "name": "to",
          "type": "address"
        },
        {
          "indexed": true,
          "internalType": "uint256",
          "name": "tokenId",
          "type": "uint256"
        }
      ],
      "name": "Transfer",
      "type": "event"
    },
    {
      "inputs": [
        {
          "internalType": "address",
          "name": "to",
          "type": "address"
        },
        {
          "internalType": "uint256",
          "name": "tokenId",
          "type": "uint256"
        }
      ],
      "name": "approve",
      "outputs": [],
      "stateMutability": "nonpayable",
      "type": "function"
    },
    {
      "inputs": [
        {
          "internalType": "address",
          "name": "owner",
          "type": "address"
        }
      ],
      "name": "balanceOf",
      "outputs": [
        {
          "internalType": "uint256",
          "name": "",
          "type": "uint256"
        }
      ],
      "stateMutability": "view",
      "type": "function"
    },
    {
      "inputs": [
        {
          "internalType": "uint256",
          "name": "tokenId",
          "type": "uint256"
        }
      ],
      "name": "getApproved",
      "outputs": [
        {
          "internalType": "address",
          "name": "",
          "type": "address"
        }
      ],
      "stateMutability": "view",
      "type": "function"
    },
    {
      "inputs": [],
      "name": "getHighImgURI",
      "outputs": [
        {
          "internalType": "string",
          "name": "",
          "type": "string"
        }
      ],
      "stateMutability": "view",
      "type": "function"
    },
    {
      "inputs": [],
      "name": "getLowImgURI",
      "outputs": [
        {
          "internalType": "string",
          "name": "",
          "type": "string"
        }
      ],
      "stateMutability": "view",
      "type": "function"
    },
    {
      "inputs": [],
      "name": "getPriceFeed",
      "outputs": [
        {
          "internalType": "contract AggregatorV3Interface",
          "name": "",
          "type": "address"
        }
      ],
      "stateMutability": "view",
      "type": "function"
    },
    {
      "inputs": [],
      "name": "getTokenCounter",
      "outputs": [
        {
          "internalType": "uint256",
          "name": "",
          "type": "uint256"
        }
      ],
      "stateMutability": "view",
      "type": "function"
    },
    {
      "inputs": [
        {
          "internalType": "string",
          "name": "svg",
          "type": "string"
        }
      ],
      "name": "imageToURI",
      "outputs": [
        {
          "internalType": "string",
          "name": "",
          "type": "string"
        }
      ],
      "stateMutability": "pure",
      "type": "function"
    },
    {
      "inputs": [
        {
          "internalType": "address",
          "name": "owner",
          "type": "address"
        },
        {
          "internalType": "address",
          "name": "operator",
          "type": "address"
        }
      ],
      "name": "isApprovedForAll",
      "outputs": [
        {
          "internalType": "bool",
          "name": "",
          "type": "bool"
        }
      ],
      "stateMutability": "view",
      "type": "function"
    },
    {
      "inputs": [
        {
          "internalType": "int256",
          "name": "highValue",
          "type": "int256"
        }
      ],
      "name": "mintNFT",
      "outputs": [],
      "stateMutability": "nonpayable",
      "type": "function"
    },
    {
      "inputs": [],
      "name": "name",
      "outputs": [
        {
          "internalType": "string",
          "name": "",
          "type": "string"
        }
      ],
      "stateMutability": "view",
      "type": "function"
    },
    {
      "inputs": [
        {
          "internalType": "uint256",
          "name": "tokenId",
          "type": "uint256"
        }
      ],
      "name": "ownerOf",
      "outputs": [
        {
          "internalType": "address",
          "name": "",
          "type": "address"
        }
      ],
      "stateMutability": "view",
      "type": "function"
    },
    {
      "inputs": [
        {
          "internalType": "uint256",
          "name": "",
          "type": "uint256"
        }
      ],
      "name": "s_tokenId_highvalue",
      "outputs": [
        {
          "internalType": "int256",
          "name": "",
          "type": "int256"
        }
      ],
      "stateMutability": "view",
      "type": "function"
    },
    {
      "inputs": [
        {
          "internalType": "address",
          "name": "from",
          "type": "address"
        },
        {
          "internalType": "address",
          "name": "to",
          "type": "address"
        },
        {
          "internalType": "uint256",
          "name": "tokenId",
          "type": "uint256"
        }
      ],
      "name": "safeTransferFrom",
      "outputs": [],
      "stateMutability": "nonpayable",
      "type": "function"
    },
    {
      "inputs": [
        {
          "internalType": "address",
          "name": "from",
          "type": "address"
        },
        {
          "internalType": "address",
          "name": "to",
          "type": "address"
        },
        {
          "internalType": "uint256",
          "name": "tokenId",
          "type": "uint256"
        },
        {
          "internalType": "bytes",
          "name": "data",
          "type": "bytes"
        }
      ],
      "name": "safeTransferFrom",
      "outputs": [],
      "stateMutability": "nonpayable",
      "type": "function"
    },
    {
      "inputs": [
        {
          "internalType": "address",
          "name": "operator",
          "type": "address"
        },
        {
          "internalType": "bool",
          "name": "approved",
          "type": "bool"
        }
      ],
      "name": "setApprovalForAll",
      "outputs": [],
      "stateMutability": "nonpayable",
      "type": "function"
    },
    {
      "inputs": [
        {
          "internalType": "bytes4",
          "name": "interfaceId",
          "type": "bytes4"
        }
      ],
      "name": "supportsInterface",
      "outputs": [
        {
          "internalType": "bool",
          "name": "",
          "type": "bool"
        }
      ],
      "stateMutability": "view",
      "type": "function"
    },
    {
      "inputs": [],
      "name": "symbol",
      "outputs": [
        {
          "internalType": "string",
          "name": "",
          "type": "string"
        }
      ],
      "stateMutability": "view",
      "type": "function"
    },
    {
      "inputs": [
        {
          "internalType": "uint256",
          "name": "tokenID",
          "type": "uint256"
        }
      ],
      "name": "tokenURI",
      "outputs": [
        {
          "internalType": "string",
          "name": "",
          "type": "string"
        }
      ],
      "stateMutability": "view",
      "type": "function"
    },
    {
      "inputs": [
        {
          "internalType": "address",
          "name": "from",
          "type": "address"
        },
        {
          "internalType": "address",
          "name": "to",
          "type": "address"
        },
        {
          "internalType": "uint256",
          "name": "tokenId",
          "type": "uint256"
        }
      ],
      "name": "transferFrom",
      "outputs": [],
      "stateMutability": "nonpayable",
      "type": "function"
    }
  ],
  "bytecode": "0x60a06040523480156200001157600080fd5b5060405162003af638038062003af6833981810160405281019062000037919062000570565b6040518060400160405280600b81526020017f44796e616d6963204e46540000000000000000000000000000000000000000008152506040518060400160405280600481526020017f444e4654000000000000000000000000000000000000000000000000000000008152508160009081620000b4919062000855565b508060019081620000c6919062000855565b5050506000600681905550620000e2826200015260201b60201c565b60079081620000f2919062000855565b5062000104816200015260201b60201c565b6008908162000114919062000855565b508273ffffffffffffffffffffffffffffffffffffffff1660808173ffffffffffffffffffffffffffffffffffffffff168152505050505062000adb565b6060600062000188836040516020016200016d91906200097e565b604051602081830303815290604052620001eb60201b60201c565b90506040518060400160405280601a81526020017f646174613a696d6167652f7376672b786d6c3b6261736536342c00000000000081525081604051602001620001d492919062000997565b604051602081830303815290604052915050919050565b606060008251036200020f5760405180602001604052806000815250905062000373565b600060405180606001604052806040815260200162003ab66040913990506000600360028551620002419190620009ee565b6200024d919062000a58565b60046200025b919062000a90565b905060006020826200026e9190620009ee565b67ffffffffffffffff8111156200028a57620002896200040c565b5b6040519080825280601f01601f191660200182016040528015620002bd5781602001600182028036833780820191505090505b509050818152600183018586518101602084015b818310156200032e576003830192508251603f8160121c168501518253600182019150603f81600c1c168501518253600182019150603f8160061c168501518253600182019150603f8116850151825360018201915050620002d1565b6003895106600181146200034b57600281146200035c5762000367565b613d3d60f01b600283035262000367565b603d60f81b60018303525b50505050508093505050505b919050565b6000604051905090565b600080fd5b600080fd5b600073ffffffffffffffffffffffffffffffffffffffff82169050919050565b6000620003b9826200038c565b9050919050565b620003cb81620003ac565b8114620003d757600080fd5b50565b600081519050620003eb81620003c0565b92915050565b600080fd5b600080fd5b6000601f19601f8301169050919050565b7f4e487b7100000000000000000000000000000000000000000000000000000000600052604160045260246000fd5b6200044682620003fb565b810181811067ffffffffffffffff821117156200046857620004676200040c565b5b80604052505050565b60006200047d62000378565b90506200048b82826200043b565b919050565b600067ffffffffffffffff821115620004ae57620004ad6200040c565b5b620004b982620003fb565b9050602081019050919050565b60005b83811015620004e6578082015181840152602081019050620004c9565b60008484015250505050565b600062000509620005038462000490565b62000471565b905082815260208101848484011115620005285762000527620003f6565b5b62000535848285620004c6565b509392505050565b600082601f830112620005555762000554620003f1565b5b815162000567848260208601620004f2565b91505092915050565b6000806000606084860312156200058c576200058b62000382565b5b60006200059c86828701620003da565b935050602084015167ffffffffffffffff811115620005c057620005bf62000387565b5b620005ce868287016200053d565b925050604084015167ffffffffffffffff811115620005f257620005f162000387565b5b62000600868287016200053d565b9150509250925092565b600081519050919050565b7f4e487b7100000000000000000000000000000000000000000000000000000000600052602260045260246000fd5b600060028204905060018216806200065d57607f821691505b60208210810362000673576200067262000615565b5b50919050565b60008190508160005260206000209050919050565b60006020601f8301049050919050565b600082821b905092915050565b600060088302620006dd7fffffffffffffffffffffffffffffffffffffffffffffffffffffffffffffffff826200069e565b620006e986836200069e565b95508019841693508086168417925050509392505050565b6000819050919050565b6000819050919050565b600062000736620007306200072a8462000701565b6200070b565b62000701565b9050919050565b6000819050919050565b620007528362000715565b6200076a62000761826200073d565b848454620006ab565b825550505050565b600090565b6200078162000772565b6200078e81848462000747565b505050565b5b81811015620007b657620007aa60008262000777565b60018101905062000794565b5050565b601f8211156200080557620007cf8162000679565b620007da846200068e565b81016020851015620007ea578190505b62000802620007f9856200068e565b83018262000793565b50505b505050565b600082821c905092915050565b60006200082a600019846008026200080a565b1980831691505092915050565b600062000845838362000817565b9150826002028217905092915050565b62000860826200060a565b67ffffffffffffffff8111156200087c576200087b6200040c565b5b62000888825462000644565b62000895828285620007ba565b600060209050601f831160018114620008cd5760008415620008b8578287015190505b620008c4858262000837565b86555062000934565b601f198416620008dd8662000679565b60005b828110156200090757848901518255600182019150602085019450602081019050620008e0565b8683101562000927578489015162000923601f89168262000817565b8355505b6001600288020188555050505b505050505050565b600081905092915050565b600062000954826200060a565b6200096081856200093c565b935062000972818560208601620004c6565b80840191505092915050565b60006200098c828462000947565b915081905092915050565b6000620009a5828562000947565b9150620009b3828462000947565b91508190509392505050565b7f4e487b7100000000000000000000000000000000000000000000000000000000600052601160045260246000fd5b6000620009fb8262000701565b915062000a088362000701565b925082820190508082111562000a235762000a22620009bf565b5b92915050565b7f4e487b7100000000000000000000000000000000000000000000000000000000600052601260045260246000fd5b600062000a658262000701565b915062000a728362000701565b92508262000a855762000a8462000a29565b5b828204905092915050565b600062000a9d8262000701565b915062000aaa8362000701565b925082820262000aba8162000701565b9150828204841483151762000ad45762000ad3620009bf565b5b5092915050565b608051612fb862000afe60003960008181610b2f0152610c190152612fb86000f3fe608060405234801561001057600080fd5b506004361061012c5760003560e01c80636e02007d116100ad578063a22cb46511610071578063a22cb46514610359578063b88d4fde14610375578063c87b56dd14610391578063e2ed50cb146103c1578063e985e9c5146103dd5761012c565b80636e02007d1461029f57806370a08231146102bd57806386fd581d146102ed57806395d89b411461031d5780639e87a5cd1461033b5761012c565b80630aad2862116100f45780630aad2862146101fb57806323b872dd1461021957806339c20a421461023557806342842e0e146102535780636352211e1461026f5761012c565b8063018bfff41461013157806301ffc9a71461016157806306fdde0314610191578063081812fc146101af578063095ea7b3146101df575b600080fd5b61014b60048036038101906101469190611d0b565b61040d565b6040516101589190611dd3565b60405180910390f35b61017b60048036038101906101769190611e4d565b61049a565b6040516101889190611e95565b60405180910390f35b61019961057c565b6040516101a69190611dd3565b60405180910390f35b6101c960048036038101906101c49190611ee6565b61060e565b6040516101d69190611f54565b60405180910390f35b6101f960048036038101906101f49190611f9b565b610654565b005b61020361076b565b6040516102109190611dd3565b60405180910390f35b610233600480360381019061022e9190611fdb565b6107fd565b005b61023d61085d565b60405161024a9190611dd3565b60405180910390f35b61026d60048036038101906102689190611fdb565b6108ef565b005b61028960048036038101906102849190611ee6565b61090f565b6040516102969190611f54565b60405180910390f35b6102a76109c0565b6040516102b4919061203d565b60405180910390f35b6102d760048036038101906102d29190612058565b6109ca565b6040516102e4919061203d565b60405180910390f35b61030760048036038101906103029190611ee6565b610a81565b604051610314919061209e565b60405180910390f35b610325610a99565b6040516103329190611dd3565b60405180910390f35b610343610b2b565b6040516103509190612118565b60405180910390f35b610373600480360381019061036e919061215f565b610b53565b005b61038f600480360381019061038a9190612240565b610b69565b005b6103ab60048036038101906103a69190611ee6565b610bcb565b6040516103b89190611dd3565b60405180910390f35b6103db60048036038101906103d691906122ef565b610e45565b005b6103f760048036038101906103f2919061231c565b610ebd565b6040516104049190611e95565b60405180910390f35b60606000610439836040516020016104259190612398565b604051602081830303815290604052610f51565b90506040518060400160405280601a81526020017f646174613a696d6167652f7376672b786d6c3b6261736536342c000000000000815250816040516020016104839291906123af565b604051602081830303815290604052915050919050565b60007f80ac58cd000000000000000000000000000000000000000000000000000000007bffffffffffffffffffffffffffffffffffffffffffffffffffffffff1916827bffffffffffffffffffffffffffffffffffffffffffffffffffffffff1916148061056557507f5b5e139f000000000000000000000000000000000000000000000000000000007bffffffffffffffffffffffffffffffffffffffffffffffffffffffff1916827bffffffffffffffffffffffffffffffffffffffffffffffffffffffff1916145b806105755750610574826110c9565b5b9050919050565b60606000805461058b90612402565b80601f01602080910402602001604051908101604052809291908181526020018280546105b790612402565b80156106045780601f106105d957610100808354040283529160200191610604565b820191906000526020600020905b8154815290600101906020018083116105e757829003601f168201915b5050505050905090565b600061061982611133565b6004600083815260200190815260200160002060009054906101000a900473ffffffffffffffffffffffffffffffffffffffff169050919050565b600061065f8261090f565b90508073ffffffffffffffffffffffffffffffffffffffff168373ffffffffffffffffffffffffffffffffffffffff16036106cf576040517f08c379a00000000000000000000000000000000000000000000000000000000081526004016106c6906124a5565b60405180910390fd5b8073ffffffffffffffffffffffffffffffffffffffff166106ee61117e565b73ffffffffffffffffffffffffffffffffffffffff16148061071d575061071c8161071761117e565b610ebd565b5b61075c576040517f08c379a000000000000000000000000000000000000000000000000000000000815260040161075390612537565b60405180910390fd5b6107668383611186565b505050565b60606008805461077a90612402565b80601f01602080910402602001604051908101604052809291908181526020018280546107a690612402565b80156107f35780601f106107c8576101008083540402835291602001916107f3565b820191906000526020600020905b8154815290600101906020018083116107d657829003601f168201915b5050505050905090565b61080e61080861117e565b8261123f565b61084d576040517f08c379a0000000000000000000000000000000000000000000000000000000008152600401610844906125c9565b60405180910390fd5b6108588383836112d4565b505050565b60606007805461086c90612402565b80601f016020809104026020016040519081016040528092919081815260200182805461089890612402565b80156108e55780601f106108ba576101008083540402835291602001916108e5565b820191906000526020600020905b8154815290600101906020018083116108c857829003601f168201915b5050505050905090565b61090a83838360405180602001604052806000815250610b69565b505050565b6000806002600084815260200190815260200160002060009054906101000a900473ffffffffffffffffffffffffffffffffffffffff169050600073ffffffffffffffffffffffffffffffffffffffff168173ffffffffffffffffffffffffffffffffffffffff16036109b7576040517f08c379a00000000000000000000000000000000000000000000000000000000081526004016109ae90612635565b60405180910390fd5b80915050919050565b6000600654905090565b60008073ffffffffffffffffffffffffffffffffffffffff168273ffffffffffffffffffffffffffffffffffffffff1603610a3a576040517f08c379a0000000000000000000000000000000000000000000000000000000008152600401610a31906126c7565b60405180910390fd5b600360008373ffffffffffffffffffffffffffffffffffffffff1673ffffffffffffffffffffffffffffffffffffffff168152602001908152602001600020549050919050565b60096020528060005260406000206000915090505481565b606060018054610aa890612402565b80601f0160208091040260200160405190810160405280929190818152602001828054610ad490612402565b8015610b215780601f10610af657610100808354040283529160200191610b21565b820191906000526020600020905b815481529060010190602001808311610b0457829003601f168201915b5050505050905090565b60007f0000000000000000000000000000000000000000000000000000000000000000905090565b610b65610b5e61117e565b838361153a565b5050565b610b7a610b7461117e565b8361123f565b610bb9576040517f08c379a0000000000000000000000000000000000000000000000000000000008152600401610bb0906125c9565b60405180910390fd5b610bc5848484846116a6565b50505050565b6060610bd682611702565b610c15576040517f08c379a0000000000000000000000000000000000000000000000000000000008152600401610c0c90612733565b60405180910390fd5b60007f000000000000000000000000000000000000000000000000000000000000000073ffffffffffffffffffffffffffffffffffffffff1663feaf968c6040518163ffffffff1660e01b815260040160a060405180830381865afa158015610c82573d6000803e3d6000fd5b505050506040513d601f19601f82011682018060405250810190610ca691906127bf565b505050915050600060078054610cbb90612402565b80601f0160208091040260200160405190810160405280929190818152602001828054610ce790612402565b8015610d345780601f10610d0957610100808354040283529160200191610d34565b820191906000526020600020905b815481529060010190602001808311610d1757829003601f168201915b5050505050905060096000858152602001908152602001600020548212610de35760088054610d6290612402565b80601f0160208091040260200160405190810160405280929190818152602001828054610d8e90612402565b8015610ddb5780601f10610db057610100808354040283529160200191610ddb565b820191906000526020600020905b815481529060010190602001808311610dbe57829003601f168201915b505050505090505b610deb61176e565b610e1c610df661057c565b83604051602001610e089291906129dc565b604051602081830303815290604052610f51565b604051602001610e2d9291906123af565b60405160208183030381529060405292505050919050565b8060096000600654815260200190815260200160002081905550610e6b336006546117ab565b6001600654610e7a9190612a5b565b6006819055506006547f882d3b5a729a8bb95cf6c0083c99b42ecd9637123d4425bd7b768877fd8af8b082604051610eb2919061209e565b60405180910390a250565b6000600560008473ffffffffffffffffffffffffffffffffffffffff1673ffffffffffffffffffffffffffffffffffffffff16815260200190815260200160002060008373ffffffffffffffffffffffffffffffffffffffff1673ffffffffffffffffffffffffffffffffffffffff16815260200190815260200160002060009054906101000a900460ff16905092915050565b60606000825103610f73576040518060200160405280600081525090506110c4565b6000604051806060016040528060408152602001612f436040913990506000600360028551610fa29190612a5b565b610fac9190612abe565b6004610fb89190612aef565b90506000602082610fc99190612a5b565b67ffffffffffffffff811115610fe257610fe1611be0565b5b6040519080825280601f01601f1916602001820160405280156110145781602001600182028036833780820191505090505b509050818152600183018586518101602084015b81831015611083576003830192508251603f8160121c168501518253600182019150603f81600c1c168501518253600182019150603f8160061c168501518253600182019150603f8116850151825360018201915050611028565b60038951066001811461109d57600281146110ad576110b8565b613d3d60f01b60028303526110b8565b603d60f81b60018303525b50505050508093505050505b919050565b60007f01ffc9a7000000000000000000000000000000000000000000000000000000007bffffffffffffffffffffffffffffffffffffffffffffffffffffffff1916827bffffffffffffffffffffffffffffffffffffffffffffffffffffffff1916149050919050565b61113c81611702565b61117b576040517f08c379a000000000000000000000000000000000000000000000000000000000815260040161117290612635565b60405180910390fd5b50565b600033905090565b816004600083815260200190815260200160002060006101000a81548173ffffffffffffffffffffffffffffffffffffffff021916908373ffffffffffffffffffffffffffffffffffffffff160217905550808273ffffffffffffffffffffffffffffffffffffffff166111f98361090f565b73ffffffffffffffffffffffffffffffffffffffff167f8c5be1e5ebec7d5bd14f71427d1e84f3dd0314c0f7b2291e5b200ac8c7c3b92560405160405180910390a45050565b60008061124b8361090f565b90508073ffffffffffffffffffffffffffffffffffffffff168473ffffffffffffffffffffffffffffffffffffffff16148061128d575061128c8185610ebd565b5b806112cb57508373ffffffffffffffffffffffffffffffffffffffff166112b38461060e565b73ffffffffffffffffffffffffffffffffffffffff16145b91505092915050565b8273ffffffffffffffffffffffffffffffffffffffff166112f48261090f565b73ffffffffffffffffffffffffffffffffffffffff161461134a576040517f08c379a000000000000000000000000000000000000000000000000000000000815260040161134190612ba3565b60405180910390fd5b600073ffffffffffffffffffffffffffffffffffffffff168273ffffffffffffffffffffffffffffffffffffffff16036113b9576040517f08c379a00000000000000000000000000000000000000000000000000000000081526004016113b090612c35565b60405180910390fd5b6113c48383836117c9565b6113cf600082611186565b6001600360008573ffffffffffffffffffffffffffffffffffffffff1673ffffffffffffffffffffffffffffffffffffffff168152602001908152602001600020600082825461141f9190612c55565b925050819055506001600360008473ffffffffffffffffffffffffffffffffffffffff1673ffffffffffffffffffffffffffffffffffffffff16815260200190815260200160002060008282546114769190612a5b565b92505081905550816002600083815260200190815260200160002060006101000a81548173ffffffffffffffffffffffffffffffffffffffff021916908373ffffffffffffffffffffffffffffffffffffffff160217905550808273ffffffffffffffffffffffffffffffffffffffff168473ffffffffffffffffffffffffffffffffffffffff167fddf252ad1be2c89b69c2b068fc378daa952ba7f163c4a11628f55a4df523b3ef60405160405180910390a46115358383836117ce565b505050565b8173ffffffffffffffffffffffffffffffffffffffff168373ffffffffffffffffffffffffffffffffffffffff16036115a8576040517f08c379a000000000000000000000000000000000000000000000000000000000815260040161159f90612cd5565b60405180910390fd5b80600560008573ffffffffffffffffffffffffffffffffffffffff1673ffffffffffffffffffffffffffffffffffffffff16815260200190815260200160002060008473ffffffffffffffffffffffffffffffffffffffff1673ffffffffffffffffffffffffffffffffffffffff16815260200190815260200160002060006101000a81548160ff0219169083151502179055508173ffffffffffffffffffffffffffffffffffffffff168373ffffffffffffffffffffffffffffffffffffffff167f17307eab39ab6107e8899845ad3d59bd9653f200f220920489ca2b5937696c31836040516116999190611e95565b60405180910390a3505050565b6116b18484846112d4565b6116bd848484846117d3565b6116fc576040517f08c379a00000000000000000000000000000000000000000000000000000000081526004016116f390612d67565b60405180910390fd5b50505050565b60008073ffffffffffffffffffffffffffffffffffffffff166002600084815260200190815260200160002060009054906101000a900473ffffffffffffffffffffffffffffffffffffffff1673ffffffffffffffffffffffffffffffffffffffff1614159050919050565b60606040518060400160405280601d81526020017f646174613a6170706c69636174696f6e2f6a736f6e3b6261736536342c000000815250905090565b6117c582826040518060200160405280600081525061195a565b5050565b505050565b505050565b60006117f48473ffffffffffffffffffffffffffffffffffffffff166119b5565b1561194d578373ffffffffffffffffffffffffffffffffffffffff1663150b7a0261181d61117e565b8786866040518563ffffffff1660e01b815260040161183f9493929190612ddc565b6020604051808303816000875af192505050801561187b57506040513d601f19601f820116820180604052508101906118789190612e3d565b60015b6118fd573d80600081146118ab576040519150601f19603f3d011682016040523d82523d6000602084013e6118b0565b606091505b5060008151036118f5576040517f08c379a00000000000000000000000000000000000000000000000000000000081526004016118ec90612d67565b60405180910390fd5b805181602001fd5b63150b7a0260e01b7bffffffffffffffffffffffffffffffffffffffffffffffffffffffff1916817bffffffffffffffffffffffffffffffffffffffffffffffffffffffff191614915050611952565b600190505b949350505050565b61196483836119d8565b61197160008484846117d3565b6119b0576040517f08c379a00000000000000000000000000000000000000000000000000000000081526004016119a790612d67565b60405180910390fd5b505050565b6000808273ffffffffffffffffffffffffffffffffffffffff163b119050919050565b600073ffffffffffffffffffffffffffffffffffffffff168273ffffffffffffffffffffffffffffffffffffffff1603611a47576040517f08c379a0000000000000000000000000000000000000000000000000000000008152600401611a3e90612eb6565b60405180910390fd5b611a5081611702565b15611a90576040517f08c379a0000000000000000000000000000000000000000000000000000000008152600401611a8790612f22565b60405180910390fd5b611a9c600083836117c9565b6001600360008473ffffffffffffffffffffffffffffffffffffffff1673ffffffffffffffffffffffffffffffffffffffff1681526020019081526020016000206000828254611aec9190612a5b565b92505081905550816002600083815260200190815260200160002060006101000a81548173ffffffffffffffffffffffffffffffffffffffff021916908373ffffffffffffffffffffffffffffffffffffffff160217905550808273ffffffffffffffffffffffffffffffffffffffff16600073ffffffffffffffffffffffffffffffffffffffff167fddf252ad1be2c89b69c2b068fc378daa952ba7f163c4a11628f55a4df523b3ef60405160405180910390a4611bad600083836117ce565b5050565b6000604051905090565b600080fd5b600080fd5b600080fd5b600080fd5b6000601f19601f8301169050919050565b7f4e487b7100000000000000000000000000000000000000000000000000000000600052604160045260246000fd5b611c1882611bcf565b810181811067ffffffffffffffff82111715611c3757611c36611be0565b5b80604052505050565b6000611c4a611bb1565b9050611c568282611c0f565b919050565b600067ffffffffffffffff821115611c7657611c75611be0565b5b611c7f82611bcf565b9050602081019050919050565b82818337600083830152505050565b6000611cae611ca984611c5b565b611c40565b905082815260208101848484011115611cca57611cc9611bca565b5b611cd5848285611c8c565b509392505050565b600082601f830112611cf257611cf1611bc5565b5b8135611d02848260208601611c9b565b91505092915050565b600060208284031215611d2157611d20611bbb565b5b600082013567ffffffffffffffff811115611d3f57611d3e611bc0565b5b611d4b84828501611cdd565b91505092915050565b600081519050919050565b600082825260208201905092915050565b60005b83811015611d8e578082015181840152602081019050611d73565b60008484015250505050565b6000611da582611d54565b611daf8185611d5f565b9350611dbf818560208601611d70565b611dc881611bcf565b840191505092915050565b60006020820190508181036000830152611ded8184611d9a565b905092915050565b60007fffffffff0000000000000000000000000000000000000000000000000000000082169050919050565b611e2a81611df5565b8114611e3557600080fd5b50565b600081359050611e4781611e21565b92915050565b600060208284031215611e6357611e62611bbb565b5b6000611e7184828501611e38565b91505092915050565b60008115159050919050565b611e8f81611e7a565b82525050565b6000602082019050611eaa6000830184611e86565b92915050565b6000819050919050565b611ec381611eb0565b8114611ece57600080fd5b50565b600081359050611ee081611eba565b92915050565b600060208284031215611efc57611efb611bbb565b5b6000611f0a84828501611ed1565b91505092915050565b600073ffffffffffffffffffffffffffffffffffffffff82169050919050565b6000611f3e82611f13565b9050919050565b611f4e81611f33565b82525050565b6000602082019050611f696000830184611f45565b92915050565b611f7881611f33565b8114611f8357600080fd5b50565b600081359050611f9581611f6f565b92915050565b60008060408385031215611fb257611fb1611bbb565b5b6000611fc085828601611f86565b9250506020611fd185828601611ed1565b9150509250929050565b600080600060608486031215611ff457611ff3611bbb565b5b600061200286828701611f86565b935050602061201386828701611f86565b925050604061202486828701611ed1565b9150509250925092565b61203781611eb0565b82525050565b6000602082019050612052600083018461202e565b92915050565b60006020828403121561206e5761206d611bbb565b5b600061207c84828501611f86565b91505092915050565b6000819050919050565b61209881612085565b82525050565b60006020820190506120b3600083018461208f565b92915050565b6000819050919050565b60006120de6120d96120d484611f13565b6120b9565b611f13565b9050919050565b60006120f0826120c3565b9050919050565b6000612102826120e5565b9050919050565b612112816120f7565b82525050565b600060208201905061212d6000830184612109565b92915050565b61213c81611e7a565b811461214757600080fd5b50565b60008135905061215981612133565b92915050565b6000806040838503121561217657612175611bbb565b5b600061218485828601611f86565b92505060206121958582860161214a565b9150509250929050565b600067ffffffffffffffff8211156121ba576121b9611be0565b5b6121c382611bcf565b9050602081019050919050565b60006121e36121de8461219f565b611c40565b9050828152602081018484840111156121ff576121fe611bca565b5b61220a848285611c8c565b509392505050565b600082601f83011261222757612226611bc5565b5b81356122378482602086016121d0565b91505092915050565b6000806000806080858703121561225a57612259611bbb565b5b600061226887828801611f86565b945050602061227987828801611f86565b935050604061228a87828801611ed1565b925050606085013567ffffffffffffffff8111156122ab576122aa611bc0565b5b6122b787828801612212565b91505092959194509250565b6122cc81612085565b81146122d757600080fd5b50565b6000813590506122e9816122c3565b92915050565b60006020828403121561230557612304611bbb565b5b6000612313848285016122da565b91505092915050565b6000806040838503121561233357612332611bbb565b5b600061234185828601611f86565b925050602061235285828601611f86565b9150509250929050565b600081905092915050565b600061237282611d54565b61237c818561235c565b935061238c818560208601611d70565b80840191505092915050565b60006123a48284612367565b915081905092915050565b60006123bb8285612367565b91506123c78284612367565b91508190509392505050565b7f4e487b7100000000000000000000000000000000000000000000000000000000600052602260045260246000fd5b6000600282049050600182168061241a57607f821691505b60208210810361242d5761242c6123d3565b5b50919050565b7f4552433732313a20617070726f76616c20746f2063757272656e74206f776e6560008201527f7200000000000000000000000000000000000000000000000000000000000000602082015250565b600061248f602183611d5f565b915061249a82612433565b604082019050919050565b600060208201905081810360008301526124be81612482565b9050919050565b7f4552433732313a20617070726f76652063616c6c6572206973206e6f7420746f60008201527f6b656e206f776e6572206e6f7220617070726f76656420666f7220616c6c0000602082015250565b6000612521603e83611d5f565b915061252c826124c5565b604082019050919050565b6000602082019050818103600083015261255081612514565b9050919050565b7f4552433732313a2063616c6c6572206973206e6f7420746f6b656e206f776e6560008201527f72206e6f7220617070726f766564000000000000000000000000000000000000602082015250565b60006125b3602e83611d5f565b91506125be82612557565b604082019050919050565b600060208201905081810360008301526125e2816125a6565b9050919050565b7f4552433732313a20696e76616c696420746f6b656e2049440000000000000000600082015250565b600061261f601883611d5f565b915061262a826125e9565b602082019050919050565b6000602082019050818103600083015261264e81612612565b9050919050565b7f4552433732313a2061646472657373207a65726f206973206e6f74206120766160008201527f6c6964206f776e65720000000000000000000000000000000000000000000000602082015250565b60006126b1602983611d5f565b91506126bc82612655565b604082019050919050565b600060208201905081810360008301526126e0816126a4565b9050919050565b7f4e6f6e206578697374656e7420746f6b656e0000000000000000000000000000600082015250565b600061271d601283611d5f565b9150612728826126e7565b602082019050919050565b6000602082019050818103600083015261274c81612710565b9050919050565b600069ffffffffffffffffffff82169050919050565b61277281612753565b811461277d57600080fd5b50565b60008151905061278f81612769565b92915050565b6000815190506127a4816122c3565b92915050565b6000815190506127b981611eba565b92915050565b600080600080600060a086880312156127db576127da611bbb565b5b60006127e988828901612780565b95505060206127fa88828901612795565b945050604061280b888289016127aa565b935050606061281c888289016127aa565b925050608061282d88828901612780565b9150509295509295909350565b7f7b20226e616d6522203a20220000000000000000000000000000000000000000600082015250565b6000612870600c8361235c565b915061287b8261283a565b600c82019050919050565b7f222c20226465736372697074696f6e22203a202241204e46542074686174206360008201527f68616e676573206f6e20436861696e6c696e6b20466565642e222c2000000000602082015250565b60006128e2603c8361235c565b91506128ed82612886565b603c82019050919050565b7f226174747269627574657322203a205b7b2274726169745f74797065223a202260008201527f68617070696e657373222c202276616c756522203a20313030207d5d2c20226960208201527f6d616765223a2022000000000000000000000000000000000000000000000000604082015250565b600061297a60488361235c565b9150612985826128f8565b604882019050919050565b7f227d000000000000000000000000000000000000000000000000000000000000600082015250565b60006129c660028361235c565b91506129d182612990565b600282019050919050565b60006129e782612863565b91506129f38285612367565b91506129fe826128d5565b9150612a098261296d565b9150612a158284612367565b9150612a20826129b9565b91508190509392505050565b7f4e487b7100000000000000000000000000000000000000000000000000000000600052601160045260246000fd5b6000612a6682611eb0565b9150612a7183611eb0565b9250828201905080821115612a8957612a88612a2c565b5b92915050565b7f4e487b7100000000000000000000000000000000000000000000000000000000600052601260045260246000fd5b6000612ac982611eb0565b9150612ad483611eb0565b925082612ae457612ae3612a8f565b5b828204905092915050565b6000612afa82611eb0565b9150612b0583611eb0565b9250828202612b1381611eb0565b91508282048414831517612b2a57612b29612a2c565b5b5092915050565b7f4552433732313a207472616e736665722066726f6d20696e636f72726563742060008201527f6f776e6572000000000000000000000000000000000000000000000000000000602082015250565b6000612b8d602583611d5f565b9150612b9882612b31565b604082019050919050565b60006020820190508181036000830152612bbc81612b80565b9050919050565b7f4552433732313a207472616e7366657220746f20746865207a65726f2061646460008201527f7265737300000000000000000000000000000000000000000000000000000000602082015250565b6000612c1f602483611d5f565b9150612c2a82612bc3565b604082019050919050565b60006020820190508181036000830152612c4e81612c12565b9050919050565b6000612c6082611eb0565b9150612c6b83611eb0565b9250828203905081811115612c8357612c82612a2c565b5b92915050565b7f4552433732313a20617070726f766520746f2063616c6c657200000000000000600082015250565b6000612cbf601983611d5f565b9150612cca82612c89565b602082019050919050565b60006020820190508181036000830152612cee81612cb2565b9050919050565b7f4552433732313a207472616e7366657220746f206e6f6e20455243373231526560008201527f63656976657220696d706c656d656e7465720000000000000000000000000000602082015250565b6000612d51603283611d5f565b9150612d5c82612cf5565b604082019050919050565b60006020820190508181036000830152612d8081612d44565b9050919050565b600081519050919050565b600082825260208201905092915050565b6000612dae82612d87565b612db88185612d92565b9350612dc8818560208601611d70565b612dd181611bcf565b840191505092915050565b6000608082019050612df16000830187611f45565b612dfe6020830186611f45565b612e0b604083018561202e565b8181036060830152612e1d8184612da3565b905095945050505050565b600081519050612e3781611e21565b92915050565b600060208284031215612e5357612e52611bbb565b5b6000612e6184828501612e28565b91505092915050565b7f4552433732313a206d696e7420746f20746865207a65726f2061646472657373600082015250565b6000612ea0602083611d5f565b9150612eab82612e6a565b602082019050919050565b60006020820190508181036000830152612ecf81612e93565b9050919050565b7f4552433732313a20746f6b656e20616c7265616479206d696e74656400000000600082015250565b6000612f0c601c83611d5f565b9150612f1782612ed6565b602082019050919050565b60006020820190508181036000830152612f3b81612eff565b905091905056fe4142434445464748494a4b4c4d4e4f505152535455565758595a6162636465666768696a6b6c6d6e6f707172737475767778797a303132333435363738392b2fa26469706673582212204f390f8a33afefcc338b0c02d4ca165977fff678b7b4dfc5b61c6aa705a4621864736f6c634300081800334142434445464748494a4b4c4d4e4f505152535455565758595a6162636465666768696a6b6c6d6e6f707172737475767778797a303132333435363738392b2f",
  "linkReferences": {},
  "deployedLinkReferences": {}
}