{"@chainlink/contracts/src/v0.8/vrf/mocks/VRFCoordinatorV2Mock.sol":{"VRFCoordinatorV2Mock":{"abi":[{"inputs":[{"internalType":"uint96","name":"_baseFee","type":"uint96"},{"internalType":"uint96","name":"_gasPriceLink","type":"uint96"}],"stateMutability":"nonpayable","type":"constructor"},{"inputs":[],"name":"InsufficientBalance","type":"error"},{"inputs":[],"name":"InvalidConsumer","type":"error"},{"inputs":[],"name":"InvalidRandomWords","type":"error"},{"inputs":[],"name":"InvalidSubscription","type":"error"},{"inputs":[{"internalType":"address","name":"owner","type":"address"}],"name":"MustBeSubOwner","type":"error"},{"inputs":[],"name":"Reentrant","type":"error"},{"inputs":[],"name":"TooManyConsumers","type":"error"},{"anonymous":false,"inputs":[],"name":"ConfigSet","type":"event"},{"anonymous":false,"inputs":[{"indexed":true,"internalType":"uint64","name":"subId","type":"uint64"},{"indexed":false,"internalType":"address","name":"consumer","type":"address"}],"name":"ConsumerAdded","type":"event"},{"anonymous":false,"inputs":[{"indexed":true,"internalType":"uint64","name":"subId","type":"uint64"},{"indexed":false,"internalType":"address","name":"consumer","type":"address"}],"name":"ConsumerRemoved","type":"event"},{"anonymous":false,"inputs":[{"indexed":true,"internalType":"address","name":"from","type":"address"},{"indexed":true,"internalType":"address","name":"to","type":"address"}],"name":"OwnershipTransferRequested","type":"event"},{"anonymous":false,"inputs":[{"indexed":true,"internalType":"address","name":"from","type":"address"},{"indexed":true,"internalType":"address","name":"to","type":"address"}],"name":"OwnershipTransferred","type":"event"},{"anonymous":false,"inputs":[{"indexed":true,"internalType":"uint256","name":"requestId","type":"uint256"},{"indexed":false,"internalType":"uint256","name":"outputSeed","type":"uint256"},{"indexed":false,"internalType":"uint96","name":"payment","type":"uint96"},{"indexed":false,"internalType":"bool","name":"success","type":"bool"}],"name":"RandomWordsFulfilled","type":"event"},{"anonymous":false,"inputs":[{"indexed":true,"internalType":"bytes32","name":"keyHash","type":"bytes32"},{"indexed":false,"internalType":"uint256","name":"requestId","type":"uint256"},{"indexed":false,"internalType":"uint256","name":"preSeed","type":"uint256"},{"indexed":true,"internalType":"uint64","name":"subId","type":"uint64"},{"indexed":false,"internalType":"uint16","name":"minimumRequestConfirmations","type":"uint16"},{"indexed":false,"internalType":"uint32","name":"callbackGasLimit","type":"uint32"},{"indexed":false,"internalType":"uint32","name":"numWords","type":"uint32"},{"indexed":true,"internalType":"address","name":"sender","type":"address"}],"name":"RandomWordsRequested","type":"event"},{"anonymous":false,"inputs":[{"indexed":true,"internalType":"uint64","name":"subId","type":"uint64"},{"indexed":false,"internalType":"address","name":"to","type":"address"},{"indexed":false,"internalType":"uint256","name":"amount","type":"uint256"}],"name":"SubscriptionCanceled","type":"event"},{"anonymous":false,"inputs":[{"indexed":true,"internalType":"uint64","name":"subId","type":"uint64"},{"indexed":false,"internalType":"address","name":"owner","type":"address"}],"name":"SubscriptionCreated","type":"event"},{"anonymous":false,"inputs":[{"indexed":true,"internalType":"uint64","name":"subId","type":"uint64"},{"indexed":false,"internalType":"uint256","name":"oldBalance","type":"uint256"},{"indexed":false,"internalType":"uint256","name":"newBalance","type":"uint256"}],"name":"SubscriptionFunded","type":"event"},{"inputs":[],"name":"BASE_FEE","outputs":[{"internalType":"uint96","name":"","type":"uint96"}],"stateMutability":"view","type":"function"},{"inputs":[],"name":"GAS_PRICE_LINK","outputs":[{"internalType":"uint96","name":"","type":"uint96"}],"stateMutability":"view","type":"function"},{"inputs":[],"name":"MAX_CONSUMERS","outputs":[{"internalType":"uint16","name":"","type":"uint16"}],"stateMutability":"view","type":"function"},{"inputs":[],"name":"acceptOwnership","outputs":[],"stateMutability":"nonpayable","type":"function"},{"inputs":[{"internalType":"uint64","name":"","type":"uint64"}],"name":"acceptSubscriptionOwnerTransfer","outputs":[],"stateMutability":"pure","type":"function"},{"inputs":[{"internalType":"uint64","name":"_subId","type":"uint64"},{"internalType":"address","name":"_consumer","type":"address"}],"name":"addConsumer","outputs":[],"stateMutability":"nonpayable","type":"function"},{"inputs":[{"internalType":"uint64","name":"_subId","type":"uint64"},{"internalType":"address","name":"_to","type":"address"}],"name":"cancelSubscription","outputs":[],"stateMutability":"nonpayable","type":"function"},{"inputs":[{"internalType":"uint64","name":"_subId","type":"uint64"},{"internalType":"address","name":"_consumer","type":"address"}],"name":"consumerIsAdded","outputs":[{"internalType":"bool","name":"","type":"bool"}],"stateMutability":"view","type":"function"},{"inputs":[],"name":"createSubscription","outputs":[{"internalType":"uint64","name":"_subId","type":"uint64"}],"stateMutability":"nonpayable","type":"function"},{"inputs":[{"internalType":"uint256","name":"_requestId","type":"uint256"},{"internalType":"address","name":"_consumer","type":"address"}],"name":"fulfillRandomWords","outputs":[],"stateMutability":"nonpayable","type":"function"},{"inputs":[{"internalType":"uint256","name":"_requestId","type":"uint256"},{"internalType":"address","name":"_consumer","type":"address"},{"internalType":"uint256[]","name":"_words","type":"uint256[]"}],"name":"fulfillRandomWordsWithOverride","outputs":[],"stateMutability":"nonpayable","type":"function"},{"inputs":[{"internalType":"uint64","name":"_subId","type":"uint64"},{"internalType":"uint96","name":"_amount","type":"uint96"}],"name":"fundSubscription","outputs":[],"stateMutability":"nonpayable","type":"function"},{"inputs":[],"name":"getConfig","outputs":[{"internalType":"uint16","name":"minimumRequestConfirmations","type":"uint16"},{"internalType":"uint32","name":"maxGasLimit","type":"uint32"},{"internalType":"uint32","name":"stalenessSeconds","type":"uint32"},{"internalType":"uint32","name":"gasAfterPaymentCalculation","type":"uint32"}],"stateMutability":"pure","type":"function"},{"inputs":[],"name":"getFallbackWeiPerUnitLink","outputs":[{"internalType":"int256","name":"","type":"int256"}],"stateMutability":"pure","type":"function"},{"inputs":[],"name":"getFeeConfig","outputs":[{"internalType":"uint32","name":"fulfillmentFlatFeeLinkPPMTier1","type":"uint32"},{"internalType":"uint32","name":"fulfillmentFlatFeeLinkPPMTier2","type":"uint32"},{"internalType":"uint32","name":"fulfillmentFlatFeeLinkPPMTier3","type":"uint32"},{"internalType":"uint32","name":"fulfillmentFlatFeeLinkPPMTier4","type":"uint32"},{"internalType":"uint32","name":"fulfillmentFlatFeeLinkPPMTier5","type":"uint32"},{"internalType":"uint24","name":"reqsForTier2","type":"uint24"},{"internalType":"uint24","name":"reqsForTier3","type":"uint24"},{"internalType":"uint24","name":"reqsForTier4","type":"uint24"},{"internalType":"uint24","name":"reqsForTier5","type":"uint24"}],"stateMutability":"pure","type":"function"},{"inputs":[],"name":"getRequestConfig","outputs":[{"internalType":"uint16","name":"","type":"uint16"},{"internalType":"uint32","name":"","type":"uint32"},{"internalType":"bytes32[]","name":"","type":"bytes32[]"}],"stateMutability":"pure","type":"function"},{"inputs":[{"internalType":"uint64","name":"_subId","type":"uint64"}],"name":"getSubscription","outputs":[{"internalType":"uint96","name":"balance","type":"uint96"},{"internalType":"uint64","name":"reqCount","type":"uint64"},{"internalType":"address","name":"owner","type":"address"},{"internalType":"address[]","name":"consumers","type":"address[]"}],"stateMutability":"view","type":"function"},{"inputs":[],"name":"owner","outputs":[{"internalType":"address","name":"","type":"address"}],"stateMutability":"view","type":"function"},{"inputs":[{"internalType":"uint64","name":"","type":"uint64"}],"name":"pendingRequestExists","outputs":[{"internalType":"bool","name":"","type":"bool"}],"stateMutability":"pure","type":"function"},{"inputs":[{"internalType":"uint64","name":"_subId","type":"uint64"},{"internalType":"address","name":"_consumer","type":"address"}],"name":"removeConsumer","outputs":[],"stateMutability":"nonpayable","type":"function"},{"inputs":[{"internalType":"bytes32","name":"_keyHash","type":"bytes32"},{"internalType":"uint64","name":"_subId","type":"uint64"},{"internalType":"uint16","name":"_minimumRequestConfirmations","type":"uint16"},{"internalType":"uint32","name":"_callbackGasLimit","type":"uint32"},{"internalType":"uint32","name":"_numWords","type":"uint32"}],"name":"requestRandomWords","outputs":[{"internalType":"uint256","name":"","type":"uint256"}],"stateMutability":"nonpayable","type":"function"},{"inputs":[{"internalType":"uint64","name":"","type":"uint64"},{"internalType":"address","name":"","type":"address"}],"name":"requestSubscriptionOwnerTransfer","outputs":[],"stateMutability":"pure","type":"function"},{"inputs":[],"name":"setConfig","outputs":[],"stateMutability":"nonpayable","type":"function"},{"inputs":[{"internalType":"address","name":"to","type":"address"}],"name":"transferOwnership","outputs":[],"stateMutability":"nonpayable","type":"function"}],"devdoc":{"kind":"dev","methods":{"createSubscription()":{"details":"You can manage the consumer set dynamically with addConsumer/removeConsumer.Note to fund the subscription, use transferAndCall. For exampleLINKTOKEN.transferAndCall(address(COORDINATOR),amount,abi.encode(subId));","returns":{"_subId":"- A unique subscription id."}},"fulfillRandomWords(uint256,address)":{"details":"This mock uses a simplified formula for calculating payment amount and gas usage, and doesnot account for all edge cases handled in the real VRF coordinator. When making requestsagainst the real coordinator a small amount of additional LINK is required.","params":{"_consumer":"the VRF randomness consumer to send the result to","_requestId":"the request to fulfill"}},"fulfillRandomWordsWithOverride(uint256,address,uint256[])":{"params":{"_consumer":"the VRF randomness consumer to send the result to","_requestId":"the request to fulfill","_words":"user-provided random words"}},"fundSubscription(uint64,uint96)":{"params":{"_amount":"the amount to fund","_subId":"the subscription to fund"}},"getRequestConfig()":{"returns":{"_0":"minimumRequestConfirmations global min for request confirmations","_1":"maxGasLimit global max for request gas limit","_2":"s_provingKeyHashes list of registered key hashes"}}},"version":1},"evm":{"bytecode":{"linkReferences":{},"object":"60e0604052606461ffff1660c09061ffff16815250600160045560646005553480156200002b57600080fd5b506040516200396f3803806200396f833981810160405281019062000051919062000435565b338060008073ffffffffffffffffffffffffffffffffffffffff168273ffffffffffffffffffffffffffffffffffffffff1603620000c6576040517f08c379a0000000000000000000000000000000000000000000000000000000008152600401620000bd90620004dd565b60405180910390fd5b816000806101000a81548173ffffffffffffffffffffffffffffffffffffffff021916908373ffffffffffffffffffffffffffffffffffffffff160217905550600073ffffffffffffffffffffffffffffffffffffffff168173ffffffffffffffffffffffffffffffffffffffff16146200014d576200014c81620001b060201b60201c565b5b505050816bffffffffffffffffffffffff166080816bffffffffffffffffffffffff1681525050806bffffffffffffffffffffffff1660a0816bffffffffffffffffffffffff1681525050620001a8620002df60201b60201c565b5050620005e3565b3373ffffffffffffffffffffffffffffffffffffffff168173ffffffffffffffffffffffffffffffffffffffff160362000221576040517f08c379a000000000000000000000000000000000000000000000000000000000815260040162000218906200054f565b60405180910390fd5b80600160006101000a81548173ffffffffffffffffffffffffffffffffffffffff021916908373ffffffffffffffffffffffffffffffffffffffff1602179055508073ffffffffffffffffffffffffffffffffffffffff1660008054906101000a900473ffffffffffffffffffffffffffffffffffffffff1673ffffffffffffffffffffffffffffffffffffffff167fed8889f560326eb138920d842192f0eb3dd22b4f139c87a2c57538e05bae127860405160405180910390a350565b620002ef6200035460201b60201c565b604051806020016040528060001515815250600260008201518160000160006101000a81548160ff0219169083151502179055509050507f4b2974a542484cba2783812ff8033f7fc682cac2fe0905c28c5e27869b3155be60405160405180910390a1565b60008054906101000a900473ffffffffffffffffffffffffffffffffffffffff1673ffffffffffffffffffffffffffffffffffffffff163373ffffffffffffffffffffffffffffffffffffffff1614620003e5576040517f08c379a0000000000000000000000000000000000000000000000000000000008152600401620003dc90620005c1565b60405180910390fd5b565b600080fd5b60006bffffffffffffffffffffffff82169050919050565b6200040f81620003ec565b81146200041b57600080fd5b50565b6000815190506200042f8162000404565b92915050565b600080604083850312156200044f576200044e620003e7565b5b60006200045f858286016200041e565b925050602062000472858286016200041e565b9150509250929050565b600082825260208201905092915050565b7f43616e6e6f7420736574206f776e657220746f207a65726f0000000000000000600082015250565b6000620004c56018836200047c565b9150620004d2826200048d565b602082019050919050565b60006020820190508181036000830152620004f881620004b6565b9050919050565b7f43616e6e6f74207472616e7366657220746f2073656c66000000000000000000600082015250565b6000620005376017836200047c565b91506200054482620004ff565b602082019050919050565b600060208201905081810360008301526200056a8162000528565b9050919050565b7f4f6e6c792063616c6c61626c65206279206f776e657200000000000000000000600082015250565b6000620005a96016836200047c565b9150620005b68262000571565b602082019050919050565b60006020820190508181036000830152620005dc816200059a565b9050919050565b60805160a05160c0516133476200062860003960008181610dae0152610ef801526000818161084d01526118d00152600081816108920152610aa101526133476000f3fe608060405234801561001057600080fd5b50600436106101575760003560e01c80638b673e7a116100c3578063afc69b531161007c578063afc69b5314610375578063c3f909d414610391578063d7ae1d30146103b2578063e82ad7d4146103ce578063ed5eb06d146103fe578063f2fde38b1461042e57610157565b80638b673e7a146102c25780638da5cb5b146102cc5780639f87fad7146102ea578063a21a23e414610306578063a410347f14610324578063a47c76961461034257610157565b80635fbbc0d2116101155780635fbbc0d21461022057806364d51a2a146102465780637341c10c1461026457806379ba509714610280578063808974ff1461028a57806382359740146102a657610157565b80620122911461015c57806304c357cb1461017c57806308e3898e14610198578063356dac71146101b45780633d18651e146101d25780635d3b1d30146101f0575b600080fd5b61016461044a565b6040516101739392919061238d565b60405180910390f35b6101966004803603810190610191919061247d565b6104aa565b005b6101b260048036038101906101ad919061264c565b6104e5565b005b6101bc610a90565b6040516101c991906126d4565b60405180910390f35b6101da610a9f565b6040516101e79190612716565b60405180910390f35b61020a600480360381019061020591906127b5565b610ac3565b604051610217919061283f565b60405180910390f35b610228610d6d565b60405161023d99989796959493929190612878565b60405180910390f35b61024e610dac565b60405161025b9190612905565b60405180910390f35b61027e6004803603810190610279919061247d565b610dd0565b005b61028861105c565b005b6102a4600480360381019061029f9190612920565b6111f1565b005b6102c060048036038101906102bb9190612960565b611293565b005b6102ca6112ce565b005b6102d461133b565b6040516102e1919061299c565b60405180910390f35b61030460048036038101906102ff919061247d565b611364565b005b61030e611713565b60405161031b91906129c6565b60405180910390f35b61032c6118ce565b6040516103399190612716565b60405180910390f35b61035c60048036038101906103579190612960565b6118f2565b60405161036c9493929190612a9f565b60405180910390f35b61038f600480360381019061038a9190612b17565b611af7565b005b610399611cc1565b6040516103a99493929190612b57565b60405180910390f35b6103cc60048036038101906103c7919061247d565b611ce1565b005b6103e860048036038101906103e39190612960565b611f4d565b6040516103f59190612bb7565b60405180910390f35b6104186004803603810190610413919061247d565b611f8a565b6040516104259190612bb7565b60405180910390f35b61044860048036038101906104439190612bd2565b6120b9565b005b60008060606003621e8480600067ffffffffffffffff8111156104705761046f612509565b5b60405190808252806020026020018201604052801561049e5781602001602082028036833780820191505090505b50925092509250909192565b6040517f08c379a00000000000000000000000000000000000000000000000000000000081526004016104dc90612c5c565b60405180910390fd5b60005a905060006008600086815260200190815260200160002060000160009054906101000a900467ffffffffffffffff1667ffffffffffffffff1603610561576040517f08c379a000000000000000000000000000000000000000000000000000000000815260040161055890612cc8565b60405180910390fd5b6000600860008681526020019081526020016000206040518060600160405290816000820160009054906101000a900467ffffffffffffffff1667ffffffffffffffff1667ffffffffffffffff1681526020016000820160089054906101000a900463ffffffff1663ffffffff1663ffffffff16815260200160008201600c9054906101000a900463ffffffff1663ffffffff1663ffffffff1681525050905060008351036106d257806040015163ffffffff1667ffffffffffffffff81111561062e5761062d612509565b5b60405190808252806020026020018201604052801561065c5781602001602082028036833780820191505090505b50925060005b816040015163ffffffff168110156106cc578581604051602001610687929190612ce8565b6040516020818303038152906040528051906020012060001c8482815181106106b3576106b2612d11565b5b6020026020010181815250508080600101915050610662565b50610717565b806040015163ffffffff16835114610716576040517f3f3df5b600000000000000000000000000000000000000000000000000000000815260040160405180910390fd5b5b600080631fe543e360e01b8786604051602401610735929190612dfe565b604051602081830303815290604052907bffffffffffffffffffffffffffffffffffffffffffffffffffffffff19166020820180517bffffffffffffffffffffffffffffffffffffffffffffffffffffffff838183161783525050505090506001600260000160006101000a81548160ff02191690831515021790555060008673ffffffffffffffffffffffffffffffffffffffff16846020015163ffffffff16836040516107e49190612e9f565b60006040518083038160008787f1925050503d8060008114610822576040519150601f19603f3d011682016040523d82523d6000602084013e610827565b606091505b505090506000600260000160006101000a81548160ff02191690831515021790555060007f00000000000000000000000000000000000000000000000000000000000000006bffffffffffffffffffffffff165a876108869190612ee5565b6108909190612f19565b7f00000000000000000000000000000000000000000000000000000000000000006bffffffffffffffffffffffff166108c99190612f5b565b9050806bffffffffffffffffffffffff1660066000876000015167ffffffffffffffff1667ffffffffffffffff16815260200190815260200160002060000160149054906101000a90046bffffffffffffffffffffffff166bffffffffffffffffffffffff161015610967576040517ff4d678b800000000000000000000000000000000000000000000000000000000815260040160405180910390fd5b8060066000876000015167ffffffffffffffff1667ffffffffffffffff16815260200190815260200160002060000160148282829054906101000a90046bffffffffffffffffffffffff166109bc9190612f8f565b92506101000a8154816bffffffffffffffffffffffff02191690836bffffffffffffffffffffffff160217905550600860008a8152602001908152602001600020600080820160006101000a81549067ffffffffffffffff02191690556000820160086101000a81549063ffffffff021916905560008201600c6101000a81549063ffffffff02191690555050887f7dffc5ae5ee4e2e4df1651cf6ad329a73cebdb728f37ea0187b9b17e036756e48a8385604051610a7d93929190612fcf565b60405180910390a2505050505050505050565b6000660e35fa931a0000905090565b7f000000000000000000000000000000000000000000000000000000000000000081565b6000600260000160009054906101000a900460ff1615610b0f576040517fed3ba6a600000000000000000000000000000000000000000000000000000000815260040160405180910390fd5b8433610b1b8282611f8a565b610b51576040517f71e8313700000000000000000000000000000000000000000000000000000000815260040160405180910390fd5b600073ffffffffffffffffffffffffffffffffffffffff16600660008967ffffffffffffffff1667ffffffffffffffff16815260200190815260200160002060000160009054906101000a900473ffffffffffffffffffffffffffffffffffffffff1673ffffffffffffffffffffffffffffffffffffffff1603610c01576040517f1f6a65b600000000000000000000000000000000000000000000000000000000815260040160405180910390fd5b600060046000815480929190610c1690613006565b919050559050600060056000815480929190610c3190613006565b91905055905060405180606001604052808a67ffffffffffffffff1681526020018863ffffffff1681526020018763ffffffff168152506008600084815260200190815260200160002060008201518160000160006101000a81548167ffffffffffffffff021916908367ffffffffffffffff16021790555060208201518160000160086101000a81548163ffffffff021916908363ffffffff160217905550604082015181600001600c6101000a81548163ffffffff021916908363ffffffff1602179055509050503373ffffffffffffffffffffffffffffffffffffffff168967ffffffffffffffff168b7f63373d1c4696214b898952999c9aaec57dac1ee2723cec59bea6888f489a977285858d8d8d604051610d5595949392919061304e565b60405180910390a48194505050505095945050505050565b6000806000806000806000806000620186a080620186a080620186a0600080600080985098509850985098509850985098509850909192939495969798565b7f000000000000000000000000000000000000000000000000000000000000000081565b816000600660008367ffffffffffffffff1667ffffffffffffffff16815260200190815260200160002060000160009054906101000a900473ffffffffffffffffffffffffffffffffffffffff169050600073ffffffffffffffffffffffffffffffffffffffff168173ffffffffffffffffffffffffffffffffffffffff1603610e86576040517f1f6a65b600000000000000000000000000000000000000000000000000000000815260040160405180910390fd5b8073ffffffffffffffffffffffffffffffffffffffff163373ffffffffffffffffffffffffffffffffffffffff1614610ef657806040517fd8a3fb52000000000000000000000000000000000000000000000000000000008152600401610eed919061299c565b60405180910390fd5b7f000000000000000000000000000000000000000000000000000000000000000061ffff16600760008667ffffffffffffffff1667ffffffffffffffff1681526020019081526020016000208054905003610f7d576040517f05a48e0f00000000000000000000000000000000000000000000000000000000815260040160405180910390fd5b610f878484611f8a565b61105657600760008567ffffffffffffffff1667ffffffffffffffff168152602001908152602001600020839080600181540180825580915050600190039060005260206000200160009091909190916101000a81548173ffffffffffffffffffffffffffffffffffffffff021916908373ffffffffffffffffffffffffffffffffffffffff1602179055508367ffffffffffffffff167f752ead9f4536ec1319ee3a5a604e1d65eded22e0924251552ba14ae4faa1bbc38460405161104d919061299c565b60405180910390a25b50505050565b600160009054906101000a900473ffffffffffffffffffffffffffffffffffffffff1673ffffffffffffffffffffffffffffffffffffffff163373ffffffffffffffffffffffffffffffffffffffff16146110ec576040517f08c379a00000000000000000000000000000000000000000000000000000000081526004016110e3906130ed565b60405180910390fd5b60008060009054906101000a900473ffffffffffffffffffffffffffffffffffffffff169050336000806101000a81548173ffffffffffffffffffffffffffffffffffffffff021916908373ffffffffffffffffffffffffffffffffffffffff1602179055506000600160006101000a81548173ffffffffffffffffffffffffffffffffffffffff021916908373ffffffffffffffffffffffffffffffffffffffff1602179055503373ffffffffffffffffffffffffffffffffffffffff168173ffffffffffffffffffffffffffffffffffffffff167f8be0079c531659141344cd1fd0a4f28419497f9722a3daafe3b4186f6b6457e060405160405180910390a350565b600260000160009054906101000a900460ff161561123b576040517fed3ba6a600000000000000000000000000000000000000000000000000000000815260040160405180910390fd5b61128f8282600067ffffffffffffffff81111561125b5761125a612509565b5b6040519080825280602002602001820160405280156112895781602001602082028036833780820191505090505b506104e5565b5050565b6040517f08c379a00000000000000000000000000000000000000000000000000000000081526004016112c590612c5c565b60405180910390fd5b6112d66120cd565b604051806020016040528060001515815250600260008201518160000160006101000a81548160ff0219169083151502179055509050507f4b2974a542484cba2783812ff8033f7fc682cac2fe0905c28c5e27869b3155be60405160405180910390a1565b60008060009054906101000a900473ffffffffffffffffffffffffffffffffffffffff16905090565b816000600660008367ffffffffffffffff1667ffffffffffffffff16815260200190815260200160002060000160009054906101000a900473ffffffffffffffffffffffffffffffffffffffff169050600073ffffffffffffffffffffffffffffffffffffffff168173ffffffffffffffffffffffffffffffffffffffff160361141a576040517f1f6a65b600000000000000000000000000000000000000000000000000000000815260040160405180910390fd5b8073ffffffffffffffffffffffffffffffffffffffff163373ffffffffffffffffffffffffffffffffffffffff161461148a57806040517fd8a3fb52000000000000000000000000000000000000000000000000000000008152600401611481919061299c565b60405180910390fd5b83836114968282611f8a565b6114cc576040517f71e8313700000000000000000000000000000000000000000000000000000000815260040160405180910390fd5b600260000160009054906101000a900460ff1615611516576040517fed3ba6a600000000000000000000000000000000000000000000000000000000815260040160405180910390fd5b6000600760008867ffffffffffffffff1667ffffffffffffffff168152602001908152602001600020905060005b81805490508110156116c7578673ffffffffffffffffffffffffffffffffffffffff1682828154811061157a57611579612d11565b5b9060005260206000200160009054906101000a900473ffffffffffffffffffffffffffffffffffffffff1673ffffffffffffffffffffffffffffffffffffffff16036116ba57600082600184805490506115d49190612ee5565b815481106115e5576115e4612d11565b5b9060005260206000200160009054906101000a900473ffffffffffffffffffffffffffffffffffffffff1690508083838154811061162657611625612d11565b5b9060005260206000200160006101000a81548173ffffffffffffffffffffffffffffffffffffffff021916908373ffffffffffffffffffffffffffffffffffffffff1602179055508280548061167f5761167e61310d565b5b6001900381819060005260206000200160006101000a81549073ffffffffffffffffffffffffffffffffffffffff02191690559055506116c7565b8080600101915050611544565b508667ffffffffffffffff167ff9bc9d5b5733d904409def43a5ecc888dbdac9a95687780d8fd489d3bb3813fc87604051611702919061299c565b60405180910390a250505050505050565b60006003600081819054906101000a900467ffffffffffffffff168092919061173b9061313c565b91906101000a81548167ffffffffffffffff021916908367ffffffffffffffff1602179055505060405180604001604052803373ffffffffffffffffffffffffffffffffffffffff16815260200160006bffffffffffffffffffffffff1681525060066000600360009054906101000a900467ffffffffffffffff1667ffffffffffffffff1667ffffffffffffffff16815260200190815260200160002060008201518160000160006101000a81548173ffffffffffffffffffffffffffffffffffffffff021916908373ffffffffffffffffffffffffffffffffffffffff16021790555060208201518160000160146101000a8154816bffffffffffffffffffffffff02191690836bffffffffffffffffffffffff160217905550905050600360009054906101000a900467ffffffffffffffff1667ffffffffffffffff167f464722b4166576d3dcbba877b999bc35cf911f4eaf434b7eba68fa113951d0bf336040516118aa919061299c565b60405180910390a2600360009054906101000a900467ffffffffffffffff16905090565b7f000000000000000000000000000000000000000000000000000000000000000081565b60008060006060600073ffffffffffffffffffffffffffffffffffffffff16600660008767ffffffffffffffff1667ffffffffffffffff16815260200190815260200160002060000160009054906101000a900473ffffffffffffffffffffffffffffffffffffffff1673ffffffffffffffffffffffffffffffffffffffff16036119a9576040517f1f6a65b600000000000000000000000000000000000000000000000000000000815260040160405180910390fd5b600660008667ffffffffffffffff1667ffffffffffffffff16815260200190815260200160002060000160149054906101000a90046bffffffffffffffffffffffff166000600660008867ffffffffffffffff1667ffffffffffffffff16815260200190815260200160002060000160009054906101000a900473ffffffffffffffffffffffffffffffffffffffff16600760008967ffffffffffffffff1667ffffffffffffffff16815260200190815260200160002080805480602002602001604051908101604052809291908181526020018280548015611ae157602002820191906000526020600020905b8160009054906101000a900473ffffffffffffffffffffffffffffffffffffffff1673ffffffffffffffffffffffffffffffffffffffff1681526020019060010190808311611a97575b5050505050905093509350935093509193509193565b600073ffffffffffffffffffffffffffffffffffffffff16600660008467ffffffffffffffff1667ffffffffffffffff16815260200190815260200160002060000160009054906101000a900473ffffffffffffffffffffffffffffffffffffffff1673ffffffffffffffffffffffffffffffffffffffff1603611ba7576040517f1f6a65b600000000000000000000000000000000000000000000000000000000815260040160405180910390fd5b6000600660008467ffffffffffffffff1667ffffffffffffffff16815260200190815260200160002060000160149054906101000a90046bffffffffffffffffffffffff16905081600660008567ffffffffffffffff1667ffffffffffffffff16815260200190815260200160002060000160148282829054906101000a90046bffffffffffffffffffffffff16611c3f919061316c565b92506101000a8154816bffffffffffffffffffffffff02191690836bffffffffffffffffffffffff1602179055508267ffffffffffffffff167fd39ec07f4e209f627a4c427971473820dc129761ba28de8906bd56f57101d4f8828484611ca6919061316c565b604051611cb49291906131e7565b60405180910390a2505050565b6000806000806004622625a0610a8c618205935093509350935090919293565b816000600660008367ffffffffffffffff1667ffffffffffffffff16815260200190815260200160002060000160009054906101000a900473ffffffffffffffffffffffffffffffffffffffff169050600073ffffffffffffffffffffffffffffffffffffffff168173ffffffffffffffffffffffffffffffffffffffff1603611d97576040517f1f6a65b600000000000000000000000000000000000000000000000000000000815260040160405180910390fd5b8073ffffffffffffffffffffffffffffffffffffffff163373ffffffffffffffffffffffffffffffffffffffff1614611e0757806040517fd8a3fb52000000000000000000000000000000000000000000000000000000008152600401611dfe919061299c565b60405180910390fd5b600260000160009054906101000a900460ff1615611e51576040517fed3ba6a600000000000000000000000000000000000000000000000000000000815260040160405180910390fd5b8367ffffffffffffffff167fe8ed5b475a5b5987aa9165e8731bb78043f39eee32ec5a1169a89e27fcd4981584600660008867ffffffffffffffff1667ffffffffffffffff16815260200190815260200160002060000160149054906101000a90046bffffffffffffffffffffffff16604051611ecf929190613210565b60405180910390a2600660008567ffffffffffffffff1667ffffffffffffffff168152602001908152602001600020600080820160006101000a81549073ffffffffffffffffffffffffffffffffffffffff02191690556000820160146101000a8154906bffffffffffffffffffffffff0219169055505050505050565b60006040517f08c379a0000000000000000000000000000000000000000000000000000000008152600401611f8190612c5c565b60405180910390fd5b600080600760008567ffffffffffffffff1667ffffffffffffffff16815260200190815260200160002080548060200260200160405190810160405280929190818152602001828054801561203457602002820191906000526020600020905b8160009054906101000a900473ffffffffffffffffffffffffffffffffffffffff1673ffffffffffffffffffffffffffffffffffffffff1681526020019060010190808311611fea575b5050505050905060005b81518110156120ac578373ffffffffffffffffffffffffffffffffffffffff1682828151811061207157612070612d11565b5b602002602001015173ffffffffffffffffffffffffffffffffffffffff160361209f576001925050506120b3565b808060010191505061203e565b5060009150505b92915050565b6120c16120cd565b6120ca8161215d565b50565b60008054906101000a900473ffffffffffffffffffffffffffffffffffffffff1673ffffffffffffffffffffffffffffffffffffffff163373ffffffffffffffffffffffffffffffffffffffff161461215b576040517f08c379a000000000000000000000000000000000000000000000000000000000815260040161215290613285565b60405180910390fd5b565b3373ffffffffffffffffffffffffffffffffffffffff168173ffffffffffffffffffffffffffffffffffffffff16036121cb576040517f08c379a00000000000000000000000000000000000000000000000000000000081526004016121c2906132f1565b60405180910390fd5b80600160006101000a81548173ffffffffffffffffffffffffffffffffffffffff021916908373ffffffffffffffffffffffffffffffffffffffff1602179055508073ffffffffffffffffffffffffffffffffffffffff1660008054906101000a900473ffffffffffffffffffffffffffffffffffffffff1673ffffffffffffffffffffffffffffffffffffffff167fed8889f560326eb138920d842192f0eb3dd22b4f139c87a2c57538e05bae127860405160405180910390a350565b600061ffff82169050919050565b6122a081612289565b82525050565b600063ffffffff82169050919050565b6122bf816122a6565b82525050565b600081519050919050565b600082825260208201905092915050565b6000819050602082019050919050565b6000819050919050565b612304816122f1565b82525050565b600061231683836122fb565b60208301905092915050565b6000602082019050919050565b600061233a826122c5565b61234481856122d0565b935061234f836122e1565b8060005b83811015612380578151612367888261230a565b975061237283612322565b925050600181019050612353565b5085935050505092915050565b60006060820190506123a26000830186612297565b6123af60208301856122b6565b81810360408301526123c1818461232f565b9050949350505050565b6000604051905090565b600080fd5b600080fd5b600067ffffffffffffffff82169050919050565b6123fc816123df565b811461240757600080fd5b50565b600081359050612419816123f3565b92915050565b600073ffffffffffffffffffffffffffffffffffffffff82169050919050565b600061244a8261241f565b9050919050565b61245a8161243f565b811461246557600080fd5b50565b60008135905061247781612451565b92915050565b60008060408385031215612494576124936123d5565b5b60006124a28582860161240a565b92505060206124b385828601612468565b9150509250929050565b6000819050919050565b6124d0816124bd565b81146124db57600080fd5b50565b6000813590506124ed816124c7565b92915050565b600080fd5b6000601f19601f8301169050919050565b7f4e487b7100000000000000000000000000000000000000000000000000000000600052604160045260246000fd5b612541826124f8565b810181811067ffffffffffffffff821117156125605761255f612509565b5b80604052505050565b60006125736123cb565b905061257f8282612538565b919050565b600067ffffffffffffffff82111561259f5761259e612509565b5b602082029050602081019050919050565b600080fd5b60006125c86125c384612584565b612569565b905080838252602082019050602084028301858111156125eb576125ea6125b0565b5b835b81811015612614578061260088826124de565b8452602084019350506020810190506125ed565b5050509392505050565b600082601f830112612633576126326124f3565b5b81356126438482602086016125b5565b91505092915050565b600080600060608486031215612665576126646123d5565b5b6000612673868287016124de565b935050602061268486828701612468565b925050604084013567ffffffffffffffff8111156126a5576126a46123da565b5b6126b18682870161261e565b9150509250925092565b6000819050919050565b6126ce816126bb565b82525050565b60006020820190506126e960008301846126c5565b92915050565b60006bffffffffffffffffffffffff82169050919050565b612710816126ef565b82525050565b600060208201905061272b6000830184612707565b92915050565b61273a816122f1565b811461274557600080fd5b50565b60008135905061275781612731565b92915050565b61276681612289565b811461277157600080fd5b50565b6000813590506127838161275d565b92915050565b612792816122a6565b811461279d57600080fd5b50565b6000813590506127af81612789565b92915050565b600080600080600060a086880312156127d1576127d06123d5565b5b60006127df88828901612748565b95505060206127f08882890161240a565b945050604061280188828901612774565b9350506060612812888289016127a0565b9250506080612823888289016127a0565b9150509295509295909350565b612839816124bd565b82525050565b60006020820190506128546000830184612830565b92915050565b600062ffffff82169050919050565b6128728161285a565b82525050565b60006101208201905061288e600083018c6122b6565b61289b602083018b6122b6565b6128a8604083018a6122b6565b6128b560608301896122b6565b6128c260808301886122b6565b6128cf60a0830187612869565b6128dc60c0830186612869565b6128e960e0830185612869565b6128f7610100830184612869565b9a9950505050505050505050565b600060208201905061291a6000830184612297565b92915050565b60008060408385031215612937576129366123d5565b5b6000612945858286016124de565b925050602061295685828601612468565b9150509250929050565b600060208284031215612976576129756123d5565b5b60006129848482850161240a565b91505092915050565b6129968161243f565b82525050565b60006020820190506129b1600083018461298d565b92915050565b6129c0816123df565b82525050565b60006020820190506129db60008301846129b7565b92915050565b600081519050919050565b600082825260208201905092915050565b6000819050602082019050919050565b612a168161243f565b82525050565b6000612a288383612a0d565b60208301905092915050565b6000602082019050919050565b6000612a4c826129e1565b612a5681856129ec565b9350612a61836129fd565b8060005b83811015612a92578151612a798882612a1c565b9750612a8483612a34565b925050600181019050612a65565b5085935050505092915050565b6000608082019050612ab46000830187612707565b612ac160208301866129b7565b612ace604083018561298d565b8181036060830152612ae08184612a41565b905095945050505050565b612af4816126ef565b8114612aff57600080fd5b50565b600081359050612b1181612aeb565b92915050565b60008060408385031215612b2e57612b2d6123d5565b5b6000612b3c8582860161240a565b9250506020612b4d85828601612b02565b9150509250929050565b6000608082019050612b6c6000830187612297565b612b7960208301866122b6565b612b8660408301856122b6565b612b9360608301846122b6565b95945050505050565b60008115159050919050565b612bb181612b9c565b82525050565b6000602082019050612bcc6000830184612ba8565b92915050565b600060208284031215612be857612be76123d5565b5b6000612bf684828501612468565b91505092915050565b600082825260208201905092915050565b7f6e6f7420696d706c656d656e7465640000000000000000000000000000000000600082015250565b6000612c46600f83612bff565b9150612c5182612c10565b602082019050919050565b60006020820190508181036000830152612c7581612c39565b9050919050565b7f6e6f6e6578697374656e74207265717565737400000000000000000000000000600082015250565b6000612cb2601383612bff565b9150612cbd82612c7c565b602082019050919050565b60006020820190508181036000830152612ce181612ca5565b9050919050565b6000604082019050612cfd6000830185612830565b612d0a6020830184612830565b9392505050565b7f4e487b7100000000000000000000000000000000000000000000000000000000600052603260045260246000fd5b600081519050919050565b600082825260208201905092915050565b6000819050602082019050919050565b612d75816124bd565b82525050565b6000612d878383612d6c565b60208301905092915050565b6000602082019050919050565b6000612dab82612d40565b612db58185612d4b565b9350612dc083612d5c565b8060005b83811015612df1578151612dd88882612d7b565b9750612de383612d93565b925050600181019050612dc4565b5085935050505092915050565b6000604082019050612e136000830185612830565b8181036020830152612e258184612da0565b90509392505050565b600081519050919050565b600081905092915050565b60005b83811015612e62578082015181840152602081019050612e47565b60008484015250505050565b6000612e7982612e2e565b612e838185612e39565b9350612e93818560208601612e44565b80840191505092915050565b6000612eab8284612e6e565b915081905092915050565b7f4e487b7100000000000000000000000000000000000000000000000000000000600052601160045260246000fd5b6000612ef0826124bd565b9150612efb836124bd565b9250828203905081811115612f1357612f12612eb6565b5b92915050565b6000612f24826124bd565b9150612f2f836124bd565b9250828202612f3d816124bd565b91508282048414831517612f5457612f53612eb6565b5b5092915050565b6000612f66826124bd565b9150612f71836124bd565b9250828201905080821115612f8957612f88612eb6565b5b92915050565b6000612f9a826126ef565b9150612fa5836126ef565b925082820390506bffffffffffffffffffffffff811115612fc957612fc8612eb6565b5b92915050565b6000606082019050612fe46000830186612830565b612ff16020830185612707565b612ffe6040830184612ba8565b949350505050565b6000613011826124bd565b91507fffffffffffffffffffffffffffffffffffffffffffffffffffffffffffffffff820361304357613042612eb6565b5b600182019050919050565b600060a0820190506130636000830188612830565b6130706020830187612830565b61307d6040830186612297565b61308a60608301856122b6565b61309760808301846122b6565b9695505050505050565b7f4d7573742062652070726f706f736564206f776e657200000000000000000000600082015250565b60006130d7601683612bff565b91506130e2826130a1565b602082019050919050565b60006020820190508181036000830152613106816130ca565b9050919050565b7f4e487b7100000000000000000000000000000000000000000000000000000000600052603160045260246000fd5b6000613147826123df565b915067ffffffffffffffff820361316157613160612eb6565b5b600182019050919050565b6000613177826126ef565b9150613182836126ef565b925082820190506bffffffffffffffffffffffff8111156131a6576131a5612eb6565b5b92915050565b6000819050919050565b60006131d16131cc6131c7846126ef565b6131ac565b6124bd565b9050919050565b6131e1816131b6565b82525050565b60006040820190506131fc60008301856131d8565b61320960208301846131d8565b9392505050565b6000604082019050613225600083018561298d565b61323260208301846131d8565b9392505050565b7f4f6e6c792063616c6c61626c65206279206f776e657200000000000000000000600082015250565b600061326f601683612bff565b915061327a82613239565b602082019050919050565b6000602082019050818103600083015261329e81613262565b9050919050565b7f43616e6e6f74207472616e7366657220746f2073656c66000000000000000000600082015250565b60006132db601783612bff565b91506132e6826132a5565b602082019050919050565b6000602082019050818103600083015261330a816132ce565b905091905056fea2646970667358221220d36edc0691cf04e25d495692a7ee4b1adf74f66d901ea94239d3ffab5ab9668664736f6c63430008180033","opcodes":"PUSH1 0xE0 PUSH1 0x40 MSTORE PUSH1 0x64 PUSH2 0xFFFF AND PUSH1 0xC0 SWAP1 PUSH2 0xFFFF AND DUP2 MSTORE POP PUSH1 0x1 PUSH1 0x4 SSTORE PUSH1 0x64 PUSH1 0x5 SSTORE CALLVALUE DUP1 ISZERO PUSH3 0x2B JUMPI PUSH1 0x0 DUP1 REVERT JUMPDEST POP PUSH1 0x40 MLOAD PUSH3 0x396F CODESIZE SUB DUP1 PUSH3 0x396F DUP4 CODECOPY DUP2 DUP2 ADD PUSH1 0x40 MSTORE DUP2 ADD SWAP1 PUSH3 0x51 SWAP2 SWAP1 PUSH3 0x435 JUMP JUMPDEST CALLER DUP1 PUSH1 0x0 DUP1 PUSH20 0xFFFFFFFFFFFFFFFFFFFFFFFFFFFFFFFFFFFFFFFF AND DUP3 PUSH20 0xFFFFFFFFFFFFFFFFFFFFFFFFFFFFFFFFFFFFFFFF AND SUB PUSH3 0xC6 JUMPI PUSH1 0x40 MLOAD PUSH32 0x8C379A000000000000000000000000000000000000000000000000000000000 DUP2 MSTORE PUSH1 0x4 ADD PUSH3 0xBD SWAP1 PUSH3 0x4DD JUMP JUMPDEST PUSH1 0x40 MLOAD DUP1 SWAP2 SUB SWAP1 REVERT JUMPDEST DUP2 PUSH1 0x0 DUP1 PUSH2 0x100 EXP DUP2 SLOAD DUP2 PUSH20 0xFFFFFFFFFFFFFFFFFFFFFFFFFFFFFFFFFFFFFFFF MUL NOT AND SWAP1 DUP4 PUSH20 0xFFFFFFFFFFFFFFFFFFFFFFFFFFFFFFFFFFFFFFFF AND MUL OR SWAP1 SSTORE POP PUSH1 0x0 PUSH20 0xFFFFFFFFFFFFFFFFFFFFFFFFFFFFFFFFFFFFFFFF AND DUP2 PUSH20 0xFFFFFFFFFFFFFFFFFFFFFFFFFFFFFFFFFFFFFFFF AND EQ PUSH3 0x14D JUMPI PUSH3 0x14C DUP2 PUSH3 0x1B0 PUSH1 0x20 SHL PUSH1 0x20 SHR JUMP JUMPDEST JUMPDEST POP POP POP DUP2 PUSH12 0xFFFFFFFFFFFFFFFFFFFFFFFF AND PUSH1 0x80 DUP2 PUSH12 0xFFFFFFFFFFFFFFFFFFFFFFFF AND DUP2 MSTORE POP POP DUP1 PUSH12 0xFFFFFFFFFFFFFFFFFFFFFFFF AND PUSH1 0xA0 DUP2 PUSH12 0xFFFFFFFFFFFFFFFFFFFFFFFF AND DUP2 MSTORE POP POP PUSH3 0x1A8 PUSH3 0x2DF PUSH1 0x20 SHL PUSH1 0x20 SHR JUMP JUMPDEST POP POP PUSH3 0x5E3 JUMP JUMPDEST CALLER PUSH20 0xFFFFFFFFFFFFFFFFFFFFFFFFFFFFFFFFFFFFFFFF AND DUP2 PUSH20 0xFFFFFFFFFFFFFFFFFFFFFFFFFFFFFFFFFFFFFFFF AND SUB PUSH3 0x221 JUMPI PUSH1 0x40 MLOAD PUSH32 0x8C379A000000000000000000000000000000000000000000000000000000000 DUP2 MSTORE PUSH1 0x4 ADD PUSH3 0x218 SWAP1 PUSH3 0x54F JUMP JUMPDEST PUSH1 0x40 MLOAD DUP1 SWAP2 SUB SWAP1 REVERT JUMPDEST DUP1 PUSH1 0x1 PUSH1 0x0 PUSH2 0x100 EXP DUP2 SLOAD DUP2 PUSH20 0xFFFFFFFFFFFFFFFFFFFFFFFFFFFFFFFFFFFFFFFF MUL NOT AND SWAP1 DUP4 PUSH20 0xFFFFFFFFFFFFFFFFFFFFFFFFFFFFFFFFFFFFFFFF AND MUL OR SWAP1 SSTORE POP DUP1 PUSH20 0xFFFFFFFFFFFFFFFFFFFFFFFFFFFFFFFFFFFFFFFF AND PUSH1 0x0 DUP1 SLOAD SWAP1 PUSH2 0x100 EXP SWAP1 DIV PUSH20 0xFFFFFFFFFFFFFFFFFFFFFFFFFFFFFFFFFFFFFFFF AND PUSH20 0xFFFFFFFFFFFFFFFFFFFFFFFFFFFFFFFFFFFFFFFF AND PUSH32 0xED8889F560326EB138920D842192F0EB3DD22B4F139C87A2C57538E05BAE1278 PUSH1 0x40 MLOAD PUSH1 0x40 MLOAD DUP1 SWAP2 SUB SWAP1 LOG3 POP JUMP JUMPDEST PUSH3 0x2EF PUSH3 0x354 PUSH1 0x20 SHL PUSH1 0x20 SHR JUMP JUMPDEST PUSH1 0x40 MLOAD DUP1 PUSH1 0x20 ADD PUSH1 0x40 MSTORE DUP1 PUSH1 0x0 ISZERO ISZERO DUP2 MSTORE POP PUSH1 0x2 PUSH1 0x0 DUP3 ADD MLOAD DUP2 PUSH1 0x0 ADD PUSH1 0x0 PUSH2 0x100 EXP DUP2 SLOAD DUP2 PUSH1 0xFF MUL NOT AND SWAP1 DUP4 ISZERO ISZERO MUL OR SWAP1 SSTORE POP SWAP1 POP POP PUSH32 0x4B2974A542484CBA2783812FF8033F7FC682CAC2FE0905C28C5E27869B3155BE PUSH1 0x40 MLOAD PUSH1 0x40 MLOAD DUP1 SWAP2 SUB SWAP1 LOG1 JUMP JUMPDEST PUSH1 0x0 DUP1 SLOAD SWAP1 PUSH2 0x100 EXP SWAP1 DIV PUSH20 0xFFFFFFFFFFFFFFFFFFFFFFFFFFFFFFFFFFFFFFFF AND PUSH20 0xFFFFFFFFFFFFFFFFFFFFFFFFFFFFFFFFFFFFFFFF AND CALLER PUSH20 0xFFFFFFFFFFFFFFFFFFFFFFFFFFFFFFFFFFFFFFFF AND EQ PUSH3 0x3E5 JUMPI PUSH1 0x40 MLOAD PUSH32 0x8C379A000000000000000000000000000000000000000000000000000000000 DUP2 MSTORE PUSH1 0x4 ADD PUSH3 0x3DC SWAP1 PUSH3 0x5C1 JUMP JUMPDEST PUSH1 0x40 MLOAD DUP1 SWAP2 SUB SWAP1 REVERT JUMPDEST JUMP JUMPDEST PUSH1 0x0 DUP1 REVERT JUMPDEST PUSH1 0x0 PUSH12 0xFFFFFFFFFFFFFFFFFFFFFFFF DUP3 AND SWAP1 POP SWAP2 SWAP1 POP JUMP JUMPDEST PUSH3 0x40F DUP2 PUSH3 0x3EC JUMP JUMPDEST DUP2 EQ PUSH3 0x41B JUMPI PUSH1 0x0 DUP1 REVERT JUMPDEST POP JUMP JUMPDEST PUSH1 0x0 DUP2 MLOAD SWAP1 POP PUSH3 0x42F DUP2 PUSH3 0x404 JUMP JUMPDEST SWAP3 SWAP2 POP POP JUMP JUMPDEST PUSH1 0x0 DUP1 PUSH1 0x40 DUP4 DUP6 SUB SLT ISZERO PUSH3 0x44F JUMPI PUSH3 0x44E PUSH3 0x3E7 JUMP JUMPDEST JUMPDEST PUSH1 0x0 PUSH3 0x45F DUP6 DUP3 DUP7 ADD PUSH3 0x41E JUMP JUMPDEST SWAP3 POP POP PUSH1 0x20 PUSH3 0x472 DUP6 DUP3 DUP7 ADD PUSH3 0x41E JUMP JUMPDEST SWAP2 POP POP SWAP3 POP SWAP3 SWAP1 POP JUMP JUMPDEST PUSH1 0x0 DUP3 DUP3 MSTORE PUSH1 0x20 DUP3 ADD SWAP1 POP SWAP3 SWAP2 POP POP JUMP JUMPDEST PUSH32 0x43616E6E6F7420736574206F776E657220746F207A65726F0000000000000000 PUSH1 0x0 DUP3 ADD MSTORE POP JUMP JUMPDEST PUSH1 0x0 PUSH3 0x4C5 PUSH1 0x18 DUP4 PUSH3 0x47C JUMP JUMPDEST SWAP2 POP PUSH3 0x4D2 DUP3 PUSH3 0x48D JUMP JUMPDEST PUSH1 0x20 DUP3 ADD SWAP1 POP SWAP2 SWAP1 POP JUMP JUMPDEST PUSH1 0x0 PUSH1 0x20 DUP3 ADD SWAP1 POP DUP2 DUP2 SUB PUSH1 0x0 DUP4 ADD MSTORE PUSH3 0x4F8 DUP2 PUSH3 0x4B6 JUMP JUMPDEST SWAP1 POP SWAP2 SWAP1 POP JUMP JUMPDEST PUSH32 0x43616E6E6F74207472616E7366657220746F2073656C66000000000000000000 PUSH1 0x0 DUP3 ADD MSTORE POP JUMP JUMPDEST PUSH1 0x0 PUSH3 0x537 PUSH1 0x17 DUP4 PUSH3 0x47C JUMP JUMPDEST SWAP2 POP PUSH3 0x544 DUP3 PUSH3 0x4FF JUMP JUMPDEST PUSH1 0x20 DUP3 ADD SWAP1 POP SWAP2 SWAP1 POP JUMP JUMPDEST PUSH1 0x0 PUSH1 0x20 DUP3 ADD SWAP1 POP DUP2 DUP2 SUB PUSH1 0x0 DUP4 ADD MSTORE PUSH3 0x56A DUP2 PUSH3 0x528 JUMP JUMPDEST SWAP1 POP SWAP2 SWAP1 POP JUMP JUMPDEST PUSH32 0x4F6E6C792063616C6C61626C65206279206F776E657200000000000000000000 PUSH1 0x0 DUP3 ADD MSTORE POP JUMP JUMPDEST PUSH1 0x0 PUSH3 0x5A9 PUSH1 0x16 DUP4 PUSH3 0x47C JUMP JUMPDEST SWAP2 POP PUSH3 0x5B6 DUP3 PUSH3 0x571 JUMP JUMPDEST PUSH1 0x20 DUP3 ADD SWAP1 POP SWAP2 SWAP1 POP JUMP JUMPDEST PUSH1 0x0 PUSH1 0x20 DUP3 ADD SWAP1 POP DUP2 DUP2 SUB PUSH1 0x0 DUP4 ADD MSTORE PUSH3 0x5DC DUP2 PUSH3 0x59A JUMP JUMPDEST SWAP1 POP SWAP2 SWAP1 POP JUMP JUMPDEST PUSH1 0x80 MLOAD PUSH1 0xA0 MLOAD PUSH1 0xC0 MLOAD PUSH2 0x3347 PUSH3 0x628 PUSH1 0x0 CODECOPY PUSH1 0x0 DUP2 DUP2 PUSH2 0xDAE ADD MSTORE PUSH2 0xEF8 ADD MSTORE PUSH1 0x0 DUP2 DUP2 PUSH2 0x84D ADD MSTORE PUSH2 0x18D0 ADD MSTORE PUSH1 0x0 DUP2 DUP2 PUSH2 0x892 ADD MSTORE PUSH2 0xAA1 ADD MSTORE PUSH2 0x3347 PUSH1 0x0 RETURN INVALID PUSH1 0x80 PUSH1 0x40 MSTORE CALLVALUE DUP1 ISZERO PUSH2 0x10 JUMPI PUSH1 0x0 DUP1 REVERT JUMPDEST POP PUSH1 0x4 CALLDATASIZE LT PUSH2 0x157 JUMPI PUSH1 0x0 CALLDATALOAD PUSH1 0xE0 SHR DUP1 PUSH4 0x8B673E7A GT PUSH2 0xC3 JUMPI DUP1 PUSH4 0xAFC69B53 GT PUSH2 0x7C JUMPI DUP1 PUSH4 0xAFC69B53 EQ PUSH2 0x375 JUMPI DUP1 PUSH4 0xC3F909D4 EQ PUSH2 0x391 JUMPI DUP1 PUSH4 0xD7AE1D30 EQ PUSH2 0x3B2 JUMPI DUP1 PUSH4 0xE82AD7D4 EQ PUSH2 0x3CE JUMPI DUP1 PUSH4 0xED5EB06D EQ PUSH2 0x3FE JUMPI DUP1 PUSH4 0xF2FDE38B EQ PUSH2 0x42E JUMPI PUSH2 0x157 JUMP JUMPDEST DUP1 PUSH4 0x8B673E7A EQ PUSH2 0x2C2 JUMPI DUP1 PUSH4 0x8DA5CB5B EQ PUSH2 0x2CC JUMPI DUP1 PUSH4 0x9F87FAD7 EQ PUSH2 0x2EA JUMPI DUP1 PUSH4 0xA21A23E4 EQ PUSH2 0x306 JUMPI DUP1 PUSH4 0xA410347F EQ PUSH2 0x324 JUMPI DUP1 PUSH4 0xA47C7696 EQ PUSH2 0x342 JUMPI PUSH2 0x157 JUMP JUMPDEST DUP1 PUSH4 0x5FBBC0D2 GT PUSH2 0x115 JUMPI DUP1 PUSH4 0x5FBBC0D2 EQ PUSH2 0x220 JUMPI DUP1 PUSH4 0x64D51A2A EQ PUSH2 0x246 JUMPI DUP1 PUSH4 0x7341C10C EQ PUSH2 0x264 JUMPI DUP1 PUSH4 0x79BA5097 EQ PUSH2 0x280 JUMPI DUP1 PUSH4 0x808974FF EQ PUSH2 0x28A JUMPI DUP1 PUSH4 0x82359740 EQ PUSH2 0x2A6 JUMPI PUSH2 0x157 JUMP JUMPDEST DUP1 PUSH3 0x12291 EQ PUSH2 0x15C JUMPI DUP1 PUSH4 0x4C357CB EQ PUSH2 0x17C JUMPI DUP1 PUSH4 0x8E3898E EQ PUSH2 0x198 JUMPI DUP1 PUSH4 0x356DAC71 EQ PUSH2 0x1B4 JUMPI DUP1 PUSH4 0x3D18651E EQ PUSH2 0x1D2 JUMPI DUP1 PUSH4 0x5D3B1D30 EQ PUSH2 0x1F0 JUMPI JUMPDEST PUSH1 0x0 DUP1 REVERT JUMPDEST PUSH2 0x164 PUSH2 0x44A JUMP JUMPDEST PUSH1 0x40 MLOAD PUSH2 0x173 SWAP4 SWAP3 SWAP2 SWAP1 PUSH2 0x238D JUMP JUMPDEST PUSH1 0x40 MLOAD DUP1 SWAP2 SUB SWAP1 RETURN JUMPDEST PUSH2 0x196 PUSH1 0x4 DUP1 CALLDATASIZE SUB DUP2 ADD SWAP1 PUSH2 0x191 SWAP2 SWAP1 PUSH2 0x247D JUMP JUMPDEST PUSH2 0x4AA JUMP JUMPDEST STOP JUMPDEST PUSH2 0x1B2 PUSH1 0x4 DUP1 CALLDATASIZE SUB DUP2 ADD SWAP1 PUSH2 0x1AD SWAP2 SWAP1 PUSH2 0x264C JUMP JUMPDEST PUSH2 0x4E5 JUMP JUMPDEST STOP JUMPDEST PUSH2 0x1BC PUSH2 0xA90 JUMP JUMPDEST PUSH1 0x40 MLOAD PUSH2 0x1C9 SWAP2 SWAP1 PUSH2 0x26D4 JUMP JUMPDEST PUSH1 0x40 MLOAD DUP1 SWAP2 SUB SWAP1 RETURN JUMPDEST PUSH2 0x1DA PUSH2 0xA9F JUMP JUMPDEST PUSH1 0x40 MLOAD PUSH2 0x1E7 SWAP2 SWAP1 PUSH2 0x2716 JUMP JUMPDEST PUSH1 0x40 MLOAD DUP1 SWAP2 SUB SWAP1 RETURN JUMPDEST PUSH2 0x20A PUSH1 0x4 DUP1 CALLDATASIZE SUB DUP2 ADD SWAP1 PUSH2 0x205 SWAP2 SWAP1 PUSH2 0x27B5 JUMP JUMPDEST PUSH2 0xAC3 JUMP JUMPDEST PUSH1 0x40 MLOAD PUSH2 0x217 SWAP2 SWAP1 PUSH2 0x283F JUMP JUMPDEST PUSH1 0x40 MLOAD DUP1 SWAP2 SUB SWAP1 RETURN JUMPDEST PUSH2 0x228 PUSH2 0xD6D JUMP JUMPDEST PUSH1 0x40 MLOAD PUSH2 0x23D SWAP10 SWAP9 SWAP8 SWAP7 SWAP6 SWAP5 SWAP4 SWAP3 SWAP2 SWAP1 PUSH2 0x2878 JUMP JUMPDEST PUSH1 0x40 MLOAD DUP1 SWAP2 SUB SWAP1 RETURN JUMPDEST PUSH2 0x24E PUSH2 0xDAC JUMP JUMPDEST PUSH1 0x40 MLOAD PUSH2 0x25B SWAP2 SWAP1 PUSH2 0x2905 JUMP JUMPDEST PUSH1 0x40 MLOAD DUP1 SWAP2 SUB SWAP1 RETURN JUMPDEST PUSH2 0x27E PUSH1 0x4 DUP1 CALLDATASIZE SUB DUP2 ADD SWAP1 PUSH2 0x279 SWAP2 SWAP1 PUSH2 0x247D JUMP JUMPDEST PUSH2 0xDD0 JUMP JUMPDEST STOP JUMPDEST PUSH2 0x288 PUSH2 0x105C JUMP JUMPDEST STOP JUMPDEST PUSH2 0x2A4 PUSH1 0x4 DUP1 CALLDATASIZE SUB DUP2 ADD SWAP1 PUSH2 0x29F SWAP2 SWAP1 PUSH2 0x2920 JUMP JUMPDEST PUSH2 0x11F1 JUMP JUMPDEST STOP JUMPDEST PUSH2 0x2C0 PUSH1 0x4 DUP1 CALLDATASIZE SUB DUP2 ADD SWAP1 PUSH2 0x2BB SWAP2 SWAP1 PUSH2 0x2960 JUMP JUMPDEST PUSH2 0x1293 JUMP JUMPDEST STOP JUMPDEST PUSH2 0x2CA PUSH2 0x12CE JUMP JUMPDEST STOP JUMPDEST PUSH2 0x2D4 PUSH2 0x133B JUMP JUMPDEST PUSH1 0x40 MLOAD PUSH2 0x2E1 SWAP2 SWAP1 PUSH2 0x299C JUMP JUMPDEST PUSH1 0x40 MLOAD DUP1 SWAP2 SUB SWAP1 RETURN JUMPDEST PUSH2 0x304 PUSH1 0x4 DUP1 CALLDATASIZE SUB DUP2 ADD SWAP1 PUSH2 0x2FF SWAP2 SWAP1 PUSH2 0x247D JUMP JUMPDEST PUSH2 0x1364 JUMP JUMPDEST STOP JUMPDEST PUSH2 0x30E PUSH2 0x1713 JUMP JUMPDEST PUSH1 0x40 MLOAD PUSH2 0x31B SWAP2 SWAP1 PUSH2 0x29C6 JUMP JUMPDEST PUSH1 0x40 MLOAD DUP1 SWAP2 SUB SWAP1 RETURN JUMPDEST PUSH2 0x32C PUSH2 0x18CE JUMP JUMPDEST PUSH1 0x40 MLOAD PUSH2 0x339 SWAP2 SWAP1 PUSH2 0x2716 JUMP JUMPDEST PUSH1 0x40 MLOAD DUP1 SWAP2 SUB SWAP1 RETURN JUMPDEST PUSH2 0x35C PUSH1 0x4 DUP1 CALLDATASIZE SUB DUP2 ADD SWAP1 PUSH2 0x357 SWAP2 SWAP1 PUSH2 0x2960 JUMP JUMPDEST PUSH2 0x18F2 JUMP JUMPDEST PUSH1 0x40 MLOAD PUSH2 0x36C SWAP5 SWAP4 SWAP3 SWAP2 SWAP1 PUSH2 0x2A9F JUMP JUMPDEST PUSH1 0x40 MLOAD DUP1 SWAP2 SUB SWAP1 RETURN JUMPDEST PUSH2 0x38F PUSH1 0x4 DUP1 CALLDATASIZE SUB DUP2 ADD SWAP1 PUSH2 0x38A SWAP2 SWAP1 PUSH2 0x2B17 JUMP JUMPDEST PUSH2 0x1AF7 JUMP JUMPDEST STOP JUMPDEST PUSH2 0x399 PUSH2 0x1CC1 JUMP JUMPDEST PUSH1 0x40 MLOAD PUSH2 0x3A9 SWAP5 SWAP4 SWAP3 SWAP2 SWAP1 PUSH2 0x2B57 JUMP JUMPDEST PUSH1 0x40 MLOAD DUP1 SWAP2 SUB SWAP1 RETURN JUMPDEST PUSH2 0x3CC PUSH1 0x4 DUP1 CALLDATASIZE SUB DUP2 ADD SWAP1 PUSH2 0x3C7 SWAP2 SWAP1 PUSH2 0x247D JUMP JUMPDEST PUSH2 0x1CE1 JUMP JUMPDEST STOP JUMPDEST PUSH2 0x3E8 PUSH1 0x4 DUP1 CALLDATASIZE SUB DUP2 ADD SWAP1 PUSH2 0x3E3 SWAP2 SWAP1 PUSH2 0x2960 JUMP JUMPDEST PUSH2 0x1F4D JUMP JUMPDEST PUSH1 0x40 MLOAD PUSH2 0x3F5 SWAP2 SWAP1 PUSH2 0x2BB7 JUMP JUMPDEST PUSH1 0x40 MLOAD DUP1 SWAP2 SUB SWAP1 RETURN JUMPDEST PUSH2 0x418 PUSH1 0x4 DUP1 CALLDATASIZE SUB DUP2 ADD SWAP1 PUSH2 0x413 SWAP2 SWAP1 PUSH2 0x247D JUMP JUMPDEST PUSH2 0x1F8A JUMP JUMPDEST PUSH1 0x40 MLOAD PUSH2 0x425 SWAP2 SWAP1 PUSH2 0x2BB7 JUMP JUMPDEST PUSH1 0x40 MLOAD DUP1 SWAP2 SUB SWAP1 RETURN JUMPDEST PUSH2 0x448 PUSH1 0x4 DUP1 CALLDATASIZE SUB DUP2 ADD SWAP1 PUSH2 0x443 SWAP2 SWAP1 PUSH2 0x2BD2 JUMP JUMPDEST PUSH2 0x20B9 JUMP JUMPDEST STOP JUMPDEST PUSH1 0x0 DUP1 PUSH1 0x60 PUSH1 0x3 PUSH3 0x1E8480 PUSH1 0x0 PUSH8 0xFFFFFFFFFFFFFFFF DUP2 GT ISZERO PUSH2 0x470 JUMPI PUSH2 0x46F PUSH2 0x2509 JUMP JUMPDEST JUMPDEST PUSH1 0x40 MLOAD SWAP1 DUP1 DUP3 MSTORE DUP1 PUSH1 0x20 MUL PUSH1 0x20 ADD DUP3 ADD PUSH1 0x40 MSTORE DUP1 ISZERO PUSH2 0x49E JUMPI DUP2 PUSH1 0x20 ADD PUSH1 0x20 DUP3 MUL DUP1 CALLDATASIZE DUP4 CALLDATACOPY DUP1 DUP3 ADD SWAP2 POP POP SWAP1 POP JUMPDEST POP SWAP3 POP SWAP3 POP SWAP3 POP SWAP1 SWAP2 SWAP3 JUMP JUMPDEST PUSH1 0x40 MLOAD PUSH32 0x8C379A000000000000000000000000000000000000000000000000000000000 DUP2 MSTORE PUSH1 0x4 ADD PUSH2 0x4DC SWAP1 PUSH2 0x2C5C JUMP JUMPDEST PUSH1 0x40 MLOAD DUP1 SWAP2 SUB SWAP1 REVERT JUMPDEST PUSH1 0x0 GAS SWAP1 POP PUSH1 0x0 PUSH1 0x8 PUSH1 0x0 DUP7 DUP2 MSTORE PUSH1 0x20 ADD SWAP1 DUP2 MSTORE PUSH1 0x20 ADD PUSH1 0x0 KECCAK256 PUSH1 0x0 ADD PUSH1 0x0 SWAP1 SLOAD SWAP1 PUSH2 0x100 EXP SWAP1 DIV PUSH8 0xFFFFFFFFFFFFFFFF AND PUSH8 0xFFFFFFFFFFFFFFFF AND SUB PUSH2 0x561 JUMPI PUSH1 0x40 MLOAD PUSH32 0x8C379A000000000000000000000000000000000000000000000000000000000 DUP2 MSTORE PUSH1 0x4 ADD PUSH2 0x558 SWAP1 PUSH2 0x2CC8 JUMP JUMPDEST PUSH1 0x40 MLOAD DUP1 SWAP2 SUB SWAP1 REVERT JUMPDEST PUSH1 0x0 PUSH1 0x8 PUSH1 0x0 DUP7 DUP2 MSTORE PUSH1 0x20 ADD SWAP1 DUP2 MSTORE PUSH1 0x20 ADD PUSH1 0x0 KECCAK256 PUSH1 0x40 MLOAD DUP1 PUSH1 0x60 ADD PUSH1 0x40 MSTORE SWAP1 DUP2 PUSH1 0x0 DUP3 ADD PUSH1 0x0 SWAP1 SLOAD SWAP1 PUSH2 0x100 EXP SWAP1 DIV PUSH8 0xFFFFFFFFFFFFFFFF AND PUSH8 0xFFFFFFFFFFFFFFFF AND PUSH8 0xFFFFFFFFFFFFFFFF AND DUP2 MSTORE PUSH1 0x20 ADD PUSH1 0x0 DUP3 ADD PUSH1 0x8 SWAP1 SLOAD SWAP1 PUSH2 0x100 EXP SWAP1 DIV PUSH4 0xFFFFFFFF AND PUSH4 0xFFFFFFFF AND PUSH4 0xFFFFFFFF AND DUP2 MSTORE PUSH1 0x20 ADD PUSH1 0x0 DUP3 ADD PUSH1 0xC SWAP1 SLOAD SWAP1 PUSH2 0x100 EXP SWAP1 DIV PUSH4 0xFFFFFFFF AND PUSH4 0xFFFFFFFF AND PUSH4 0xFFFFFFFF AND DUP2 MSTORE POP POP SWAP1 POP PUSH1 0x0 DUP4 MLOAD SUB PUSH2 0x6D2 JUMPI DUP1 PUSH1 0x40 ADD MLOAD PUSH4 0xFFFFFFFF AND PUSH8 0xFFFFFFFFFFFFFFFF DUP2 GT ISZERO PUSH2 0x62E JUMPI PUSH2 0x62D PUSH2 0x2509 JUMP JUMPDEST JUMPDEST PUSH1 0x40 MLOAD SWAP1 DUP1 DUP3 MSTORE DUP1 PUSH1 0x20 MUL PUSH1 0x20 ADD DUP3 ADD PUSH1 0x40 MSTORE DUP1 ISZERO PUSH2 0x65C JUMPI DUP2 PUSH1 0x20 ADD PUSH1 0x20 DUP3 MUL DUP1 CALLDATASIZE DUP4 CALLDATACOPY DUP1 DUP3 ADD SWAP2 POP POP SWAP1 POP JUMPDEST POP SWAP3 POP PUSH1 0x0 JUMPDEST DUP2 PUSH1 0x40 ADD MLOAD PUSH4 0xFFFFFFFF AND DUP2 LT ISZERO PUSH2 0x6CC JUMPI DUP6 DUP2 PUSH1 0x40 MLOAD PUSH1 0x20 ADD PUSH2 0x687 SWAP3 SWAP2 SWAP1 PUSH2 0x2CE8 JUMP JUMPDEST PUSH1 0x40 MLOAD PUSH1 0x20 DUP2 DUP4 SUB SUB DUP2 MSTORE SWAP1 PUSH1 0x40 MSTORE DUP1 MLOAD SWAP1 PUSH1 0x20 ADD KECCAK256 PUSH1 0x0 SHR DUP5 DUP3 DUP2 MLOAD DUP2 LT PUSH2 0x6B3 JUMPI PUSH2 0x6B2 PUSH2 0x2D11 JUMP JUMPDEST JUMPDEST PUSH1 0x20 MUL PUSH1 0x20 ADD ADD DUP2 DUP2 MSTORE POP POP DUP1 DUP1 PUSH1 0x1 ADD SWAP2 POP POP PUSH2 0x662 JUMP JUMPDEST POP PUSH2 0x717 JUMP JUMPDEST DUP1 PUSH1 0x40 ADD MLOAD PUSH4 0xFFFFFFFF AND DUP4 MLOAD EQ PUSH2 0x716 JUMPI PUSH1 0x40 MLOAD PUSH32 0x3F3DF5B600000000000000000000000000000000000000000000000000000000 DUP2 MSTORE PUSH1 0x4 ADD PUSH1 0x40 MLOAD DUP1 SWAP2 SUB SWAP1 REVERT JUMPDEST JUMPDEST PUSH1 0x0 DUP1 PUSH4 0x1FE543E3 PUSH1 0xE0 SHL DUP8 DUP7 PUSH1 0x40 MLOAD PUSH1 0x24 ADD PUSH2 0x735 SWAP3 SWAP2 SWAP1 PUSH2 0x2DFE JUMP JUMPDEST PUSH1 0x40 MLOAD PUSH1 0x20 DUP2 DUP4 SUB SUB DUP2 MSTORE SWAP1 PUSH1 0x40 MSTORE SWAP1 PUSH28 0xFFFFFFFFFFFFFFFFFFFFFFFFFFFFFFFFFFFFFFFFFFFFFFFFFFFFFFFF NOT AND PUSH1 0x20 DUP3 ADD DUP1 MLOAD PUSH28 0xFFFFFFFFFFFFFFFFFFFFFFFFFFFFFFFFFFFFFFFFFFFFFFFFFFFFFFFF DUP4 DUP2 DUP4 AND OR DUP4 MSTORE POP POP POP POP SWAP1 POP PUSH1 0x1 PUSH1 0x2 PUSH1 0x0 ADD PUSH1 0x0 PUSH2 0x100 EXP DUP2 SLOAD DUP2 PUSH1 0xFF MUL NOT AND SWAP1 DUP4 ISZERO ISZERO MUL OR SWAP1 SSTORE POP PUSH1 0x0 DUP7 PUSH20 0xFFFFFFFFFFFFFFFFFFFFFFFFFFFFFFFFFFFFFFFF AND DUP5 PUSH1 0x20 ADD MLOAD PUSH4 0xFFFFFFFF AND DUP4 PUSH1 0x40 MLOAD PUSH2 0x7E4 SWAP2 SWAP1 PUSH2 0x2E9F JUMP JUMPDEST PUSH1 0x0 PUSH1 0x40 MLOAD DUP1 DUP4 SUB DUP2 PUSH1 0x0 DUP8 DUP8 CALL SWAP3 POP POP POP RETURNDATASIZE DUP1 PUSH1 0x0 DUP2 EQ PUSH2 0x822 JUMPI PUSH1 0x40 MLOAD SWAP2 POP PUSH1 0x1F NOT PUSH1 0x3F RETURNDATASIZE ADD AND DUP3 ADD PUSH1 0x40 MSTORE RETURNDATASIZE DUP3 MSTORE RETURNDATASIZE PUSH1 0x0 PUSH1 0x20 DUP5 ADD RETURNDATACOPY PUSH2 0x827 JUMP JUMPDEST PUSH1 0x60 SWAP2 POP JUMPDEST POP POP SWAP1 POP PUSH1 0x0 PUSH1 0x2 PUSH1 0x0 ADD PUSH1 0x0 PUSH2 0x100 EXP DUP2 SLOAD DUP2 PUSH1 0xFF MUL NOT AND SWAP1 DUP4 ISZERO ISZERO MUL OR SWAP1 SSTORE POP PUSH1 0x0 PUSH32 0x0 PUSH12 0xFFFFFFFFFFFFFFFFFFFFFFFF AND GAS DUP8 PUSH2 0x886 SWAP2 SWAP1 PUSH2 0x2EE5 JUMP JUMPDEST PUSH2 0x890 SWAP2 SWAP1 PUSH2 0x2F19 JUMP JUMPDEST PUSH32 0x0 PUSH12 0xFFFFFFFFFFFFFFFFFFFFFFFF AND PUSH2 0x8C9 SWAP2 SWAP1 PUSH2 0x2F5B JUMP JUMPDEST SWAP1 POP DUP1 PUSH12 0xFFFFFFFFFFFFFFFFFFFFFFFF AND PUSH1 0x6 PUSH1 0x0 DUP8 PUSH1 0x0 ADD MLOAD PUSH8 0xFFFFFFFFFFFFFFFF AND PUSH8 0xFFFFFFFFFFFFFFFF AND DUP2 MSTORE PUSH1 0x20 ADD SWAP1 DUP2 MSTORE PUSH1 0x20 ADD PUSH1 0x0 KECCAK256 PUSH1 0x0 ADD PUSH1 0x14 SWAP1 SLOAD SWAP1 PUSH2 0x100 EXP SWAP1 DIV PUSH12 0xFFFFFFFFFFFFFFFFFFFFFFFF AND PUSH12 0xFFFFFFFFFFFFFFFFFFFFFFFF AND LT ISZERO PUSH2 0x967 JUMPI PUSH1 0x40 MLOAD PUSH32 0xF4D678B800000000000000000000000000000000000000000000000000000000 DUP2 MSTORE PUSH1 0x4 ADD PUSH1 0x40 MLOAD DUP1 SWAP2 SUB SWAP1 REVERT JUMPDEST DUP1 PUSH1 0x6 PUSH1 0x0 DUP8 PUSH1 0x0 ADD MLOAD PUSH8 0xFFFFFFFFFFFFFFFF AND PUSH8 0xFFFFFFFFFFFFFFFF AND DUP2 MSTORE PUSH1 0x20 ADD SWAP1 DUP2 MSTORE PUSH1 0x20 ADD PUSH1 0x0 KECCAK256 PUSH1 0x0 ADD PUSH1 0x14 DUP3 DUP3 DUP3 SWAP1 SLOAD SWAP1 PUSH2 0x100 EXP SWAP1 DIV PUSH12 0xFFFFFFFFFFFFFFFFFFFFFFFF AND PUSH2 0x9BC SWAP2 SWAP1 PUSH2 0x2F8F JUMP JUMPDEST SWAP3 POP PUSH2 0x100 EXP DUP2 SLOAD DUP2 PUSH12 0xFFFFFFFFFFFFFFFFFFFFFFFF MUL NOT AND SWAP1 DUP4 PUSH12 0xFFFFFFFFFFFFFFFFFFFFFFFF AND MUL OR SWAP1 SSTORE POP PUSH1 0x8 PUSH1 0x0 DUP11 DUP2 MSTORE PUSH1 0x20 ADD SWAP1 DUP2 MSTORE PUSH1 0x20 ADD PUSH1 0x0 KECCAK256 PUSH1 0x0 DUP1 DUP3 ADD PUSH1 0x0 PUSH2 0x100 EXP DUP2 SLOAD SWAP1 PUSH8 0xFFFFFFFFFFFFFFFF MUL NOT AND SWAP1 SSTORE PUSH1 0x0 DUP3 ADD PUSH1 0x8 PUSH2 0x100 EXP DUP2 SLOAD SWAP1 PUSH4 0xFFFFFFFF MUL NOT AND SWAP1 SSTORE PUSH1 0x0 DUP3 ADD PUSH1 0xC PUSH2 0x100 EXP DUP2 SLOAD SWAP1 PUSH4 0xFFFFFFFF MUL NOT AND SWAP1 SSTORE POP POP DUP9 PUSH32 0x7DFFC5AE5EE4E2E4DF1651CF6AD329A73CEBDB728F37EA0187B9B17E036756E4 DUP11 DUP4 DUP6 PUSH1 0x40 MLOAD PUSH2 0xA7D SWAP4 SWAP3 SWAP2 SWAP1 PUSH2 0x2FCF JUMP JUMPDEST PUSH1 0x40 MLOAD DUP1 SWAP2 SUB SWAP1 LOG2 POP POP POP POP POP POP POP POP POP JUMP JUMPDEST PUSH1 0x0 PUSH7 0xE35FA931A0000 SWAP1 POP SWAP1 JUMP JUMPDEST PUSH32 0x0 DUP2 JUMP JUMPDEST PUSH1 0x0 PUSH1 0x2 PUSH1 0x0 ADD PUSH1 0x0 SWAP1 SLOAD SWAP1 PUSH2 0x100 EXP SWAP1 DIV PUSH1 0xFF AND ISZERO PUSH2 0xB0F JUMPI PUSH1 0x40 MLOAD PUSH32 0xED3BA6A600000000000000000000000000000000000000000000000000000000 DUP2 MSTORE PUSH1 0x4 ADD PUSH1 0x40 MLOAD DUP1 SWAP2 SUB SWAP1 REVERT JUMPDEST DUP5 CALLER PUSH2 0xB1B DUP3 DUP3 PUSH2 0x1F8A JUMP JUMPDEST PUSH2 0xB51 JUMPI PUSH1 0x40 MLOAD PUSH32 0x71E8313700000000000000000000000000000000000000000000000000000000 DUP2 MSTORE PUSH1 0x4 ADD PUSH1 0x40 MLOAD DUP1 SWAP2 SUB SWAP1 REVERT JUMPDEST PUSH1 0x0 PUSH20 0xFFFFFFFFFFFFFFFFFFFFFFFFFFFFFFFFFFFFFFFF AND PUSH1 0x6 PUSH1 0x0 DUP10 PUSH8 0xFFFFFFFFFFFFFFFF AND PUSH8 0xFFFFFFFFFFFFFFFF AND DUP2 MSTORE PUSH1 0x20 ADD SWAP1 DUP2 MSTORE PUSH1 0x20 ADD PUSH1 0x0 KECCAK256 PUSH1 0x0 ADD PUSH1 0x0 SWAP1 SLOAD SWAP1 PUSH2 0x100 EXP SWAP1 DIV PUSH20 0xFFFFFFFFFFFFFFFFFFFFFFFFFFFFFFFFFFFFFFFF AND PUSH20 0xFFFFFFFFFFFFFFFFFFFFFFFFFFFFFFFFFFFFFFFF AND SUB PUSH2 0xC01 JUMPI PUSH1 0x40 MLOAD PUSH32 0x1F6A65B600000000000000000000000000000000000000000000000000000000 DUP2 MSTORE PUSH1 0x4 ADD PUSH1 0x40 MLOAD DUP1 SWAP2 SUB SWAP1 REVERT JUMPDEST PUSH1 0x0 PUSH1 0x4 PUSH1 0x0 DUP2 SLOAD DUP1 SWAP3 SWAP2 SWAP1 PUSH2 0xC16 SWAP1 PUSH2 0x3006 JUMP JUMPDEST SWAP2 SWAP1 POP SSTORE SWAP1 POP PUSH1 0x0 PUSH1 0x5 PUSH1 0x0 DUP2 SLOAD DUP1 SWAP3 SWAP2 SWAP1 PUSH2 0xC31 SWAP1 PUSH2 0x3006 JUMP JUMPDEST SWAP2 SWAP1 POP SSTORE SWAP1 POP PUSH1 0x40 MLOAD DUP1 PUSH1 0x60 ADD PUSH1 0x40 MSTORE DUP1 DUP11 PUSH8 0xFFFFFFFFFFFFFFFF AND DUP2 MSTORE PUSH1 0x20 ADD DUP9 PUSH4 0xFFFFFFFF AND DUP2 MSTORE PUSH1 0x20 ADD DUP8 PUSH4 0xFFFFFFFF AND DUP2 MSTORE POP PUSH1 0x8 PUSH1 0x0 DUP5 DUP2 MSTORE PUSH1 0x20 ADD SWAP1 DUP2 MSTORE PUSH1 0x20 ADD PUSH1 0x0 KECCAK256 PUSH1 0x0 DUP3 ADD MLOAD DUP2 PUSH1 0x0 ADD PUSH1 0x0 PUSH2 0x100 EXP DUP2 SLOAD DUP2 PUSH8 0xFFFFFFFFFFFFFFFF MUL NOT AND SWAP1 DUP4 PUSH8 0xFFFFFFFFFFFFFFFF AND MUL OR SWAP1 SSTORE POP PUSH1 0x20 DUP3 ADD MLOAD DUP2 PUSH1 0x0 ADD PUSH1 0x8 PUSH2 0x100 EXP DUP2 SLOAD DUP2 PUSH4 0xFFFFFFFF MUL NOT AND SWAP1 DUP4 PUSH4 0xFFFFFFFF AND MUL OR SWAP1 SSTORE POP PUSH1 0x40 DUP3 ADD MLOAD DUP2 PUSH1 0x0 ADD PUSH1 0xC PUSH2 0x100 EXP DUP2 SLOAD DUP2 PUSH4 0xFFFFFFFF MUL NOT AND SWAP1 DUP4 PUSH4 0xFFFFFFFF AND MUL OR SWAP1 SSTORE POP SWAP1 POP POP CALLER PUSH20 0xFFFFFFFFFFFFFFFFFFFFFFFFFFFFFFFFFFFFFFFF AND DUP10 PUSH8 0xFFFFFFFFFFFFFFFF AND DUP12 PUSH32 0x63373D1C4696214B898952999C9AAEC57DAC1EE2723CEC59BEA6888F489A9772 DUP6 DUP6 DUP14 DUP14 DUP14 PUSH1 0x40 MLOAD PUSH2 0xD55 SWAP6 SWAP5 SWAP4 SWAP3 SWAP2 SWAP1 PUSH2 0x304E JUMP JUMPDEST PUSH1 0x40 MLOAD DUP1 SWAP2 SUB SWAP1 LOG4 DUP2 SWAP5 POP POP POP POP POP SWAP6 SWAP5 POP POP POP POP POP JUMP JUMPDEST PUSH1 0x0 DUP1 PUSH1 0x0 DUP1 PUSH1 0x0 DUP1 PUSH1 0x0 DUP1 PUSH1 0x0 PUSH3 0x186A0 DUP1 PUSH3 0x186A0 DUP1 PUSH3 0x186A0 PUSH1 0x0 DUP1 PUSH1 0x0 DUP1 SWAP9 POP SWAP9 POP SWAP9 POP SWAP9 POP SWAP9 POP SWAP9 POP SWAP9 POP SWAP9 POP SWAP9 POP SWAP1 SWAP2 SWAP3 SWAP4 SWAP5 SWAP6 SWAP7 SWAP8 SWAP9 JUMP JUMPDEST PUSH32 0x0 DUP2 JUMP JUMPDEST DUP2 PUSH1 0x0 PUSH1 0x6 PUSH1 0x0 DUP4 PUSH8 0xFFFFFFFFFFFFFFFF AND PUSH8 0xFFFFFFFFFFFFFFFF AND DUP2 MSTORE PUSH1 0x20 ADD SWAP1 DUP2 MSTORE PUSH1 0x20 ADD PUSH1 0x0 KECCAK256 PUSH1 0x0 ADD PUSH1 0x0 SWAP1 SLOAD SWAP1 PUSH2 0x100 EXP SWAP1 DIV PUSH20 0xFFFFFFFFFFFFFFFFFFFFFFFFFFFFFFFFFFFFFFFF AND SWAP1 POP PUSH1 0x0 PUSH20 0xFFFFFFFFFFFFFFFFFFFFFFFFFFFFFFFFFFFFFFFF AND DUP2 PUSH20 0xFFFFFFFFFFFFFFFFFFFFFFFFFFFFFFFFFFFFFFFF AND SUB PUSH2 0xE86 JUMPI PUSH1 0x40 MLOAD PUSH32 0x1F6A65B600000000000000000000000000000000000000000000000000000000 DUP2 MSTORE PUSH1 0x4 ADD PUSH1 0x40 MLOAD DUP1 SWAP2 SUB SWAP1 REVERT JUMPDEST DUP1 PUSH20 0xFFFFFFFFFFFFFFFFFFFFFFFFFFFFFFFFFFFFFFFF AND CALLER PUSH20 0xFFFFFFFFFFFFFFFFFFFFFFFFFFFFFFFFFFFFFFFF AND EQ PUSH2 0xEF6 JUMPI DUP1 PUSH1 0x40 MLOAD PUSH32 0xD8A3FB5200000000000000000000000000000000000000000000000000000000 DUP2 MSTORE PUSH1 0x4 ADD PUSH2 0xEED SWAP2 SWAP1 PUSH2 0x299C JUMP JUMPDEST PUSH1 0x40 MLOAD DUP1 SWAP2 SUB SWAP1 REVERT JUMPDEST PUSH32 0x0 PUSH2 0xFFFF AND PUSH1 0x7 PUSH1 0x0 DUP7 PUSH8 0xFFFFFFFFFFFFFFFF AND PUSH8 0xFFFFFFFFFFFFFFFF AND DUP2 MSTORE PUSH1 0x20 ADD SWAP1 DUP2 MSTORE PUSH1 0x20 ADD PUSH1 0x0 KECCAK256 DUP1 SLOAD SWAP1 POP SUB PUSH2 0xF7D JUMPI PUSH1 0x40 MLOAD PUSH32 0x5A48E0F00000000000000000000000000000000000000000000000000000000 DUP2 MSTORE PUSH1 0x4 ADD PUSH1 0x40 MLOAD DUP1 SWAP2 SUB SWAP1 REVERT JUMPDEST PUSH2 0xF87 DUP5 DUP5 PUSH2 0x1F8A JUMP JUMPDEST PUSH2 0x1056 JUMPI PUSH1 0x7 PUSH1 0x0 DUP6 PUSH8 0xFFFFFFFFFFFFFFFF AND PUSH8 0xFFFFFFFFFFFFFFFF AND DUP2 MSTORE PUSH1 0x20 ADD SWAP1 DUP2 MSTORE PUSH1 0x20 ADD PUSH1 0x0 KECCAK256 DUP4 SWAP1 DUP1 PUSH1 0x1 DUP2 SLOAD ADD DUP1 DUP3 SSTORE DUP1 SWAP2 POP POP PUSH1 0x1 SWAP1 SUB SWAP1 PUSH1 0x0 MSTORE PUSH1 0x20 PUSH1 0x0 KECCAK256 ADD PUSH1 0x0 SWAP1 SWAP2 SWAP1 SWAP2 SWAP1 SWAP2 PUSH2 0x100 EXP DUP2 SLOAD DUP2 PUSH20 0xFFFFFFFFFFFFFFFFFFFFFFFFFFFFFFFFFFFFFFFF MUL NOT AND SWAP1 DUP4 PUSH20 0xFFFFFFFFFFFFFFFFFFFFFFFFFFFFFFFFFFFFFFFF AND MUL OR SWAP1 SSTORE POP DUP4 PUSH8 0xFFFFFFFFFFFFFFFF AND PUSH32 0x752EAD9F4536EC1319EE3A5A604E1D65EDED22E0924251552BA14AE4FAA1BBC3 DUP5 PUSH1 0x40 MLOAD PUSH2 0x104D SWAP2 SWAP1 PUSH2 0x299C JUMP JUMPDEST PUSH1 0x40 MLOAD DUP1 SWAP2 SUB SWAP1 LOG2 JUMPDEST POP POP POP POP JUMP JUMPDEST PUSH1 0x1 PUSH1 0x0 SWAP1 SLOAD SWAP1 PUSH2 0x100 EXP SWAP1 DIV PUSH20 0xFFFFFFFFFFFFFFFFFFFFFFFFFFFFFFFFFFFFFFFF AND PUSH20 0xFFFFFFFFFFFFFFFFFFFFFFFFFFFFFFFFFFFFFFFF AND CALLER PUSH20 0xFFFFFFFFFFFFFFFFFFFFFFFFFFFFFFFFFFFFFFFF AND EQ PUSH2 0x10EC JUMPI PUSH1 0x40 MLOAD PUSH32 0x8C379A000000000000000000000000000000000000000000000000000000000 DUP2 MSTORE PUSH1 0x4 ADD PUSH2 0x10E3 SWAP1 PUSH2 0x30ED JUMP JUMPDEST PUSH1 0x40 MLOAD DUP1 SWAP2 SUB SWAP1 REVERT JUMPDEST PUSH1 0x0 DUP1 PUSH1 0x0 SWAP1 SLOAD SWAP1 PUSH2 0x100 EXP SWAP1 DIV PUSH20 0xFFFFFFFFFFFFFFFFFFFFFFFFFFFFFFFFFFFFFFFF AND SWAP1 POP CALLER PUSH1 0x0 DUP1 PUSH2 0x100 EXP DUP2 SLOAD DUP2 PUSH20 0xFFFFFFFFFFFFFFFFFFFFFFFFFFFFFFFFFFFFFFFF MUL NOT AND SWAP1 DUP4 PUSH20 0xFFFFFFFFFFFFFFFFFFFFFFFFFFFFFFFFFFFFFFFF AND MUL OR SWAP1 SSTORE POP PUSH1 0x0 PUSH1 0x1 PUSH1 0x0 PUSH2 0x100 EXP DUP2 SLOAD DUP2 PUSH20 0xFFFFFFFFFFFFFFFFFFFFFFFFFFFFFFFFFFFFFFFF MUL NOT AND SWAP1 DUP4 PUSH20 0xFFFFFFFFFFFFFFFFFFFFFFFFFFFFFFFFFFFFFFFF AND MUL OR SWAP1 SSTORE POP CALLER PUSH20 0xFFFFFFFFFFFFFFFFFFFFFFFFFFFFFFFFFFFFFFFF AND DUP2 PUSH20 0xFFFFFFFFFFFFFFFFFFFFFFFFFFFFFFFFFFFFFFFF AND PUSH32 0x8BE0079C531659141344CD1FD0A4F28419497F9722A3DAAFE3B4186F6B6457E0 PUSH1 0x40 MLOAD PUSH1 0x40 MLOAD DUP1 SWAP2 SUB SWAP1 LOG3 POP JUMP JUMPDEST PUSH1 0x2 PUSH1 0x0 ADD PUSH1 0x0 SWAP1 SLOAD SWAP1 PUSH2 0x100 EXP SWAP1 DIV PUSH1 0xFF AND ISZERO PUSH2 0x123B JUMPI PUSH1 0x40 MLOAD PUSH32 0xED3BA6A600000000000000000000000000000000000000000000000000000000 DUP2 MSTORE PUSH1 0x4 ADD PUSH1 0x40 MLOAD DUP1 SWAP2 SUB SWAP1 REVERT JUMPDEST PUSH2 0x128F DUP3 DUP3 PUSH1 0x0 PUSH8 0xFFFFFFFFFFFFFFFF DUP2 GT ISZERO PUSH2 0x125B JUMPI PUSH2 0x125A PUSH2 0x2509 JUMP JUMPDEST JUMPDEST PUSH1 0x40 MLOAD SWAP1 DUP1 DUP3 MSTORE DUP1 PUSH1 0x20 MUL PUSH1 0x20 ADD DUP3 ADD PUSH1 0x40 MSTORE DUP1 ISZERO PUSH2 0x1289 JUMPI DUP2 PUSH1 0x20 ADD PUSH1 0x20 DUP3 MUL DUP1 CALLDATASIZE DUP4 CALLDATACOPY DUP1 DUP3 ADD SWAP2 POP POP SWAP1 POP JUMPDEST POP PUSH2 0x4E5 JUMP JUMPDEST POP POP JUMP JUMPDEST PUSH1 0x40 MLOAD PUSH32 0x8C379A000000000000000000000000000000000000000000000000000000000 DUP2 MSTORE PUSH1 0x4 ADD PUSH2 0x12C5 SWAP1 PUSH2 0x2C5C JUMP JUMPDEST PUSH1 0x40 MLOAD DUP1 SWAP2 SUB SWAP1 REVERT JUMPDEST PUSH2 0x12D6 PUSH2 0x20CD JUMP JUMPDEST PUSH1 0x40 MLOAD DUP1 PUSH1 0x20 ADD PUSH1 0x40 MSTORE DUP1 PUSH1 0x0 ISZERO ISZERO DUP2 MSTORE POP PUSH1 0x2 PUSH1 0x0 DUP3 ADD MLOAD DUP2 PUSH1 0x0 ADD PUSH1 0x0 PUSH2 0x100 EXP DUP2 SLOAD DUP2 PUSH1 0xFF MUL NOT AND SWAP1 DUP4 ISZERO ISZERO MUL OR SWAP1 SSTORE POP SWAP1 POP POP PUSH32 0x4B2974A542484CBA2783812FF8033F7FC682CAC2FE0905C28C5E27869B3155BE PUSH1 0x40 MLOAD PUSH1 0x40 MLOAD DUP1 SWAP2 SUB SWAP1 LOG1 JUMP JUMPDEST PUSH1 0x0 DUP1 PUSH1 0x0 SWAP1 SLOAD SWAP1 PUSH2 0x100 EXP SWAP1 DIV PUSH20 0xFFFFFFFFFFFFFFFFFFFFFFFFFFFFFFFFFFFFFFFF AND SWAP1 POP SWAP1 JUMP JUMPDEST DUP2 PUSH1 0x0 PUSH1 0x6 PUSH1 0x0 DUP4 PUSH8 0xFFFFFFFFFFFFFFFF AND PUSH8 0xFFFFFFFFFFFFFFFF AND DUP2 MSTORE PUSH1 0x20 ADD SWAP1 DUP2 MSTORE PUSH1 0x20 ADD PUSH1 0x0 KECCAK256 PUSH1 0x0 ADD PUSH1 0x0 SWAP1 SLOAD SWAP1 PUSH2 0x100 EXP SWAP1 DIV PUSH20 0xFFFFFFFFFFFFFFFFFFFFFFFFFFFFFFFFFFFFFFFF AND SWAP1 POP PUSH1 0x0 PUSH20 0xFFFFFFFFFFFFFFFFFFFFFFFFFFFFFFFFFFFFFFFF AND DUP2 PUSH20 0xFFFFFFFFFFFFFFFFFFFFFFFFFFFFFFFFFFFFFFFF AND SUB PUSH2 0x141A JUMPI PUSH1 0x40 MLOAD PUSH32 0x1F6A65B600000000000000000000000000000000000000000000000000000000 DUP2 MSTORE PUSH1 0x4 ADD PUSH1 0x40 MLOAD DUP1 SWAP2 SUB SWAP1 REVERT JUMPDEST DUP1 PUSH20 0xFFFFFFFFFFFFFFFFFFFFFFFFFFFFFFFFFFFFFFFF AND CALLER PUSH20 0xFFFFFFFFFFFFFFFFFFFFFFFFFFFFFFFFFFFFFFFF AND EQ PUSH2 0x148A JUMPI DUP1 PUSH1 0x40 MLOAD PUSH32 0xD8A3FB5200000000000000000000000000000000000000000000000000000000 DUP2 MSTORE PUSH1 0x4 ADD PUSH2 0x1481 SWAP2 SWAP1 PUSH2 0x299C JUMP JUMPDEST PUSH1 0x40 MLOAD DUP1 SWAP2 SUB SWAP1 REVERT JUMPDEST DUP4 DUP4 PUSH2 0x1496 DUP3 DUP3 PUSH2 0x1F8A JUMP JUMPDEST PUSH2 0x14CC JUMPI PUSH1 0x40 MLOAD PUSH32 0x71E8313700000000000000000000000000000000000000000000000000000000 DUP2 MSTORE PUSH1 0x4 ADD PUSH1 0x40 MLOAD DUP1 SWAP2 SUB SWAP1 REVERT JUMPDEST PUSH1 0x2 PUSH1 0x0 ADD PUSH1 0x0 SWAP1 SLOAD SWAP1 PUSH2 0x100 EXP SWAP1 DIV PUSH1 0xFF AND ISZERO PUSH2 0x1516 JUMPI PUSH1 0x40 MLOAD PUSH32 0xED3BA6A600000000000000000000000000000000000000000000000000000000 DUP2 MSTORE PUSH1 0x4 ADD PUSH1 0x40 MLOAD DUP1 SWAP2 SUB SWAP1 REVERT JUMPDEST PUSH1 0x0 PUSH1 0x7 PUSH1 0x0 DUP9 PUSH8 0xFFFFFFFFFFFFFFFF AND PUSH8 0xFFFFFFFFFFFFFFFF AND DUP2 MSTORE PUSH1 0x20 ADD SWAP1 DUP2 MSTORE PUSH1 0x20 ADD PUSH1 0x0 KECCAK256 SWAP1 POP PUSH1 0x0 JUMPDEST DUP2 DUP1 SLOAD SWAP1 POP DUP2 LT ISZERO PUSH2 0x16C7 JUMPI DUP7 PUSH20 0xFFFFFFFFFFFFFFFFFFFFFFFFFFFFFFFFFFFFFFFF AND DUP3 DUP3 DUP2 SLOAD DUP2 LT PUSH2 0x157A JUMPI PUSH2 0x1579 PUSH2 0x2D11 JUMP JUMPDEST JUMPDEST SWAP1 PUSH1 0x0 MSTORE PUSH1 0x20 PUSH1 0x0 KECCAK256 ADD PUSH1 0x0 SWAP1 SLOAD SWAP1 PUSH2 0x100 EXP SWAP1 DIV PUSH20 0xFFFFFFFFFFFFFFFFFFFFFFFFFFFFFFFFFFFFFFFF AND PUSH20 0xFFFFFFFFFFFFFFFFFFFFFFFFFFFFFFFFFFFFFFFF AND SUB PUSH2 0x16BA JUMPI PUSH1 0x0 DUP3 PUSH1 0x1 DUP5 DUP1 SLOAD SWAP1 POP PUSH2 0x15D4 SWAP2 SWAP1 PUSH2 0x2EE5 JUMP JUMPDEST DUP2 SLOAD DUP2 LT PUSH2 0x15E5 JUMPI PUSH2 0x15E4 PUSH2 0x2D11 JUMP JUMPDEST JUMPDEST SWAP1 PUSH1 0x0 MSTORE PUSH1 0x20 PUSH1 0x0 KECCAK256 ADD PUSH1 0x0 SWAP1 SLOAD SWAP1 PUSH2 0x100 EXP SWAP1 DIV PUSH20 0xFFFFFFFFFFFFFFFFFFFFFFFFFFFFFFFFFFFFFFFF AND SWAP1 POP DUP1 DUP4 DUP4 DUP2 SLOAD DUP2 LT PUSH2 0x1626 JUMPI PUSH2 0x1625 PUSH2 0x2D11 JUMP JUMPDEST JUMPDEST SWAP1 PUSH1 0x0 MSTORE PUSH1 0x20 PUSH1 0x0 KECCAK256 ADD PUSH1 0x0 PUSH2 0x100 EXP DUP2 SLOAD DUP2 PUSH20 0xFFFFFFFFFFFFFFFFFFFFFFFFFFFFFFFFFFFFFFFF MUL NOT AND SWAP1 DUP4 PUSH20 0xFFFFFFFFFFFFFFFFFFFFFFFFFFFFFFFFFFFFFFFF AND MUL OR SWAP1 SSTORE POP DUP3 DUP1 SLOAD DUP1 PUSH2 0x167F JUMPI PUSH2 0x167E PUSH2 0x310D JUMP JUMPDEST JUMPDEST PUSH1 0x1 SWAP1 SUB DUP2 DUP2 SWAP1 PUSH1 0x0 MSTORE PUSH1 0x20 PUSH1 0x0 KECCAK256 ADD PUSH1 0x0 PUSH2 0x100 EXP DUP2 SLOAD SWAP1 PUSH20 0xFFFFFFFFFFFFFFFFFFFFFFFFFFFFFFFFFFFFFFFF MUL NOT AND SWAP1 SSTORE SWAP1 SSTORE POP PUSH2 0x16C7 JUMP JUMPDEST DUP1 DUP1 PUSH1 0x1 ADD SWAP2 POP POP PUSH2 0x1544 JUMP JUMPDEST POP DUP7 PUSH8 0xFFFFFFFFFFFFFFFF AND PUSH32 0xF9BC9D5B5733D904409DEF43A5ECC888DBDAC9A95687780D8FD489D3BB3813FC DUP8 PUSH1 0x40 MLOAD PUSH2 0x1702 SWAP2 SWAP1 PUSH2 0x299C JUMP JUMPDEST PUSH1 0x40 MLOAD DUP1 SWAP2 SUB SWAP1 LOG2 POP POP POP POP POP POP POP JUMP JUMPDEST PUSH1 0x0 PUSH1 0x3 PUSH1 0x0 DUP2 DUP2 SWAP1 SLOAD SWAP1 PUSH2 0x100 EXP SWAP1 DIV PUSH8 0xFFFFFFFFFFFFFFFF AND DUP1 SWAP3 SWAP2 SWAP1 PUSH2 0x173B SWAP1 PUSH2 0x313C JUMP JUMPDEST SWAP2 SWAP1 PUSH2 0x100 EXP DUP2 SLOAD DUP2 PUSH8 0xFFFFFFFFFFFFFFFF MUL NOT AND SWAP1 DUP4 PUSH8 0xFFFFFFFFFFFFFFFF AND MUL OR SWAP1 SSTORE POP POP PUSH1 0x40 MLOAD DUP1 PUSH1 0x40 ADD PUSH1 0x40 MSTORE DUP1 CALLER PUSH20 0xFFFFFFFFFFFFFFFFFFFFFFFFFFFFFFFFFFFFFFFF AND DUP2 MSTORE PUSH1 0x20 ADD PUSH1 0x0 PUSH12 0xFFFFFFFFFFFFFFFFFFFFFFFF AND DUP2 MSTORE POP PUSH1 0x6 PUSH1 0x0 PUSH1 0x3 PUSH1 0x0 SWAP1 SLOAD SWAP1 PUSH2 0x100 EXP SWAP1 DIV PUSH8 0xFFFFFFFFFFFFFFFF AND PUSH8 0xFFFFFFFFFFFFFFFF AND PUSH8 0xFFFFFFFFFFFFFFFF AND DUP2 MSTORE PUSH1 0x20 ADD SWAP1 DUP2 MSTORE PUSH1 0x20 ADD PUSH1 0x0 KECCAK256 PUSH1 0x0 DUP3 ADD MLOAD DUP2 PUSH1 0x0 ADD PUSH1 0x0 PUSH2 0x100 EXP DUP2 SLOAD DUP2 PUSH20 0xFFFFFFFFFFFFFFFFFFFFFFFFFFFFFFFFFFFFFFFF MUL NOT AND SWAP1 DUP4 PUSH20 0xFFFFFFFFFFFFFFFFFFFFFFFFFFFFFFFFFFFFFFFF AND MUL OR SWAP1 SSTORE POP PUSH1 0x20 DUP3 ADD MLOAD DUP2 PUSH1 0x0 ADD PUSH1 0x14 PUSH2 0x100 EXP DUP2 SLOAD DUP2 PUSH12 0xFFFFFFFFFFFFFFFFFFFFFFFF MUL NOT AND SWAP1 DUP4 PUSH12 0xFFFFFFFFFFFFFFFFFFFFFFFF AND MUL OR SWAP1 SSTORE POP SWAP1 POP POP PUSH1 0x3 PUSH1 0x0 SWAP1 SLOAD SWAP1 PUSH2 0x100 EXP SWAP1 DIV PUSH8 0xFFFFFFFFFFFFFFFF AND PUSH8 0xFFFFFFFFFFFFFFFF AND PUSH32 0x464722B4166576D3DCBBA877B999BC35CF911F4EAF434B7EBA68FA113951D0BF CALLER PUSH1 0x40 MLOAD PUSH2 0x18AA SWAP2 SWAP1 PUSH2 0x299C JUMP JUMPDEST PUSH1 0x40 MLOAD DUP1 SWAP2 SUB SWAP1 LOG2 PUSH1 0x3 PUSH1 0x0 SWAP1 SLOAD SWAP1 PUSH2 0x100 EXP SWAP1 DIV PUSH8 0xFFFFFFFFFFFFFFFF AND SWAP1 POP SWAP1 JUMP JUMPDEST PUSH32 0x0 DUP2 JUMP JUMPDEST PUSH1 0x0 DUP1 PUSH1 0x0 PUSH1 0x60 PUSH1 0x0 PUSH20 0xFFFFFFFFFFFFFFFFFFFFFFFFFFFFFFFFFFFFFFFF AND PUSH1 0x6 PUSH1 0x0 DUP8 PUSH8 0xFFFFFFFFFFFFFFFF AND PUSH8 0xFFFFFFFFFFFFFFFF AND DUP2 MSTORE PUSH1 0x20 ADD SWAP1 DUP2 MSTORE PUSH1 0x20 ADD PUSH1 0x0 KECCAK256 PUSH1 0x0 ADD PUSH1 0x0 SWAP1 SLOAD SWAP1 PUSH2 0x100 EXP SWAP1 DIV PUSH20 0xFFFFFFFFFFFFFFFFFFFFFFFFFFFFFFFFFFFFFFFF AND PUSH20 0xFFFFFFFFFFFFFFFFFFFFFFFFFFFFFFFFFFFFFFFF AND SUB PUSH2 0x19A9 JUMPI PUSH1 0x40 MLOAD PUSH32 0x1F6A65B600000000000000000000000000000000000000000000000000000000 DUP2 MSTORE PUSH1 0x4 ADD PUSH1 0x40 MLOAD DUP1 SWAP2 SUB SWAP1 REVERT JUMPDEST PUSH1 0x6 PUSH1 0x0 DUP7 PUSH8 0xFFFFFFFFFFFFFFFF AND PUSH8 0xFFFFFFFFFFFFFFFF AND DUP2 MSTORE PUSH1 0x20 ADD SWAP1 DUP2 MSTORE PUSH1 0x20 ADD PUSH1 0x0 KECCAK256 PUSH1 0x0 ADD PUSH1 0x14 SWAP1 SLOAD SWAP1 PUSH2 0x100 EXP SWAP1 DIV PUSH12 0xFFFFFFFFFFFFFFFFFFFFFFFF AND PUSH1 0x0 PUSH1 0x6 PUSH1 0x0 DUP9 PUSH8 0xFFFFFFFFFFFFFFFF AND PUSH8 0xFFFFFFFFFFFFFFFF AND DUP2 MSTORE PUSH1 0x20 ADD SWAP1 DUP2 MSTORE PUSH1 0x20 ADD PUSH1 0x0 KECCAK256 PUSH1 0x0 ADD PUSH1 0x0 SWAP1 SLOAD SWAP1 PUSH2 0x100 EXP SWAP1 DIV PUSH20 0xFFFFFFFFFFFFFFFFFFFFFFFFFFFFFFFFFFFFFFFF AND PUSH1 0x7 PUSH1 0x0 DUP10 PUSH8 0xFFFFFFFFFFFFFFFF AND PUSH8 0xFFFFFFFFFFFFFFFF AND DUP2 MSTORE PUSH1 0x20 ADD SWAP1 DUP2 MSTORE PUSH1 0x20 ADD PUSH1 0x0 KECCAK256 DUP1 DUP1 SLOAD DUP1 PUSH1 0x20 MUL PUSH1 0x20 ADD PUSH1 0x40 MLOAD SWAP1 DUP2 ADD PUSH1 0x40 MSTORE DUP1 SWAP3 SWAP2 SWAP1 DUP2 DUP2 MSTORE PUSH1 0x20 ADD DUP3 DUP1 SLOAD DUP1 ISZERO PUSH2 0x1AE1 JUMPI PUSH1 0x20 MUL DUP3 ADD SWAP2 SWAP1 PUSH1 0x0 MSTORE PUSH1 0x20 PUSH1 0x0 KECCAK256 SWAP1 JUMPDEST DUP2 PUSH1 0x0 SWAP1 SLOAD SWAP1 PUSH2 0x100 EXP SWAP1 DIV PUSH20 0xFFFFFFFFFFFFFFFFFFFFFFFFFFFFFFFFFFFFFFFF AND PUSH20 0xFFFFFFFFFFFFFFFFFFFFFFFFFFFFFFFFFFFFFFFF AND DUP2 MSTORE PUSH1 0x20 ADD SWAP1 PUSH1 0x1 ADD SWAP1 DUP1 DUP4 GT PUSH2 0x1A97 JUMPI JUMPDEST POP POP POP POP POP SWAP1 POP SWAP4 POP SWAP4 POP SWAP4 POP SWAP4 POP SWAP2 SWAP4 POP SWAP2 SWAP4 JUMP JUMPDEST PUSH1 0x0 PUSH20 0xFFFFFFFFFFFFFFFFFFFFFFFFFFFFFFFFFFFFFFFF AND PUSH1 0x6 PUSH1 0x0 DUP5 PUSH8 0xFFFFFFFFFFFFFFFF AND PUSH8 0xFFFFFFFFFFFFFFFF AND DUP2 MSTORE PUSH1 0x20 ADD SWAP1 DUP2 MSTORE PUSH1 0x20 ADD PUSH1 0x0 KECCAK256 PUSH1 0x0 ADD PUSH1 0x0 SWAP1 SLOAD SWAP1 PUSH2 0x100 EXP SWAP1 DIV PUSH20 0xFFFFFFFFFFFFFFFFFFFFFFFFFFFFFFFFFFFFFFFF AND PUSH20 0xFFFFFFFFFFFFFFFFFFFFFFFFFFFFFFFFFFFFFFFF AND SUB PUSH2 0x1BA7 JUMPI PUSH1 0x40 MLOAD PUSH32 0x1F6A65B600000000000000000000000000000000000000000000000000000000 DUP2 MSTORE PUSH1 0x4 ADD PUSH1 0x40 MLOAD DUP1 SWAP2 SUB SWAP1 REVERT JUMPDEST PUSH1 0x0 PUSH1 0x6 PUSH1 0x0 DUP5 PUSH8 0xFFFFFFFFFFFFFFFF AND PUSH8 0xFFFFFFFFFFFFFFFF AND DUP2 MSTORE PUSH1 0x20 ADD SWAP1 DUP2 MSTORE PUSH1 0x20 ADD PUSH1 0x0 KECCAK256 PUSH1 0x0 ADD PUSH1 0x14 SWAP1 SLOAD SWAP1 PUSH2 0x100 EXP SWAP1 DIV PUSH12 0xFFFFFFFFFFFFFFFFFFFFFFFF AND SWAP1 POP DUP2 PUSH1 0x6 PUSH1 0x0 DUP6 PUSH8 0xFFFFFFFFFFFFFFFF AND PUSH8 0xFFFFFFFFFFFFFFFF AND DUP2 MSTORE PUSH1 0x20 ADD SWAP1 DUP2 MSTORE PUSH1 0x20 ADD PUSH1 0x0 KECCAK256 PUSH1 0x0 ADD PUSH1 0x14 DUP3 DUP3 DUP3 SWAP1 SLOAD SWAP1 PUSH2 0x100 EXP SWAP1 DIV PUSH12 0xFFFFFFFFFFFFFFFFFFFFFFFF AND PUSH2 0x1C3F SWAP2 SWAP1 PUSH2 0x316C JUMP JUMPDEST SWAP3 POP PUSH2 0x100 EXP DUP2 SLOAD DUP2 PUSH12 0xFFFFFFFFFFFFFFFFFFFFFFFF MUL NOT AND SWAP1 DUP4 PUSH12 0xFFFFFFFFFFFFFFFFFFFFFFFF AND MUL OR SWAP1 SSTORE POP DUP3 PUSH8 0xFFFFFFFFFFFFFFFF AND PUSH32 0xD39EC07F4E209F627A4C427971473820DC129761BA28DE8906BD56F57101D4F8 DUP3 DUP5 DUP5 PUSH2 0x1CA6 SWAP2 SWAP1 PUSH2 0x316C JUMP JUMPDEST PUSH1 0x40 MLOAD PUSH2 0x1CB4 SWAP3 SWAP2 SWAP1 PUSH2 0x31E7 JUMP JUMPDEST PUSH1 0x40 MLOAD DUP1 SWAP2 SUB SWAP1 LOG2 POP POP POP JUMP JUMPDEST PUSH1 0x0 DUP1 PUSH1 0x0 DUP1 PUSH1 0x4 PUSH3 0x2625A0 PUSH2 0xA8C PUSH2 0x8205 SWAP4 POP SWAP4 POP SWAP4 POP SWAP4 POP SWAP1 SWAP2 SWAP3 SWAP4 JUMP JUMPDEST DUP2 PUSH1 0x0 PUSH1 0x6 PUSH1 0x0 DUP4 PUSH8 0xFFFFFFFFFFFFFFFF AND PUSH8 0xFFFFFFFFFFFFFFFF AND DUP2 MSTORE PUSH1 0x20 ADD SWAP1 DUP2 MSTORE PUSH1 0x20 ADD PUSH1 0x0 KECCAK256 PUSH1 0x0 ADD PUSH1 0x0 SWAP1 SLOAD SWAP1 PUSH2 0x100 EXP SWAP1 DIV PUSH20 0xFFFFFFFFFFFFFFFFFFFFFFFFFFFFFFFFFFFFFFFF AND SWAP1 POP PUSH1 0x0 PUSH20 0xFFFFFFFFFFFFFFFFFFFFFFFFFFFFFFFFFFFFFFFF AND DUP2 PUSH20 0xFFFFFFFFFFFFFFFFFFFFFFFFFFFFFFFFFFFFFFFF AND SUB PUSH2 0x1D97 JUMPI PUSH1 0x40 MLOAD PUSH32 0x1F6A65B600000000000000000000000000000000000000000000000000000000 DUP2 MSTORE PUSH1 0x4 ADD PUSH1 0x40 MLOAD DUP1 SWAP2 SUB SWAP1 REVERT JUMPDEST DUP1 PUSH20 0xFFFFFFFFFFFFFFFFFFFFFFFFFFFFFFFFFFFFFFFF AND CALLER PUSH20 0xFFFFFFFFFFFFFFFFFFFFFFFFFFFFFFFFFFFFFFFF AND EQ PUSH2 0x1E07 JUMPI DUP1 PUSH1 0x40 MLOAD PUSH32 0xD8A3FB5200000000000000000000000000000000000000000000000000000000 DUP2 MSTORE PUSH1 0x4 ADD PUSH2 0x1DFE SWAP2 SWAP1 PUSH2 0x299C JUMP JUMPDEST PUSH1 0x40 MLOAD DUP1 SWAP2 SUB SWAP1 REVERT JUMPDEST PUSH1 0x2 PUSH1 0x0 ADD PUSH1 0x0 SWAP1 SLOAD SWAP1 PUSH2 0x100 EXP SWAP1 DIV PUSH1 0xFF AND ISZERO PUSH2 0x1E51 JUMPI PUSH1 0x40 MLOAD PUSH32 0xED3BA6A600000000000000000000000000000000000000000000000000000000 DUP2 MSTORE PUSH1 0x4 ADD PUSH1 0x40 MLOAD DUP1 SWAP2 SUB SWAP1 REVERT JUMPDEST DUP4 PUSH8 0xFFFFFFFFFFFFFFFF AND PUSH32 0xE8ED5B475A5B5987AA9165E8731BB78043F39EEE32EC5A1169A89E27FCD49815 DUP5 PUSH1 0x6 PUSH1 0x0 DUP9 PUSH8 0xFFFFFFFFFFFFFFFF AND PUSH8 0xFFFFFFFFFFFFFFFF AND DUP2 MSTORE PUSH1 0x20 ADD SWAP1 DUP2 MSTORE PUSH1 0x20 ADD PUSH1 0x0 KECCAK256 PUSH1 0x0 ADD PUSH1 0x14 SWAP1 SLOAD SWAP1 PUSH2 0x100 EXP SWAP1 DIV PUSH12 0xFFFFFFFFFFFFFFFFFFFFFFFF AND PUSH1 0x40 MLOAD PUSH2 0x1ECF SWAP3 SWAP2 SWAP1 PUSH2 0x3210 JUMP JUMPDEST PUSH1 0x40 MLOAD DUP1 SWAP2 SUB SWAP1 LOG2 PUSH1 0x6 PUSH1 0x0 DUP6 PUSH8 0xFFFFFFFFFFFFFFFF AND PUSH8 0xFFFFFFFFFFFFFFFF AND DUP2 MSTORE PUSH1 0x20 ADD SWAP1 DUP2 MSTORE PUSH1 0x20 ADD PUSH1 0x0 KECCAK256 PUSH1 0x0 DUP1 DUP3 ADD PUSH1 0x0 PUSH2 0x100 EXP DUP2 SLOAD SWAP1 PUSH20 0xFFFFFFFFFFFFFFFFFFFFFFFFFFFFFFFFFFFFFFFF MUL NOT AND SWAP1 SSTORE PUSH1 0x0 DUP3 ADD PUSH1 0x14 PUSH2 0x100 EXP DUP2 SLOAD SWAP1 PUSH12 0xFFFFFFFFFFFFFFFFFFFFFFFF MUL NOT AND SWAP1 SSTORE POP POP POP POP POP POP JUMP JUMPDEST PUSH1 0x0 PUSH1 0x40 MLOAD PUSH32 0x8C379A000000000000000000000000000000000000000000000000000000000 DUP2 MSTORE PUSH1 0x4 ADD PUSH2 0x1F81 SWAP1 PUSH2 0x2C5C JUMP JUMPDEST PUSH1 0x40 MLOAD DUP1 SWAP2 SUB SWAP1 REVERT JUMPDEST PUSH1 0x0 DUP1 PUSH1 0x7 PUSH1 0x0 DUP6 PUSH8 0xFFFFFFFFFFFFFFFF AND PUSH8 0xFFFFFFFFFFFFFFFF AND DUP2 MSTORE PUSH1 0x20 ADD SWAP1 DUP2 MSTORE PUSH1 0x20 ADD PUSH1 0x0 KECCAK256 DUP1 SLOAD DUP1 PUSH1 0x20 MUL PUSH1 0x20 ADD PUSH1 0x40 MLOAD SWAP1 DUP2 ADD PUSH1 0x40 MSTORE DUP1 SWAP3 SWAP2 SWAP1 DUP2 DUP2 MSTORE PUSH1 0x20 ADD DUP3 DUP1 SLOAD DUP1 ISZERO PUSH2 0x2034 JUMPI PUSH1 0x20 MUL DUP3 ADD SWAP2 SWAP1 PUSH1 0x0 MSTORE PUSH1 0x20 PUSH1 0x0 KECCAK256 SWAP1 JUMPDEST DUP2 PUSH1 0x0 SWAP1 SLOAD SWAP1 PUSH2 0x100 EXP SWAP1 DIV PUSH20 0xFFFFFFFFFFFFFFFFFFFFFFFFFFFFFFFFFFFFFFFF AND PUSH20 0xFFFFFFFFFFFFFFFFFFFFFFFFFFFFFFFFFFFFFFFF AND DUP2 MSTORE PUSH1 0x20 ADD SWAP1 PUSH1 0x1 ADD SWAP1 DUP1 DUP4 GT PUSH2 0x1FEA JUMPI JUMPDEST POP POP POP POP POP SWAP1 POP PUSH1 0x0 JUMPDEST DUP2 MLOAD DUP2 LT ISZERO PUSH2 0x20AC JUMPI DUP4 PUSH20 0xFFFFFFFFFFFFFFFFFFFFFFFFFFFFFFFFFFFFFFFF AND DUP3 DUP3 DUP2 MLOAD DUP2 LT PUSH2 0x2071 JUMPI PUSH2 0x2070 PUSH2 0x2D11 JUMP JUMPDEST JUMPDEST PUSH1 0x20 MUL PUSH1 0x20 ADD ADD MLOAD PUSH20 0xFFFFFFFFFFFFFFFFFFFFFFFFFFFFFFFFFFFFFFFF AND SUB PUSH2 0x209F JUMPI PUSH1 0x1 SWAP3 POP POP POP PUSH2 0x20B3 JUMP JUMPDEST DUP1 DUP1 PUSH1 0x1 ADD SWAP2 POP POP PUSH2 0x203E JUMP JUMPDEST POP PUSH1 0x0 SWAP2 POP POP JUMPDEST SWAP3 SWAP2 POP POP JUMP JUMPDEST PUSH2 0x20C1 PUSH2 0x20CD JUMP JUMPDEST PUSH2 0x20CA DUP2 PUSH2 0x215D JUMP JUMPDEST POP JUMP JUMPDEST PUSH1 0x0 DUP1 SLOAD SWAP1 PUSH2 0x100 EXP SWAP1 DIV PUSH20 0xFFFFFFFFFFFFFFFFFFFFFFFFFFFFFFFFFFFFFFFF AND PUSH20 0xFFFFFFFFFFFFFFFFFFFFFFFFFFFFFFFFFFFFFFFF AND CALLER PUSH20 0xFFFFFFFFFFFFFFFFFFFFFFFFFFFFFFFFFFFFFFFF AND EQ PUSH2 0x215B JUMPI PUSH1 0x40 MLOAD PUSH32 0x8C379A000000000000000000000000000000000000000000000000000000000 DUP2 MSTORE PUSH1 0x4 ADD PUSH2 0x2152 SWAP1 PUSH2 0x3285 JUMP JUMPDEST PUSH1 0x40 MLOAD DUP1 SWAP2 SUB SWAP1 REVERT JUMPDEST JUMP JUMPDEST CALLER PUSH20 0xFFFFFFFFFFFFFFFFFFFFFFFFFFFFFFFFFFFFFFFF AND DUP2 PUSH20 0xFFFFFFFFFFFFFFFFFFFFFFFFFFFFFFFFFFFFFFFF AND SUB PUSH2 0x21CB JUMPI PUSH1 0x40 MLOAD PUSH32 0x8C379A000000000000000000000000000000000000000000000000000000000 DUP2 MSTORE PUSH1 0x4 ADD PUSH2 0x21C2 SWAP1 PUSH2 0x32F1 JUMP JUMPDEST PUSH1 0x40 MLOAD DUP1 SWAP2 SUB SWAP1 REVERT JUMPDEST DUP1 PUSH1 0x1 PUSH1 0x0 PUSH2 0x100 EXP DUP2 SLOAD DUP2 PUSH20 0xFFFFFFFFFFFFFFFFFFFFFFFFFFFFFFFFFFFFFFFF MUL NOT AND SWAP1 DUP4 PUSH20 0xFFFFFFFFFFFFFFFFFFFFFFFFFFFFFFFFFFFFFFFF AND MUL OR SWAP1 SSTORE POP DUP1 PUSH20 0xFFFFFFFFFFFFFFFFFFFFFFFFFFFFFFFFFFFFFFFF AND PUSH1 0x0 DUP1 SLOAD SWAP1 PUSH2 0x100 EXP SWAP1 DIV PUSH20 0xFFFFFFFFFFFFFFFFFFFFFFFFFFFFFFFFFFFFFFFF AND PUSH20 0xFFFFFFFFFFFFFFFFFFFFFFFFFFFFFFFFFFFFFFFF AND PUSH32 0xED8889F560326EB138920D842192F0EB3DD22B4F139C87A2C57538E05BAE1278 PUSH1 0x40 MLOAD PUSH1 0x40 MLOAD DUP1 SWAP2 SUB SWAP1 LOG3 POP JUMP JUMPDEST PUSH1 0x0 PUSH2 0xFFFF DUP3 AND SWAP1 POP SWAP2 SWAP1 POP JUMP JUMPDEST PUSH2 0x22A0 DUP2 PUSH2 0x2289 JUMP JUMPDEST DUP3 MSTORE POP POP JUMP JUMPDEST PUSH1 0x0 PUSH4 0xFFFFFFFF DUP3 AND SWAP1 POP SWAP2 SWAP1 POP JUMP JUMPDEST PUSH2 0x22BF DUP2 PUSH2 0x22A6 JUMP JUMPDEST DUP3 MSTORE POP POP JUMP JUMPDEST PUSH1 0x0 DUP2 MLOAD SWAP1 POP SWAP2 SWAP1 POP JUMP JUMPDEST PUSH1 0x0 DUP3 DUP3 MSTORE PUSH1 0x20 DUP3 ADD SWAP1 POP SWAP3 SWAP2 POP POP JUMP JUMPDEST PUSH1 0x0 DUP2 SWAP1 POP PUSH1 0x20 DUP3 ADD SWAP1 POP SWAP2 SWAP1 POP JUMP JUMPDEST PUSH1 0x0 DUP2 SWAP1 POP SWAP2 SWAP1 POP JUMP JUMPDEST PUSH2 0x2304 DUP2 PUSH2 0x22F1 JUMP JUMPDEST DUP3 MSTORE POP POP JUMP JUMPDEST PUSH1 0x0 PUSH2 0x2316 DUP4 DUP4 PUSH2 0x22FB JUMP JUMPDEST PUSH1 0x20 DUP4 ADD SWAP1 POP SWAP3 SWAP2 POP POP JUMP JUMPDEST PUSH1 0x0 PUSH1 0x20 DUP3 ADD SWAP1 POP SWAP2 SWAP1 POP JUMP JUMPDEST PUSH1 0x0 PUSH2 0x233A DUP3 PUSH2 0x22C5 JUMP JUMPDEST PUSH2 0x2344 DUP2 DUP6 PUSH2 0x22D0 JUMP JUMPDEST SWAP4 POP PUSH2 0x234F DUP4 PUSH2 0x22E1 JUMP JUMPDEST DUP1 PUSH1 0x0 JUMPDEST DUP4 DUP2 LT ISZERO PUSH2 0x2380 JUMPI DUP2 MLOAD PUSH2 0x2367 DUP9 DUP3 PUSH2 0x230A JUMP JUMPDEST SWAP8 POP PUSH2 0x2372 DUP4 PUSH2 0x2322 JUMP JUMPDEST SWAP3 POP POP PUSH1 0x1 DUP2 ADD SWAP1 POP PUSH2 0x2353 JUMP JUMPDEST POP DUP6 SWAP4 POP POP POP POP SWAP3 SWAP2 POP POP JUMP JUMPDEST PUSH1 0x0 PUSH1 0x60 DUP3 ADD SWAP1 POP PUSH2 0x23A2 PUSH1 0x0 DUP4 ADD DUP7 PUSH2 0x2297 JUMP JUMPDEST PUSH2 0x23AF PUSH1 0x20 DUP4 ADD DUP6 PUSH2 0x22B6 JUMP JUMPDEST DUP2 DUP2 SUB PUSH1 0x40 DUP4 ADD MSTORE PUSH2 0x23C1 DUP2 DUP5 PUSH2 0x232F JUMP JUMPDEST SWAP1 POP SWAP5 SWAP4 POP POP POP POP JUMP JUMPDEST PUSH1 0x0 PUSH1 0x40 MLOAD SWAP1 POP SWAP1 JUMP JUMPDEST PUSH1 0x0 DUP1 REVERT JUMPDEST PUSH1 0x0 DUP1 REVERT JUMPDEST PUSH1 0x0 PUSH8 0xFFFFFFFFFFFFFFFF DUP3 AND SWAP1 POP SWAP2 SWAP1 POP JUMP JUMPDEST PUSH2 0x23FC DUP2 PUSH2 0x23DF JUMP JUMPDEST DUP2 EQ PUSH2 0x2407 JUMPI PUSH1 0x0 DUP1 REVERT JUMPDEST POP JUMP JUMPDEST PUSH1 0x0 DUP2 CALLDATALOAD SWAP1 POP PUSH2 0x2419 DUP2 PUSH2 0x23F3 JUMP JUMPDEST SWAP3 SWAP2 POP POP JUMP JUMPDEST PUSH1 0x0 PUSH20 0xFFFFFFFFFFFFFFFFFFFFFFFFFFFFFFFFFFFFFFFF DUP3 AND SWAP1 POP SWAP2 SWAP1 POP JUMP JUMPDEST PUSH1 0x0 PUSH2 0x244A DUP3 PUSH2 0x241F JUMP JUMPDEST SWAP1 POP SWAP2 SWAP1 POP JUMP JUMPDEST PUSH2 0x245A DUP2 PUSH2 0x243F JUMP JUMPDEST DUP2 EQ PUSH2 0x2465 JUMPI PUSH1 0x0 DUP1 REVERT JUMPDEST POP JUMP JUMPDEST PUSH1 0x0 DUP2 CALLDATALOAD SWAP1 POP PUSH2 0x2477 DUP2 PUSH2 0x2451 JUMP JUMPDEST SWAP3 SWAP2 POP POP JUMP JUMPDEST PUSH1 0x0 DUP1 PUSH1 0x40 DUP4 DUP6 SUB SLT ISZERO PUSH2 0x2494 JUMPI PUSH2 0x2493 PUSH2 0x23D5 JUMP JUMPDEST JUMPDEST PUSH1 0x0 PUSH2 0x24A2 DUP6 DUP3 DUP7 ADD PUSH2 0x240A JUMP JUMPDEST SWAP3 POP POP PUSH1 0x20 PUSH2 0x24B3 DUP6 DUP3 DUP7 ADD PUSH2 0x2468 JUMP JUMPDEST SWAP2 POP POP SWAP3 POP SWAP3 SWAP1 POP JUMP JUMPDEST PUSH1 0x0 DUP2 SWAP1 POP SWAP2 SWAP1 POP JUMP JUMPDEST PUSH2 0x24D0 DUP2 PUSH2 0x24BD JUMP JUMPDEST DUP2 EQ PUSH2 0x24DB JUMPI PUSH1 0x0 DUP1 REVERT JUMPDEST POP JUMP JUMPDEST PUSH1 0x0 DUP2 CALLDATALOAD SWAP1 POP PUSH2 0x24ED DUP2 PUSH2 0x24C7 JUMP JUMPDEST SWAP3 SWAP2 POP POP JUMP JUMPDEST PUSH1 0x0 DUP1 REVERT JUMPDEST PUSH1 0x0 PUSH1 0x1F NOT PUSH1 0x1F DUP4 ADD AND SWAP1 POP SWAP2 SWAP1 POP JUMP JUMPDEST PUSH32 0x4E487B7100000000000000000000000000000000000000000000000000000000 PUSH1 0x0 MSTORE PUSH1 0x41 PUSH1 0x4 MSTORE PUSH1 0x24 PUSH1 0x0 REVERT JUMPDEST PUSH2 0x2541 DUP3 PUSH2 0x24F8 JUMP JUMPDEST DUP2 ADD DUP2 DUP2 LT PUSH8 0xFFFFFFFFFFFFFFFF DUP3 GT OR ISZERO PUSH2 0x2560 JUMPI PUSH2 0x255F PUSH2 0x2509 JUMP JUMPDEST JUMPDEST DUP1 PUSH1 0x40 MSTORE POP POP POP JUMP JUMPDEST PUSH1 0x0 PUSH2 0x2573 PUSH2 0x23CB JUMP JUMPDEST SWAP1 POP PUSH2 0x257F DUP3 DUP3 PUSH2 0x2538 JUMP JUMPDEST SWAP2 SWAP1 POP JUMP JUMPDEST PUSH1 0x0 PUSH8 0xFFFFFFFFFFFFFFFF DUP3 GT ISZERO PUSH2 0x259F JUMPI PUSH2 0x259E PUSH2 0x2509 JUMP JUMPDEST JUMPDEST PUSH1 0x20 DUP3 MUL SWAP1 POP PUSH1 0x20 DUP2 ADD SWAP1 POP SWAP2 SWAP1 POP JUMP JUMPDEST PUSH1 0x0 DUP1 REVERT JUMPDEST PUSH1 0x0 PUSH2 0x25C8 PUSH2 0x25C3 DUP5 PUSH2 0x2584 JUMP JUMPDEST PUSH2 0x2569 JUMP JUMPDEST SWAP1 POP DUP1 DUP4 DUP3 MSTORE PUSH1 0x20 DUP3 ADD SWAP1 POP PUSH1 0x20 DUP5 MUL DUP4 ADD DUP6 DUP2 GT ISZERO PUSH2 0x25EB JUMPI PUSH2 0x25EA PUSH2 0x25B0 JUMP JUMPDEST JUMPDEST DUP4 JUMPDEST DUP2 DUP2 LT ISZERO PUSH2 0x2614 JUMPI DUP1 PUSH2 0x2600 DUP9 DUP3 PUSH2 0x24DE JUMP JUMPDEST DUP5 MSTORE PUSH1 0x20 DUP5 ADD SWAP4 POP POP PUSH1 0x20 DUP2 ADD SWAP1 POP PUSH2 0x25ED JUMP JUMPDEST POP POP POP SWAP4 SWAP3 POP POP POP JUMP JUMPDEST PUSH1 0x0 DUP3 PUSH1 0x1F DUP4 ADD SLT PUSH2 0x2633 JUMPI PUSH2 0x2632 PUSH2 0x24F3 JUMP JUMPDEST JUMPDEST DUP2 CALLDATALOAD PUSH2 0x2643 DUP5 DUP3 PUSH1 0x20 DUP7 ADD PUSH2 0x25B5 JUMP JUMPDEST SWAP2 POP POP SWAP3 SWAP2 POP POP JUMP JUMPDEST PUSH1 0x0 DUP1 PUSH1 0x0 PUSH1 0x60 DUP5 DUP7 SUB SLT ISZERO PUSH2 0x2665 JUMPI PUSH2 0x2664 PUSH2 0x23D5 JUMP JUMPDEST JUMPDEST PUSH1 0x0 PUSH2 0x2673 DUP7 DUP3 DUP8 ADD PUSH2 0x24DE JUMP JUMPDEST SWAP4 POP POP PUSH1 0x20 PUSH2 0x2684 DUP7 DUP3 DUP8 ADD PUSH2 0x2468 JUMP JUMPDEST SWAP3 POP POP PUSH1 0x40 DUP5 ADD CALLDATALOAD PUSH8 0xFFFFFFFFFFFFFFFF DUP2 GT ISZERO PUSH2 0x26A5 JUMPI PUSH2 0x26A4 PUSH2 0x23DA JUMP JUMPDEST JUMPDEST PUSH2 0x26B1 DUP7 DUP3 DUP8 ADD PUSH2 0x261E JUMP JUMPDEST SWAP2 POP POP SWAP3 POP SWAP3 POP SWAP3 JUMP JUMPDEST PUSH1 0x0 DUP2 SWAP1 POP SWAP2 SWAP1 POP JUMP JUMPDEST PUSH2 0x26CE DUP2 PUSH2 0x26BB JUMP JUMPDEST DUP3 MSTORE POP POP JUMP JUMPDEST PUSH1 0x0 PUSH1 0x20 DUP3 ADD SWAP1 POP PUSH2 0x26E9 PUSH1 0x0 DUP4 ADD DUP5 PUSH2 0x26C5 JUMP JUMPDEST SWAP3 SWAP2 POP POP JUMP JUMPDEST PUSH1 0x0 PUSH12 0xFFFFFFFFFFFFFFFFFFFFFFFF DUP3 AND SWAP1 POP SWAP2 SWAP1 POP JUMP JUMPDEST PUSH2 0x2710 DUP2 PUSH2 0x26EF JUMP JUMPDEST DUP3 MSTORE POP POP JUMP JUMPDEST PUSH1 0x0 PUSH1 0x20 DUP3 ADD SWAP1 POP PUSH2 0x272B PUSH1 0x0 DUP4 ADD DUP5 PUSH2 0x2707 JUMP JUMPDEST SWAP3 SWAP2 POP POP JUMP JUMPDEST PUSH2 0x273A DUP2 PUSH2 0x22F1 JUMP JUMPDEST DUP2 EQ PUSH2 0x2745 JUMPI PUSH1 0x0 DUP1 REVERT JUMPDEST POP JUMP JUMPDEST PUSH1 0x0 DUP2 CALLDATALOAD SWAP1 POP PUSH2 0x2757 DUP2 PUSH2 0x2731 JUMP JUMPDEST SWAP3 SWAP2 POP POP JUMP JUMPDEST PUSH2 0x2766 DUP2 PUSH2 0x2289 JUMP JUMPDEST DUP2 EQ PUSH2 0x2771 JUMPI PUSH1 0x0 DUP1 REVERT JUMPDEST POP JUMP JUMPDEST PUSH1 0x0 DUP2 CALLDATALOAD SWAP1 POP PUSH2 0x2783 DUP2 PUSH2 0x275D JUMP JUMPDEST SWAP3 SWAP2 POP POP JUMP JUMPDEST PUSH2 0x2792 DUP2 PUSH2 0x22A6 JUMP JUMPDEST DUP2 EQ PUSH2 0x279D JUMPI PUSH1 0x0 DUP1 REVERT JUMPDEST POP JUMP JUMPDEST PUSH1 0x0 DUP2 CALLDATALOAD SWAP1 POP PUSH2 0x27AF DUP2 PUSH2 0x2789 JUMP JUMPDEST SWAP3 SWAP2 POP POP JUMP JUMPDEST PUSH1 0x0 DUP1 PUSH1 0x0 DUP1 PUSH1 0x0 PUSH1 0xA0 DUP7 DUP9 SUB SLT ISZERO PUSH2 0x27D1 JUMPI PUSH2 0x27D0 PUSH2 0x23D5 JUMP JUMPDEST JUMPDEST PUSH1 0x0 PUSH2 0x27DF DUP9 DUP3 DUP10 ADD PUSH2 0x2748 JUMP JUMPDEST SWAP6 POP POP PUSH1 0x20 PUSH2 0x27F0 DUP9 DUP3 DUP10 ADD PUSH2 0x240A JUMP JUMPDEST SWAP5 POP POP PUSH1 0x40 PUSH2 0x2801 DUP9 DUP3 DUP10 ADD PUSH2 0x2774 JUMP JUMPDEST SWAP4 POP POP PUSH1 0x60 PUSH2 0x2812 DUP9 DUP3 DUP10 ADD PUSH2 0x27A0 JUMP JUMPDEST SWAP3 POP POP PUSH1 0x80 PUSH2 0x2823 DUP9 DUP3 DUP10 ADD PUSH2 0x27A0 JUMP JUMPDEST SWAP2 POP POP SWAP3 SWAP6 POP SWAP3 SWAP6 SWAP1 SWAP4 POP JUMP JUMPDEST PUSH2 0x2839 DUP2 PUSH2 0x24BD JUMP JUMPDEST DUP3 MSTORE POP POP JUMP JUMPDEST PUSH1 0x0 PUSH1 0x20 DUP3 ADD SWAP1 POP PUSH2 0x2854 PUSH1 0x0 DUP4 ADD DUP5 PUSH2 0x2830 JUMP JUMPDEST SWAP3 SWAP2 POP POP JUMP JUMPDEST PUSH1 0x0 PUSH3 0xFFFFFF DUP3 AND SWAP1 POP SWAP2 SWAP1 POP JUMP JUMPDEST PUSH2 0x2872 DUP2 PUSH2 0x285A JUMP JUMPDEST DUP3 MSTORE POP POP JUMP JUMPDEST PUSH1 0x0 PUSH2 0x120 DUP3 ADD SWAP1 POP PUSH2 0x288E PUSH1 0x0 DUP4 ADD DUP13 PUSH2 0x22B6 JUMP JUMPDEST PUSH2 0x289B PUSH1 0x20 DUP4 ADD DUP12 PUSH2 0x22B6 JUMP JUMPDEST PUSH2 0x28A8 PUSH1 0x40 DUP4 ADD DUP11 PUSH2 0x22B6 JUMP JUMPDEST PUSH2 0x28B5 PUSH1 0x60 DUP4 ADD DUP10 PUSH2 0x22B6 JUMP JUMPDEST PUSH2 0x28C2 PUSH1 0x80 DUP4 ADD DUP9 PUSH2 0x22B6 JUMP JUMPDEST PUSH2 0x28CF PUSH1 0xA0 DUP4 ADD DUP8 PUSH2 0x2869 JUMP JUMPDEST PUSH2 0x28DC PUSH1 0xC0 DUP4 ADD DUP7 PUSH2 0x2869 JUMP JUMPDEST PUSH2 0x28E9 PUSH1 0xE0 DUP4 ADD DUP6 PUSH2 0x2869 JUMP JUMPDEST PUSH2 0x28F7 PUSH2 0x100 DUP4 ADD DUP5 PUSH2 0x2869 JUMP JUMPDEST SWAP11 SWAP10 POP POP POP POP POP POP POP POP POP POP JUMP JUMPDEST PUSH1 0x0 PUSH1 0x20 DUP3 ADD SWAP1 POP PUSH2 0x291A PUSH1 0x0 DUP4 ADD DUP5 PUSH2 0x2297 JUMP JUMPDEST SWAP3 SWAP2 POP POP JUMP JUMPDEST PUSH1 0x0 DUP1 PUSH1 0x40 DUP4 DUP6 SUB SLT ISZERO PUSH2 0x2937 JUMPI PUSH2 0x2936 PUSH2 0x23D5 JUMP JUMPDEST JUMPDEST PUSH1 0x0 PUSH2 0x2945 DUP6 DUP3 DUP7 ADD PUSH2 0x24DE JUMP JUMPDEST SWAP3 POP POP PUSH1 0x20 PUSH2 0x2956 DUP6 DUP3 DUP7 ADD PUSH2 0x2468 JUMP JUMPDEST SWAP2 POP POP SWAP3 POP SWAP3 SWAP1 POP JUMP JUMPDEST PUSH1 0x0 PUSH1 0x20 DUP3 DUP5 SUB SLT ISZERO PUSH2 0x2976 JUMPI PUSH2 0x2975 PUSH2 0x23D5 JUMP JUMPDEST JUMPDEST PUSH1 0x0 PUSH2 0x2984 DUP5 DUP3 DUP6 ADD PUSH2 0x240A JUMP JUMPDEST SWAP2 POP POP SWAP3 SWAP2 POP POP JUMP JUMPDEST PUSH2 0x2996 DUP2 PUSH2 0x243F JUMP JUMPDEST DUP3 MSTORE POP POP JUMP JUMPDEST PUSH1 0x0 PUSH1 0x20 DUP3 ADD SWAP1 POP PUSH2 0x29B1 PUSH1 0x0 DUP4 ADD DUP5 PUSH2 0x298D JUMP JUMPDEST SWAP3 SWAP2 POP POP JUMP JUMPDEST PUSH2 0x29C0 DUP2 PUSH2 0x23DF JUMP JUMPDEST DUP3 MSTORE POP POP JUMP JUMPDEST PUSH1 0x0 PUSH1 0x20 DUP3 ADD SWAP1 POP PUSH2 0x29DB PUSH1 0x0 DUP4 ADD DUP5 PUSH2 0x29B7 JUMP JUMPDEST SWAP3 SWAP2 POP POP JUMP JUMPDEST PUSH1 0x0 DUP2 MLOAD SWAP1 POP SWAP2 SWAP1 POP JUMP JUMPDEST PUSH1 0x0 DUP3 DUP3 MSTORE PUSH1 0x20 DUP3 ADD SWAP1 POP SWAP3 SWAP2 POP POP JUMP JUMPDEST PUSH1 0x0 DUP2 SWAP1 POP PUSH1 0x20 DUP3 ADD SWAP1 POP SWAP2 SWAP1 POP JUMP JUMPDEST PUSH2 0x2A16 DUP2 PUSH2 0x243F JUMP JUMPDEST DUP3 MSTORE POP POP JUMP JUMPDEST PUSH1 0x0 PUSH2 0x2A28 DUP4 DUP4 PUSH2 0x2A0D JUMP JUMPDEST PUSH1 0x20 DUP4 ADD SWAP1 POP SWAP3 SWAP2 POP POP JUMP JUMPDEST PUSH1 0x0 PUSH1 0x20 DUP3 ADD SWAP1 POP SWAP2 SWAP1 POP JUMP JUMPDEST PUSH1 0x0 PUSH2 0x2A4C DUP3 PUSH2 0x29E1 JUMP JUMPDEST PUSH2 0x2A56 DUP2 DUP6 PUSH2 0x29EC JUMP JUMPDEST SWAP4 POP PUSH2 0x2A61 DUP4 PUSH2 0x29FD JUMP JUMPDEST DUP1 PUSH1 0x0 JUMPDEST DUP4 DUP2 LT ISZERO PUSH2 0x2A92 JUMPI DUP2 MLOAD PUSH2 0x2A79 DUP9 DUP3 PUSH2 0x2A1C JUMP JUMPDEST SWAP8 POP PUSH2 0x2A84 DUP4 PUSH2 0x2A34 JUMP JUMPDEST SWAP3 POP POP PUSH1 0x1 DUP2 ADD SWAP1 POP PUSH2 0x2A65 JUMP JUMPDEST POP DUP6 SWAP4 POP POP POP POP SWAP3 SWAP2 POP POP JUMP JUMPDEST PUSH1 0x0 PUSH1 0x80 DUP3 ADD SWAP1 POP PUSH2 0x2AB4 PUSH1 0x0 DUP4 ADD DUP8 PUSH2 0x2707 JUMP JUMPDEST PUSH2 0x2AC1 PUSH1 0x20 DUP4 ADD DUP7 PUSH2 0x29B7 JUMP JUMPDEST PUSH2 0x2ACE PUSH1 0x40 DUP4 ADD DUP6 PUSH2 0x298D JUMP JUMPDEST DUP2 DUP2 SUB PUSH1 0x60 DUP4 ADD MSTORE PUSH2 0x2AE0 DUP2 DUP5 PUSH2 0x2A41 JUMP JUMPDEST SWAP1 POP SWAP6 SWAP5 POP POP POP POP POP JUMP JUMPDEST PUSH2 0x2AF4 DUP2 PUSH2 0x26EF JUMP JUMPDEST DUP2 EQ PUSH2 0x2AFF JUMPI PUSH1 0x0 DUP1 REVERT JUMPDEST POP JUMP JUMPDEST PUSH1 0x0 DUP2 CALLDATALOAD SWAP1 POP PUSH2 0x2B11 DUP2 PUSH2 0x2AEB JUMP JUMPDEST SWAP3 SWAP2 POP POP JUMP JUMPDEST PUSH1 0x0 DUP1 PUSH1 0x40 DUP4 DUP6 SUB SLT ISZERO PUSH2 0x2B2E JUMPI PUSH2 0x2B2D PUSH2 0x23D5 JUMP JUMPDEST JUMPDEST PUSH1 0x0 PUSH2 0x2B3C DUP6 DUP3 DUP7 ADD PUSH2 0x240A JUMP JUMPDEST SWAP3 POP POP PUSH1 0x20 PUSH2 0x2B4D DUP6 DUP3 DUP7 ADD PUSH2 0x2B02 JUMP JUMPDEST SWAP2 POP POP SWAP3 POP SWAP3 SWAP1 POP JUMP JUMPDEST PUSH1 0x0 PUSH1 0x80 DUP3 ADD SWAP1 POP PUSH2 0x2B6C PUSH1 0x0 DUP4 ADD DUP8 PUSH2 0x2297 JUMP JUMPDEST PUSH2 0x2B79 PUSH1 0x20 DUP4 ADD DUP7 PUSH2 0x22B6 JUMP JUMPDEST PUSH2 0x2B86 PUSH1 0x40 DUP4 ADD DUP6 PUSH2 0x22B6 JUMP JUMPDEST PUSH2 0x2B93 PUSH1 0x60 DUP4 ADD DUP5 PUSH2 0x22B6 JUMP JUMPDEST SWAP6 SWAP5 POP POP POP POP POP JUMP JUMPDEST PUSH1 0x0 DUP2 ISZERO ISZERO SWAP1 POP SWAP2 SWAP1 POP JUMP JUMPDEST PUSH2 0x2BB1 DUP2 PUSH2 0x2B9C JUMP JUMPDEST DUP3 MSTORE POP POP JUMP JUMPDEST PUSH1 0x0 PUSH1 0x20 DUP3 ADD SWAP1 POP PUSH2 0x2BCC PUSH1 0x0 DUP4 ADD DUP5 PUSH2 0x2BA8 JUMP JUMPDEST SWAP3 SWAP2 POP POP JUMP JUMPDEST PUSH1 0x0 PUSH1 0x20 DUP3 DUP5 SUB SLT ISZERO PUSH2 0x2BE8 JUMPI PUSH2 0x2BE7 PUSH2 0x23D5 JUMP JUMPDEST JUMPDEST PUSH1 0x0 PUSH2 0x2BF6 DUP5 DUP3 DUP6 ADD PUSH2 0x2468 JUMP JUMPDEST SWAP2 POP POP SWAP3 SWAP2 POP POP JUMP JUMPDEST PUSH1 0x0 DUP3 DUP3 MSTORE PUSH1 0x20 DUP3 ADD SWAP1 POP SWAP3 SWAP2 POP POP JUMP JUMPDEST PUSH32 0x6E6F7420696D706C656D656E7465640000000000000000000000000000000000 PUSH1 0x0 DUP3 ADD MSTORE POP JUMP JUMPDEST PUSH1 0x0 PUSH2 0x2C46 PUSH1 0xF DUP4 PUSH2 0x2BFF JUMP JUMPDEST SWAP2 POP PUSH2 0x2C51 DUP3 PUSH2 0x2C10 JUMP JUMPDEST PUSH1 0x20 DUP3 ADD SWAP1 POP SWAP2 SWAP1 POP JUMP JUMPDEST PUSH1 0x0 PUSH1 0x20 DUP3 ADD SWAP1 POP DUP2 DUP2 SUB PUSH1 0x0 DUP4 ADD MSTORE PUSH2 0x2C75 DUP2 PUSH2 0x2C39 JUMP JUMPDEST SWAP1 POP SWAP2 SWAP1 POP JUMP JUMPDEST PUSH32 0x6E6F6E6578697374656E74207265717565737400000000000000000000000000 PUSH1 0x0 DUP3 ADD MSTORE POP JUMP JUMPDEST PUSH1 0x0 PUSH2 0x2CB2 PUSH1 0x13 DUP4 PUSH2 0x2BFF JUMP JUMPDEST SWAP2 POP PUSH2 0x2CBD DUP3 PUSH2 0x2C7C JUMP JUMPDEST PUSH1 0x20 DUP3 ADD SWAP1 POP SWAP2 SWAP1 POP JUMP JUMPDEST PUSH1 0x0 PUSH1 0x20 DUP3 ADD SWAP1 POP DUP2 DUP2 SUB PUSH1 0x0 DUP4 ADD MSTORE PUSH2 0x2CE1 DUP2 PUSH2 0x2CA5 JUMP JUMPDEST SWAP1 POP SWAP2 SWAP1 POP JUMP JUMPDEST PUSH1 0x0 PUSH1 0x40 DUP3 ADD SWAP1 POP PUSH2 0x2CFD PUSH1 0x0 DUP4 ADD DUP6 PUSH2 0x2830 JUMP JUMPDEST PUSH2 0x2D0A PUSH1 0x20 DUP4 ADD DUP5 PUSH2 0x2830 JUMP JUMPDEST SWAP4 SWAP3 POP POP POP JUMP JUMPDEST PUSH32 0x4E487B7100000000000000000000000000000000000000000000000000000000 PUSH1 0x0 MSTORE PUSH1 0x32 PUSH1 0x4 MSTORE PUSH1 0x24 PUSH1 0x0 REVERT JUMPDEST PUSH1 0x0 DUP2 MLOAD SWAP1 POP SWAP2 SWAP1 POP JUMP JUMPDEST PUSH1 0x0 DUP3 DUP3 MSTORE PUSH1 0x20 DUP3 ADD SWAP1 POP SWAP3 SWAP2 POP POP JUMP JUMPDEST PUSH1 0x0 DUP2 SWAP1 POP PUSH1 0x20 DUP3 ADD SWAP1 POP SWAP2 SWAP1 POP JUMP JUMPDEST PUSH2 0x2D75 DUP2 PUSH2 0x24BD JUMP JUMPDEST DUP3 MSTORE POP POP JUMP JUMPDEST PUSH1 0x0 PUSH2 0x2D87 DUP4 DUP4 PUSH2 0x2D6C JUMP JUMPDEST PUSH1 0x20 DUP4 ADD SWAP1 POP SWAP3 SWAP2 POP POP JUMP JUMPDEST PUSH1 0x0 PUSH1 0x20 DUP3 ADD SWAP1 POP SWAP2 SWAP1 POP JUMP JUMPDEST PUSH1 0x0 PUSH2 0x2DAB DUP3 PUSH2 0x2D40 JUMP JUMPDEST PUSH2 0x2DB5 DUP2 DUP6 PUSH2 0x2D4B JUMP JUMPDEST SWAP4 POP PUSH2 0x2DC0 DUP4 PUSH2 0x2D5C JUMP JUMPDEST DUP1 PUSH1 0x0 JUMPDEST DUP4 DUP2 LT ISZERO PUSH2 0x2DF1 JUMPI DUP2 MLOAD PUSH2 0x2DD8 DUP9 DUP3 PUSH2 0x2D7B JUMP JUMPDEST SWAP8 POP PUSH2 0x2DE3 DUP4 PUSH2 0x2D93 JUMP JUMPDEST SWAP3 POP POP PUSH1 0x1 DUP2 ADD SWAP1 POP PUSH2 0x2DC4 JUMP JUMPDEST POP DUP6 SWAP4 POP POP POP POP SWAP3 SWAP2 POP POP JUMP JUMPDEST PUSH1 0x0 PUSH1 0x40 DUP3 ADD SWAP1 POP PUSH2 0x2E13 PUSH1 0x0 DUP4 ADD DUP6 PUSH2 0x2830 JUMP JUMPDEST DUP2 DUP2 SUB PUSH1 0x20 DUP4 ADD MSTORE PUSH2 0x2E25 DUP2 DUP5 PUSH2 0x2DA0 JUMP JUMPDEST SWAP1 POP SWAP4 SWAP3 POP POP POP JUMP JUMPDEST PUSH1 0x0 DUP2 MLOAD SWAP1 POP SWAP2 SWAP1 POP JUMP JUMPDEST PUSH1 0x0 DUP2 SWAP1 POP SWAP3 SWAP2 POP POP JUMP JUMPDEST PUSH1 0x0 JUMPDEST DUP4 DUP2 LT ISZERO PUSH2 0x2E62 JUMPI DUP1 DUP3 ADD MLOAD DUP2 DUP5 ADD MSTORE PUSH1 0x20 DUP2 ADD SWAP1 POP PUSH2 0x2E47 JUMP JUMPDEST PUSH1 0x0 DUP5 DUP5 ADD MSTORE POP POP POP POP JUMP JUMPDEST PUSH1 0x0 PUSH2 0x2E79 DUP3 PUSH2 0x2E2E JUMP JUMPDEST PUSH2 0x2E83 DUP2 DUP6 PUSH2 0x2E39 JUMP JUMPDEST SWAP4 POP PUSH2 0x2E93 DUP2 DUP6 PUSH1 0x20 DUP7 ADD PUSH2 0x2E44 JUMP JUMPDEST DUP1 DUP5 ADD SWAP2 POP POP SWAP3 SWAP2 POP POP JUMP JUMPDEST PUSH1 0x0 PUSH2 0x2EAB DUP3 DUP5 PUSH2 0x2E6E JUMP JUMPDEST SWAP2 POP DUP2 SWAP1 POP SWAP3 SWAP2 POP POP JUMP JUMPDEST PUSH32 0x4E487B7100000000000000000000000000000000000000000000000000000000 PUSH1 0x0 MSTORE PUSH1 0x11 PUSH1 0x4 MSTORE PUSH1 0x24 PUSH1 0x0 REVERT JUMPDEST PUSH1 0x0 PUSH2 0x2EF0 DUP3 PUSH2 0x24BD JUMP JUMPDEST SWAP2 POP PUSH2 0x2EFB DUP4 PUSH2 0x24BD JUMP JUMPDEST SWAP3 POP DUP3 DUP3 SUB SWAP1 POP DUP2 DUP2 GT ISZERO PUSH2 0x2F13 JUMPI PUSH2 0x2F12 PUSH2 0x2EB6 JUMP JUMPDEST JUMPDEST SWAP3 SWAP2 POP POP JUMP JUMPDEST PUSH1 0x0 PUSH2 0x2F24 DUP3 PUSH2 0x24BD JUMP JUMPDEST SWAP2 POP PUSH2 0x2F2F DUP4 PUSH2 0x24BD JUMP JUMPDEST SWAP3 POP DUP3 DUP3 MUL PUSH2 0x2F3D DUP2 PUSH2 0x24BD JUMP JUMPDEST SWAP2 POP DUP3 DUP3 DIV DUP5 EQ DUP4 ISZERO OR PUSH2 0x2F54 JUMPI PUSH2 0x2F53 PUSH2 0x2EB6 JUMP JUMPDEST JUMPDEST POP SWAP3 SWAP2 POP POP JUMP JUMPDEST PUSH1 0x0 PUSH2 0x2F66 DUP3 PUSH2 0x24BD JUMP JUMPDEST SWAP2 POP PUSH2 0x2F71 DUP4 PUSH2 0x24BD JUMP JUMPDEST SWAP3 POP DUP3 DUP3 ADD SWAP1 POP DUP1 DUP3 GT ISZERO PUSH2 0x2F89 JUMPI PUSH2 0x2F88 PUSH2 0x2EB6 JUMP JUMPDEST JUMPDEST SWAP3 SWAP2 POP POP JUMP JUMPDEST PUSH1 0x0 PUSH2 0x2F9A DUP3 PUSH2 0x26EF JUMP JUMPDEST SWAP2 POP PUSH2 0x2FA5 DUP4 PUSH2 0x26EF JUMP JUMPDEST SWAP3 POP DUP3 DUP3 SUB SWAP1 POP PUSH12 0xFFFFFFFFFFFFFFFFFFFFFFFF DUP2 GT ISZERO PUSH2 0x2FC9 JUMPI PUSH2 0x2FC8 PUSH2 0x2EB6 JUMP JUMPDEST JUMPDEST SWAP3 SWAP2 POP POP JUMP JUMPDEST PUSH1 0x0 PUSH1 0x60 DUP3 ADD SWAP1 POP PUSH2 0x2FE4 PUSH1 0x0 DUP4 ADD DUP7 PUSH2 0x2830 JUMP JUMPDEST PUSH2 0x2FF1 PUSH1 0x20 DUP4 ADD DUP6 PUSH2 0x2707 JUMP JUMPDEST PUSH2 0x2FFE PUSH1 0x40 DUP4 ADD DUP5 PUSH2 0x2BA8 JUMP JUMPDEST SWAP5 SWAP4 POP POP POP POP JUMP JUMPDEST PUSH1 0x0 PUSH2 0x3011 DUP3 PUSH2 0x24BD JUMP JUMPDEST SWAP2 POP PUSH32 0xFFFFFFFFFFFFFFFFFFFFFFFFFFFFFFFFFFFFFFFFFFFFFFFFFFFFFFFFFFFFFFFF DUP3 SUB PUSH2 0x3043 JUMPI PUSH2 0x3042 PUSH2 0x2EB6 JUMP JUMPDEST JUMPDEST PUSH1 0x1 DUP3 ADD SWAP1 POP SWAP2 SWAP1 POP JUMP JUMPDEST PUSH1 0x0 PUSH1 0xA0 DUP3 ADD SWAP1 POP PUSH2 0x3063 PUSH1 0x0 DUP4 ADD DUP9 PUSH2 0x2830 JUMP JUMPDEST PUSH2 0x3070 PUSH1 0x20 DUP4 ADD DUP8 PUSH2 0x2830 JUMP JUMPDEST PUSH2 0x307D PUSH1 0x40 DUP4 ADD DUP7 PUSH2 0x2297 JUMP JUMPDEST PUSH2 0x308A PUSH1 0x60 DUP4 ADD DUP6 PUSH2 0x22B6 JUMP JUMPDEST PUSH2 0x3097 PUSH1 0x80 DUP4 ADD DUP5 PUSH2 0x22B6 JUMP JUMPDEST SWAP7 SWAP6 POP POP POP POP POP POP JUMP JUMPDEST PUSH32 0x4D7573742062652070726F706F736564206F776E657200000000000000000000 PUSH1 0x0 DUP3 ADD MSTORE POP JUMP JUMPDEST PUSH1 0x0 PUSH2 0x30D7 PUSH1 0x16 DUP4 PUSH2 0x2BFF JUMP JUMPDEST SWAP2 POP PUSH2 0x30E2 DUP3 PUSH2 0x30A1 JUMP JUMPDEST PUSH1 0x20 DUP3 ADD SWAP1 POP SWAP2 SWAP1 POP JUMP JUMPDEST PUSH1 0x0 PUSH1 0x20 DUP3 ADD SWAP1 POP DUP2 DUP2 SUB PUSH1 0x0 DUP4 ADD MSTORE PUSH2 0x3106 DUP2 PUSH2 0x30CA JUMP JUMPDEST SWAP1 POP SWAP2 SWAP1 POP JUMP JUMPDEST PUSH32 0x4E487B7100000000000000000000000000000000000000000000000000000000 PUSH1 0x0 MSTORE PUSH1 0x31 PUSH1 0x4 MSTORE PUSH1 0x24 PUSH1 0x0 REVERT JUMPDEST PUSH1 0x0 PUSH2 0x3147 DUP3 PUSH2 0x23DF JUMP JUMPDEST SWAP2 POP PUSH8 0xFFFFFFFFFFFFFFFF DUP3 SUB PUSH2 0x3161 JUMPI PUSH2 0x3160 PUSH2 0x2EB6 JUMP JUMPDEST JUMPDEST PUSH1 0x1 DUP3 ADD SWAP1 POP SWAP2 SWAP1 POP JUMP JUMPDEST PUSH1 0x0 PUSH2 0x3177 DUP3 PUSH2 0x26EF JUMP JUMPDEST SWAP2 POP PUSH2 0x3182 DUP4 PUSH2 0x26EF JUMP JUMPDEST SWAP3 POP DUP3 DUP3 ADD SWAP1 POP PUSH12 0xFFFFFFFFFFFFFFFFFFFFFFFF DUP2 GT ISZERO PUSH2 0x31A6 JUMPI PUSH2 0x31A5 PUSH2 0x2EB6 JUMP JUMPDEST JUMPDEST SWAP3 SWAP2 POP POP JUMP JUMPDEST PUSH1 0x0 DUP2 SWAP1 POP SWAP2 SWAP1 POP JUMP JUMPDEST PUSH1 0x0 PUSH2 0x31D1 PUSH2 0x31CC PUSH2 0x31C7 DUP5 PUSH2 0x26EF JUMP JUMPDEST PUSH2 0x31AC JUMP JUMPDEST PUSH2 0x24BD JUMP JUMPDEST SWAP1 POP SWAP2 SWAP1 POP JUMP JUMPDEST PUSH2 0x31E1 DUP2 PUSH2 0x31B6 JUMP JUMPDEST DUP3 MSTORE POP POP JUMP JUMPDEST PUSH1 0x0 PUSH1 0x40 DUP3 ADD SWAP1 POP PUSH2 0x31FC PUSH1 0x0 DUP4 ADD DUP6 PUSH2 0x31D8 JUMP JUMPDEST PUSH2 0x3209 PUSH1 0x20 DUP4 ADD DUP5 PUSH2 0x31D8 JUMP JUMPDEST SWAP4 SWAP3 POP POP POP JUMP JUMPDEST PUSH1 0x0 PUSH1 0x40 DUP3 ADD SWAP1 POP PUSH2 0x3225 PUSH1 0x0 DUP4 ADD DUP6 PUSH2 0x298D JUMP JUMPDEST PUSH2 0x3232 PUSH1 0x20 DUP4 ADD DUP5 PUSH2 0x31D8 JUMP JUMPDEST SWAP4 SWAP3 POP POP POP JUMP JUMPDEST PUSH32 0x4F6E6C792063616C6C61626C65206279206F776E657200000000000000000000 PUSH1 0x0 DUP3 ADD MSTORE POP JUMP JUMPDEST PUSH1 0x0 PUSH2 0x326F PUSH1 0x16 DUP4 PUSH2 0x2BFF JUMP JUMPDEST SWAP2 POP PUSH2 0x327A DUP3 PUSH2 0x3239 JUMP JUMPDEST PUSH1 0x20 DUP3 ADD SWAP1 POP SWAP2 SWAP1 POP JUMP JUMPDEST PUSH1 0x0 PUSH1 0x20 DUP3 ADD SWAP1 POP DUP2 DUP2 SUB PUSH1 0x0 DUP4 ADD MSTORE PUSH2 0x329E DUP2 PUSH2 0x3262 JUMP JUMPDEST SWAP1 POP SWAP2 SWAP1 POP JUMP JUMPDEST PUSH32 0x43616E6E6F74207472616E7366657220746F2073656C66000000000000000000 PUSH1 0x0 DUP3 ADD MSTORE POP JUMP JUMPDEST PUSH1 0x0 PUSH2 0x32DB PUSH1 0x17 DUP4 PUSH2 0x2BFF JUMP JUMPDEST SWAP2 POP PUSH2 0x32E6 DUP3 PUSH2 0x32A5 JUMP JUMPDEST PUSH1 0x20 DUP3 ADD SWAP1 POP SWAP2 SWAP1 POP JUMP JUMPDEST PUSH1 0x0 PUSH1 0x20 DUP3 ADD SWAP1 POP DUP2 DUP2 SUB PUSH1 0x0 DUP4 ADD MSTORE PUSH2 0x330A DUP2 PUSH2 0x32CE JUMP JUMPDEST SWAP1 POP SWAP2 SWAP1 POP JUMP INVALID LOG2 PUSH5 0x6970667358 0x22 SLT KECCAK256 0xD3 PUSH15 0xDC0691CF04E25D495692A7EE4B1ADF PUSH21 0xF66D901EA94239D3FFAB5AB9668664736F6C634300 ADDMOD XOR STOP CALLER "},"gasEstimates":{"creation":{"codeDepositCost":"2625400","executionCost":"infinite","totalCost":"infinite"},"external":{"BASE_FEE()":"infinite","GAS_PRICE_LINK()":"infinite","MAX_CONSUMERS()":"infinite","acceptOwnership()":"54629","acceptSubscriptionOwnerTransfer(uint64)":"833","addConsumer(uint64,address)":"infinite","cancelSubscription(uint64,address)":"infinite","consumerIsAdded(uint64,address)":"infinite","createSubscription()":"infinite","fulfillRandomWords(uint256,address)":"infinite","fulfillRandomWordsWithOverride(uint256,address,uint256[])":"infinite","fundSubscription(uint64,uint96)":"infinite","getConfig()":"infinite","getFallbackWeiPerUnitLink()":"427","getFeeConfig()":"infinite","getRequestConfig()":"908","getSubscription(uint64)":"infinite","owner()":"2567","pendingRequestExists(uint64)":"791","removeConsumer(uint64,address)":"infinite","requestRandomWords(bytes32,uint64,uint16,uint32,uint32)":"infinite","requestSubscriptionOwnerTransfer(uint64,address)":"966","setConfig()":"27474","transferOwnership(address)":"30786"}},"methodIdentifiers":{"BASE_FEE()":"3d18651e","GAS_PRICE_LINK()":"a410347f","MAX_CONSUMERS()":"64d51a2a","acceptOwnership()":"79ba5097","acceptSubscriptionOwnerTransfer(uint64)":"82359740","addConsumer(uint64,address)":"7341c10c","cancelSubscription(uint64,address)":"d7ae1d30","consumerIsAdded(uint64,address)":"ed5eb06d","createSubscription()":"a21a23e4","fulfillRandomWords(uint256,address)":"808974ff","fulfillRandomWordsWithOverride(uint256,address,uint256[])":"08e3898e","fundSubscription(uint64,uint96)":"afc69b53","getConfig()":"c3f909d4","getFallbackWeiPerUnitLink()":"356dac71","getFeeConfig()":"5fbbc0d2","getRequestConfig()":"00012291","getSubscription(uint64)":"a47c7696","owner()":"8da5cb5b","pendingRequestExists(uint64)":"e82ad7d4","removeConsumer(uint64,address)":"9f87fad7","requestRandomWords(bytes32,uint64,uint16,uint32,uint32)":"5d3b1d30","requestSubscriptionOwnerTransfer(uint64,address)":"04c357cb","setConfig()":"8b673e7a","transferOwnership(address)":"f2fde38b"}},"storageLayout":{"storage":[{"astId":29,"contract":"@chainlink/contracts/src/v0.8/vrf/mocks/VRFCoordinatorV2Mock.sol:VRFCoordinatorV2Mock","label":"s_owner","offset":0,"slot":"0","type":"t_address"},{"astId":31,"contract":"@chainlink/contracts/src/v0.8/vrf/mocks/VRFCoordinatorV2Mock.sol:VRFCoordinatorV2Mock","label":"s_pendingOwner","offset":0,"slot":"1","type":"t_address"},{"astId":458,"contract":"@chainlink/contracts/src/v0.8/vrf/mocks/VRFCoordinatorV2Mock.sol:VRFCoordinatorV2Mock","label":"s_config","offset":0,"slot":"2","type":"t_struct(Config)455_storage"},{"astId":460,"contract":"@chainlink/contracts/src/v0.8/vrf/mocks/VRFCoordinatorV2Mock.sol:VRFCoordinatorV2Mock","label":"s_currentSubId","offset":0,"slot":"3","type":"t_uint64"},{"astId":463,"contract":"@chainlink/contracts/src/v0.8/vrf/mocks/VRFCoordinatorV2Mock.sol:VRFCoordinatorV2Mock","label":"s_nextRequestId","offset":0,"slot":"4","type":"t_uint256"},{"astId":466,"contract":"@chainlink/contracts/src/v0.8/vrf/mocks/VRFCoordinatorV2Mock.sol:VRFCoordinatorV2Mock","label":"s_nextPreSeed","offset":0,"slot":"5","type":"t_uint256"},{"astId":476,"contract":"@chainlink/contracts/src/v0.8/vrf/mocks/VRFCoordinatorV2Mock.sol:VRFCoordinatorV2Mock","label":"s_subscriptions","offset":0,"slot":"6","type":"t_mapping(t_uint64,t_struct(Subscription)471_storage)"},{"astId":481,"contract":"@chainlink/contracts/src/v0.8/vrf/mocks/VRFCoordinatorV2Mock.sol:VRFCoordinatorV2Mock","label":"s_consumers","offset":0,"slot":"7","type":"t_mapping(t_uint64,t_array(t_address)dyn_storage)"},{"astId":493,"contract":"@chainlink/contracts/src/v0.8/vrf/mocks/VRFCoordinatorV2Mock.sol:VRFCoordinatorV2Mock","label":"s_requests","offset":0,"slot":"8","type":"t_mapping(t_uint256,t_struct(Request)488_storage)"}],"types":{"t_address":{"encoding":"inplace","label":"address","numberOfBytes":"20"},"t_array(t_address)dyn_storage":{"base":"t_address","encoding":"dynamic_array","label":"address[]","numberOfBytes":"32"},"t_bool":{"encoding":"inplace","label":"bool","numberOfBytes":"1"},"t_mapping(t_uint256,t_struct(Request)488_storage)":{"encoding":"mapping","key":"t_uint256","label":"mapping(uint256 => struct VRFCoordinatorV2Mock.Request)","numberOfBytes":"32","value":"t_struct(Request)488_storage"},"t_mapping(t_uint64,t_array(t_address)dyn_storage)":{"encoding":"mapping","key":"t_uint64","label":"mapping(uint64 => address[])","numberOfBytes":"32","value":"t_array(t_address)dyn_storage"},"t_mapping(t_uint64,t_struct(Subscription)471_storage)":{"encoding":"mapping","key":"t_uint64","label":"mapping(uint64 => struct VRFCoordinatorV2Mock.Subscription)","numberOfBytes":"32","value":"t_struct(Subscription)471_storage"},"t_struct(Config)455_storage":{"encoding":"inplace","label":"struct VRFCoordinatorV2Mock.Config","members":[{"astId":454,"contract":"@chainlink/contracts/src/v0.8/vrf/mocks/VRFCoordinatorV2Mock.sol:VRFCoordinatorV2Mock","label":"reentrancyLock","offset":0,"slot":"0","type":"t_bool"}],"numberOfBytes":"32"},"t_struct(Request)488_storage":{"encoding":"inplace","label":"struct VRFCoordinatorV2Mock.Request","members":[{"astId":483,"contract":"@chainlink/contracts/src/v0.8/vrf/mocks/VRFCoordinatorV2Mock.sol:VRFCoordinatorV2Mock","label":"subId","offset":0,"slot":"0","type":"t_uint64"},{"astId":485,"contract":"@chainlink/contracts/src/v0.8/vrf/mocks/VRFCoordinatorV2Mock.sol:VRFCoordinatorV2Mock","label":"callbackGasLimit","offset":8,"slot":"0","type":"t_uint32"},{"astId":487,"contract":"@chainlink/contracts/src/v0.8/vrf/mocks/VRFCoordinatorV2Mock.sol:VRFCoordinatorV2Mock","label":"numWords","offset":12,"slot":"0","type":"t_uint32"}],"numberOfBytes":"32"},"t_struct(Subscription)471_storage":{"encoding":"inplace","label":"struct VRFCoordinatorV2Mock.Subscription","members":[{"astId":468,"contract":"@chainlink/contracts/src/v0.8/vrf/mocks/VRFCoordinatorV2Mock.sol:VRFCoordinatorV2Mock","label":"owner","offset":0,"slot":"0","type":"t_address"},{"astId":470,"contract":"@chainlink/contracts/src/v0.8/vrf/mocks/VRFCoordinatorV2Mock.sol:VRFCoordinatorV2Mock","label":"balance","offset":20,"slot":"0","type":"t_uint96"}],"numberOfBytes":"32"},"t_uint256":{"encoding":"inplace","label":"uint256","numberOfBytes":"32"},"t_uint32":{"encoding":"inplace","label":"uint32","numberOfBytes":"4"},"t_uint64":{"encoding":"inplace","label":"uint64","numberOfBytes":"8"},"t_uint96":{"encoding":"inplace","label":"uint96","numberOfBytes":"12"}}},"userdoc":{"kind":"user","methods":{"acceptOwnership()":{"notice":"Allows an ownership transfer to be completed by the recipient."},"createSubscription()":{"notice":"Create a VRF subscription."},"fulfillRandomWords(uint256,address)":{"notice":"fulfillRandomWords fulfills the given request, sending the random words to the suppliedconsumer."},"fulfillRandomWordsWithOverride(uint256,address,uint256[])":{"notice":"fulfillRandomWordsWithOverride allows the user to pass in their own random words."},"fundSubscription(uint64,uint96)":{"notice":"fundSubscription allows funding a subscription with an arbitrary amount for testing."},"getRequestConfig()":{"notice":"Get configuration relevant for making requests"},"owner()":{"notice":"Get the current owner"},"setConfig()":{"notice":"Sets the configuration of the vrfv2 mock coordinator"},"transferOwnership(address)":{"notice":"Allows an owner to begin transferring ownership to a new address."}},"version":1}}}}