{
  "_format": "hh-sol-artifact-1",
  "contractName": "RandomIPFS_NFT",
  "sourceName": "contracts/RandomIPFS_NFT.sol",
  "abi": [
    {
      "inputs": [
        {
          "internalType": "address",
          "name": "vrfCoordinatorV2",
          "type": "address"
        },
        {
          "internalType": "bytes32",
          "name": "keyHash",
          "type": "bytes32"
        },
        {
          "internalType": "uint64",
          "name": "subscriptionId",
          "type": "uint64"
        },
        {
          "internalType": "uint32",
          "name": "callbackGasLimit",
          "type": "uint32"
        },
        {
          "internalType": "string[3]",
          "name": "NFT_TokenURIs",
          "type": "string[3]"
        },
        {
          "internalType": "uint256",
          "name": "mintFee",
          "type": "uint256"
        }
      ],
      "stateMutability": "nonpayable",
      "type": "constructor"
    },
    {
      "inputs": [
        {
          "internalType": "address",
          "name": "have",
          "type": "address"
        },
        {
          "internalType": "address",
          "name": "want",
          "type": "address"
        }
      ],
      "name": "OnlyCoordinatorCanFulfill",
      "type": "error"
    },
    {
      "inputs": [],
      "name": "RandomIPFS_NFT__NotEnoughETH",
      "type": "error"
    },
    {
      "inputs": [],
      "name": "RandomIPFS_NFT__RangeOutOfBounds",
      "type": "error"
    },
    {
      "inputs": [],
      "name": "RandomIPFS_NFT__WithdrawFailed",
      "type": "error"
    },
    {
      "anonymous": false,
      "inputs": [
        {
          "indexed": true,
          "internalType": "address",
          "name": "owner",
          "type": "address"
        },
        {
          "indexed": true,
          "internalType": "address",
          "name": "approved",
          "type": "address"
        },
        {
          "indexed": true,
          "internalType": "uint256",
          "name": "tokenId",
          "type": "uint256"
        }
      ],
      "name": "Approval",
      "type": "event"
    },
    {
      "anonymous": false,
      "inputs": [
        {
          "indexed": true,
          "internalType": "address",
          "name": "owner",
          "type": "address"
        },
        {
          "indexed": true,
          "internalType": "address",
          "name": "operator",
          "type": "address"
        },
        {
          "indexed": false,
          "internalType": "bool",
          "name": "approved",
          "type": "bool"
        }
      ],
      "name": "ApprovalForAll",
      "type": "event"
    },
    {
      "anonymous": false,
      "inputs": [
        {
          "indexed": false,
          "internalType": "enum RandomIPFS_NFT.Breed",
          "name": "breed",
          "type": "uint8"
        },
        {
          "indexed": false,
          "internalType": "address",
          "name": "minter",
          "type": "address"
        }
      ],
      "name": "NFT_Minted",
      "type": "event"
    },
    {
      "anonymous": false,
      "inputs": [
        {
          "indexed": true,
          "internalType": "uint256",
          "name": "reqID",
          "type": "uint256"
        },
        {
          "indexed": false,
          "internalType": "address",
          "name": "requester",
          "type": "address"
        }
      ],
      "name": "NFT_Requested",
      "type": "event"
    },
    {
      "anonymous": false,
      "inputs": [
        {
          "indexed": true,
          "internalType": "address",
          "name": "previousOwner",
          "type": "address"
        },
        {
          "indexed": true,
          "internalType": "address",
          "name": "newOwner",
          "type": "address"
        }
      ],
      "name": "OwnershipTransferred",
      "type": "event"
    },
    {
      "anonymous": false,
      "inputs": [
        {
          "indexed": true,
          "internalType": "address",
          "name": "from",
          "type": "address"
        },
        {
          "indexed": true,
          "internalType": "address",
          "name": "to",
          "type": "address"
        },
        {
          "indexed": true,
          "internalType": "uint256",
          "name": "tokenId",
          "type": "uint256"
        }
      ],
      "name": "Transfer",
      "type": "event"
    },
    {
      "inputs": [
        {
          "internalType": "address",
          "name": "to",
          "type": "address"
        },
        {
          "internalType": "uint256",
          "name": "tokenId",
          "type": "uint256"
        }
      ],
      "name": "approve",
      "outputs": [],
      "stateMutability": "nonpayable",
      "type": "function"
    },
    {
      "inputs": [
        {
          "internalType": "address",
          "name": "owner",
          "type": "address"
        }
      ],
      "name": "balanceOf",
      "outputs": [
        {
          "internalType": "uint256",
          "name": "",
          "type": "uint256"
        }
      ],
      "stateMutability": "view",
      "type": "function"
    },
    {
      "inputs": [
        {
          "internalType": "uint256",
          "name": "tokenId",
          "type": "uint256"
        }
      ],
      "name": "getApproved",
      "outputs": [
        {
          "internalType": "address",
          "name": "",
          "type": "address"
        }
      ],
      "stateMutability": "view",
      "type": "function"
    },
    {
      "inputs": [
        {
          "internalType": "uint256",
          "name": "moddedChance",
          "type": "uint256"
        }
      ],
      "name": "getBreedFromNumber",
      "outputs": [
        {
          "internalType": "enum RandomIPFS_NFT.Breed",
          "name": "",
          "type": "uint8"
        }
      ],
      "stateMutability": "pure",
      "type": "function"
    },
    {
      "inputs": [],
      "name": "getChanceArray",
      "outputs": [
        {
          "internalType": "uint256[3]",
          "name": "",
          "type": "uint256[3]"
        }
      ],
      "stateMutability": "pure",
      "type": "function"
    },
    {
      "inputs": [],
      "name": "getMintFee",
      "outputs": [
        {
          "internalType": "uint256",
          "name": "",
          "type": "uint256"
        }
      ],
      "stateMutability": "view",
      "type": "function"
    },
    {
      "inputs": [
        {
          "internalType": "uint256",
          "name": "i",
          "type": "uint256"
        }
      ],
      "name": "getNFT_TokenURIs",
      "outputs": [
        {
          "internalType": "string",
          "name": "",
          "type": "string"
        }
      ],
      "stateMutability": "view",
      "type": "function"
    },
    {
      "inputs": [],
      "name": "getTokenCounter",
      "outputs": [
        {
          "internalType": "uint256",
          "name": "",
          "type": "uint256"
        }
      ],
      "stateMutability": "view",
      "type": "function"
    },
    {
      "inputs": [
        {
          "internalType": "address",
          "name": "owner",
          "type": "address"
        },
        {
          "internalType": "address",
          "name": "operator",
          "type": "address"
        }
      ],
      "name": "isApprovedForAll",
      "outputs": [
        {
          "internalType": "bool",
          "name": "",
          "type": "bool"
        }
      ],
      "stateMutability": "view",
      "type": "function"
    },
    {
      "inputs": [],
      "name": "name",
      "outputs": [
        {
          "internalType": "string",
          "name": "",
          "type": "string"
        }
      ],
      "stateMutability": "view",
      "type": "function"
    },
    {
      "inputs": [],
      "name": "owner",
      "outputs": [
        {
          "internalType": "address",
          "name": "",
          "type": "address"
        }
      ],
      "stateMutability": "view",
      "type": "function"
    },
    {
      "inputs": [
        {
          "internalType": "uint256",
          "name": "tokenId",
          "type": "uint256"
        }
      ],
      "name": "ownerOf",
      "outputs": [
        {
          "internalType": "address",
          "name": "",
          "type": "address"
        }
      ],
      "stateMutability": "view",
      "type": "function"
    },
    {
      "inputs": [
        {
          "internalType": "uint256",
          "name": "requestId",
          "type": "uint256"
        },
        {
          "internalType": "uint256[]",
          "name": "randomWords",
          "type": "uint256[]"
        }
      ],
      "name": "rawFulfillRandomWords",
      "outputs": [],
      "stateMutability": "nonpayable",
      "type": "function"
    },
    {
      "inputs": [],
      "name": "renounceOwnership",
      "outputs": [],
      "stateMutability": "nonpayable",
      "type": "function"
    },
    {
      "inputs": [],
      "name": "requestNFT",
      "outputs": [
        {
          "internalType": "uint256",
          "name": "requestID",
          "type": "uint256"
        }
      ],
      "stateMutability": "payable",
      "type": "function"
    },
    {
      "inputs": [
        {
          "internalType": "uint256",
          "name": "",
          "type": "uint256"
        }
      ],
      "name": "s_reqID_caller",
      "outputs": [
        {
          "internalType": "address",
          "name": "",
          "type": "address"
        }
      ],
      "stateMutability": "view",
      "type": "function"
    },
    {
      "inputs": [],
      "name": "s_tokenCounter",
      "outputs": [
        {
          "internalType": "uint256",
          "name": "",
          "type": "uint256"
        }
      ],
      "stateMutability": "view",
      "type": "function"
    },
    {
      "inputs": [
        {
          "internalType": "address",
          "name": "from",
          "type": "address"
        },
        {
          "internalType": "address",
          "name": "to",
          "type": "address"
        },
        {
          "internalType": "uint256",
          "name": "tokenId",
          "type": "uint256"
        }
      ],
      "name": "safeTransferFrom",
      "outputs": [],
      "stateMutability": "nonpayable",
      "type": "function"
    },
    {
      "inputs": [
        {
          "internalType": "address",
          "name": "from",
          "type": "address"
        },
        {
          "internalType": "address",
          "name": "to",
          "type": "address"
        },
        {
          "internalType": "uint256",
          "name": "tokenId",
          "type": "uint256"
        },
        {
          "internalType": "bytes",
          "name": "data",
          "type": "bytes"
        }
      ],
      "name": "safeTransferFrom",
      "outputs": [],
      "stateMutability": "nonpayable",
      "type": "function"
    },
    {
      "inputs": [
        {
          "internalType": "address",
          "name": "operator",
          "type": "address"
        },
        {
          "internalType": "bool",
          "name": "approved",
          "type": "bool"
        }
      ],
      "name": "setApprovalForAll",
      "outputs": [],
      "stateMutability": "nonpayable",
      "type": "function"
    },
    {
      "inputs": [
        {
          "internalType": "bytes4",
          "name": "interfaceId",
          "type": "bytes4"
        }
      ],
      "name": "supportsInterface",
      "outputs": [
        {
          "internalType": "bool",
          "name": "",
          "type": "bool"
        }
      ],
      "stateMutability": "view",
      "type": "function"
    },
    {
      "inputs": [],
      "name": "symbol",
      "outputs": [
        {
          "internalType": "string",
          "name": "",
          "type": "string"
        }
      ],
      "stateMutability": "view",
      "type": "function"
    },
    {
      "inputs": [
        {
          "internalType": "uint256",
          "name": "tokenId",
          "type": "uint256"
        }
      ],
      "name": "tokenURI",
      "outputs": [
        {
          "internalType": "string",
          "name": "",
          "type": "string"
        }
      ],
      "stateMutability": "view",
      "type": "function"
    },
    {
      "inputs": [
        {
          "internalType": "address",
          "name": "from",
          "type": "address"
        },
        {
          "internalType": "address",
          "name": "to",
          "type": "address"
        },
        {
          "internalType": "uint256",
          "name": "tokenId",
          "type": "uint256"
        }
      ],
      "name": "transferFrom",
      "outputs": [],
      "stateMutability": "nonpayable",
      "type": "function"
    },
    {
      "inputs": [
        {
          "internalType": "address",
          "name": "newOwner",
          "type": "address"
        }
      ],
      "name": "transferOwnership",
      "outputs": [],
      "stateMutability": "nonpayable",
      "type": "function"
    },
    {
      "inputs": [],
      "name": "withdraw",
      "outputs": [],
      "stateMutability": "nonpayable",
      "type": "function"
    }
  ],
  "bytecode": "0x6101206040523480156200001257600080fd5b506040516200463b3803806200463b83398181016040528101906200003891906200074d565b6040518060400160405280600f81526020017f52616e646f6d2049504653204e465400000000000000000000000000000000008152506040518060400160405280600381526020017f52494e0000000000000000000000000000000000000000000000000000000000815250878073ffffffffffffffffffffffffffffffffffffffff1660808173ffffffffffffffffffffffffffffffffffffffff1681525050508160009081620000eb919062000a49565b508060019081620000fd919062000a49565b5050506200012062000114620001b460201b60201c565b620001bc60201b60201c565b8573ffffffffffffffffffffffffffffffffffffffff1660a08173ffffffffffffffffffffffffffffffffffffffff16815250508460c081815250508367ffffffffffffffff1660e08167ffffffffffffffff16815250508263ffffffff166101008163ffffffff16815250508060088190555081600b906003620001a792919062000282565b5050505050505062000b30565b600033905090565b6000600760009054906101000a900473ffffffffffffffffffffffffffffffffffffffff16905081600760006101000a81548173ffffffffffffffffffffffffffffffffffffffff021916908373ffffffffffffffffffffffffffffffffffffffff1602179055508173ffffffffffffffffffffffffffffffffffffffff168173ffffffffffffffffffffffffffffffffffffffff167f8be0079c531659141344cd1fd0a4f28419497f9722a3daafe3b4186f6b6457e060405160405180910390a35050565b828054828255906000526020600020908101928215620002cf579160200282015b82811115620002ce578251829081620002bd919062000a49565b5091602001919060010190620002a3565b5b509050620002de9190620002e2565b5090565b5b80821115620003065760008181620002fc91906200030a565b50600101620002e3565b5090565b508054620003189062000842565b6000825580601f106200032c57506200034d565b601f0160209004906000526020600020908101906200034c919062000350565b5b50565b5b808211156200036b57600081600090555060010162000351565b5090565b6000604051905090565b600080fd5b600080fd5b600073ffffffffffffffffffffffffffffffffffffffff82169050919050565b6000620003b08262000383565b9050919050565b620003c281620003a3565b8114620003ce57600080fd5b50565b600081519050620003e281620003b7565b92915050565b6000819050919050565b620003fd81620003e8565b81146200040957600080fd5b50565b6000815190506200041d81620003f2565b92915050565b600067ffffffffffffffff82169050919050565b620004428162000423565b81146200044e57600080fd5b50565b600081519050620004628162000437565b92915050565b600063ffffffff82169050919050565b620004838162000468565b81146200048f57600080fd5b50565b600081519050620004a38162000478565b92915050565b600080fd5b6000601f19601f8301169050919050565b7f4e487b7100000000000000000000000000000000000000000000000000000000600052604160045260246000fd5b620004f982620004ae565b810181811067ffffffffffffffff821117156200051b576200051a620004bf565b5b80604052505050565b6000620005306200036f565b90506200053e8282620004ee565b919050565b600067ffffffffffffffff821115620005615762000560620004bf565b5b602082029050919050565b600080fd5b600080fd5b600067ffffffffffffffff821115620005945762000593620004bf565b5b6200059f82620004ae565b9050602081019050919050565b60005b83811015620005cc578082015181840152602081019050620005af565b60008484015250505050565b6000620005ef620005e98462000576565b62000524565b9050828152602081018484840111156200060e576200060d62000571565b5b6200061b848285620005ac565b509392505050565b600082601f8301126200063b576200063a620004a9565b5b81516200064d848260208601620005d8565b91505092915050565b60006200066d620006678462000543565b62000524565b905080602084028301858111156200068a57620006896200056c565b5b835b81811015620006d857805167ffffffffffffffff811115620006b357620006b2620004a9565b5b808601620006c2898262000623565b855260208501945050506020810190506200068c565b5050509392505050565b600082601f830112620006fa57620006f9620004a9565b5b60036200070984828562000656565b91505092915050565b6000819050919050565b620007278162000712565b81146200073357600080fd5b50565b60008151905062000747816200071c565b92915050565b60008060008060008060c087890312156200076d576200076c62000379565b5b60006200077d89828a01620003d1565b96505060206200079089828a016200040c565b9550506040620007a389828a0162000451565b9450506060620007b689828a0162000492565b935050608087015167ffffffffffffffff811115620007da57620007d96200037e565b5b620007e889828a01620006e2565b92505060a0620007fb89828a0162000736565b9150509295509295509295565b600081519050919050565b7f4e487b7100000000000000000000000000000000000000000000000000000000600052602260045260246000fd5b600060028204905060018216806200085b57607f821691505b60208210810362000871576200087062000813565b5b50919050565b60008190508160005260206000209050919050565b60006020601f8301049050919050565b600082821b905092915050565b600060088302620008db7fffffffffffffffffffffffffffffffffffffffffffffffffffffffffffffffff826200089c565b620008e786836200089c565b95508019841693508086168417925050509392505050565b6000819050919050565b60006200092a620009246200091e8462000712565b620008ff565b62000712565b9050919050565b6000819050919050565b620009468362000909565b6200095e620009558262000931565b848454620008a9565b825550505050565b600090565b6200097562000966565b620009828184846200093b565b505050565b5b81811015620009aa576200099e6000826200096b565b60018101905062000988565b5050565b601f821115620009f957620009c38162000877565b620009ce846200088c565b81016020851015620009de578190505b620009f6620009ed856200088c565b83018262000987565b50505b505050565b600082821c905092915050565b600062000a1e60001984600802620009fe565b1980831691505092915050565b600062000a39838362000a0b565b9150826002028217905092915050565b62000a548262000808565b67ffffffffffffffff81111562000a705762000a6f620004bf565b5b62000a7c825462000842565b62000a89828285620009ae565b600060209050601f83116001811462000ac1576000841562000aac578287015190505b62000ab8858262000a2b565b86555062000b28565b601f19841662000ad18662000877565b60005b8281101562000afb5784890151825560018201915060208501945060208101905062000ad4565b8683101562000b1b578489015162000b17601f89168262000a0b565b8355505b6001600288020188555050505b505050505050565b60805160a05160c05160e05161010051613abf62000b7c6000396000610e6c01526000610e4901526000610e2801526000610dec01526000818161091c01526109700152613abf6000f3fe6080604052600436106101815760003560e01c806370a08231116100d157806395d89b411161008a578063c87b56dd11610064578063c87b56dd14610563578063e985e9c5146105a0578063ecc190d3146105dd578063f2fde38b1461061a57610181565b806395d89b41146104e6578063a22cb46514610511578063b88d4fde1461053a57610181565b806370a08231146103e15780637142fb1c1461041e578063715018a61461045b5780637a5caab3146104725780637abd25d11461049d5780638da5cb5b146104bb57610181565b806323b872dd1161013e5780634daf8384116101185780634daf8384146103115780635dacf5f41461034e5780636352211e146103795780636e02007d146103b657610181565b806323b872dd146102a85780633ccfd60b146102d157806342842e0e146102e857610181565b806301ffc9a71461018657806306fdde03146101c3578063081812fc146101ee578063095ea7b31461022b5780630b21a83b146102545780631fe543e31461027f575b600080fd5b34801561019257600080fd5b506101ad60048036038101906101a8919061241c565b610643565b6040516101ba9190612464565b60405180910390f35b3480156101cf57600080fd5b506101d8610725565b6040516101e5919061250f565b60405180910390f35b3480156101fa57600080fd5b5061021560048036038101906102109190612567565b6107b7565b60405161022291906125d5565b60405180910390f35b34801561023757600080fd5b50610252600480360381019061024d919061261c565b6107fd565b005b34801561026057600080fd5b50610269610914565b604051610276919061266b565b60405180910390f35b34801561028b57600080fd5b506102a660048036038101906102a191906127ce565b61091a565b005b3480156102b457600080fd5b506102cf60048036038101906102ca919061282a565b6109da565b005b3480156102dd57600080fd5b506102e6610a3a565b005b3480156102f457600080fd5b5061030f600480360381019061030a919061282a565b610aee565b005b34801561031d57600080fd5b5061033860048036038101906103339190612567565b610b0e565b604051610345919061250f565b60405180910390f35b34801561035a57600080fd5b50610363610bbe565b6040516103709190612928565b60405180910390f35b34801561038557600080fd5b506103a0600480360381019061039b9190612567565b610be9565b6040516103ad91906125d5565b60405180910390f35b3480156103c257600080fd5b506103cb610c9a565b6040516103d8919061266b565b60405180910390f35b3480156103ed57600080fd5b5061040860048036038101906104039190612943565b610ca4565b604051610415919061266b565b60405180910390f35b34801561042a57600080fd5b5061044560048036038101906104409190612567565b610d5b565b60405161045291906125d5565b60405180910390f35b34801561046757600080fd5b50610470610d8e565b005b34801561047e57600080fd5b50610487610da2565b604051610494919061266b565b60405180910390f35b6104a5610dac565b6040516104b2919061266b565b60405180910390f35b3480156104c757600080fd5b506104d0610f7f565b6040516104dd91906125d5565b60405180910390f35b3480156104f257600080fd5b506104fb610fa9565b604051610508919061250f565b60405180910390f35b34801561051d57600080fd5b506105386004803603810190610533919061299c565b61103b565b005b34801561054657600080fd5b50610561600480360381019061055c9190612a91565b611051565b005b34801561056f57600080fd5b5061058a60048036038101906105859190612567565b6110b3565b604051610597919061250f565b60405180910390f35b3480156105ac57600080fd5b506105c760048036038101906105c29190612b14565b6111c5565b6040516105d49190612464565b60405180910390f35b3480156105e957600080fd5b5061060460048036038101906105ff9190612567565b611259565b6040516106119190612bcb565b60405180910390f35b34801561062657600080fd5b50610641600480360381019061063c9190612943565b611330565b005b60007f80ac58cd000000000000000000000000000000000000000000000000000000007bffffffffffffffffffffffffffffffffffffffffffffffffffffffff1916827bffffffffffffffffffffffffffffffffffffffffffffffffffffffff1916148061070e57507f5b5e139f000000000000000000000000000000000000000000000000000000007bffffffffffffffffffffffffffffffffffffffffffffffffffffffff1916827bffffffffffffffffffffffffffffffffffffffffffffffffffffffff1916145b8061071e575061071d826113b3565b5b9050919050565b60606000805461073490612c15565b80601f016020809104026020016040519081016040528092919081815260200182805461076090612c15565b80156107ad5780601f10610782576101008083540402835291602001916107ad565b820191906000526020600020905b81548152906001019060200180831161079057829003601f168201915b5050505050905090565b60006107c28261141d565b6004600083815260200190815260200160002060009054906101000a900473ffffffffffffffffffffffffffffffffffffffff169050919050565b600061080882610be9565b90508073ffffffffffffffffffffffffffffffffffffffff168373ffffffffffffffffffffffffffffffffffffffff1603610878576040517f08c379a000000000000000000000000000000000000000000000000000000000815260040161086f90612cb8565b60405180910390fd5b8073ffffffffffffffffffffffffffffffffffffffff16610897611468565b73ffffffffffffffffffffffffffffffffffffffff1614806108c657506108c5816108c0611468565b6111c5565b5b610905576040517f08c379a00000000000000000000000000000000000000000000000000000000081526004016108fc90612d4a565b60405180910390fd5b61090f8383611470565b505050565b600a5481565b7f000000000000000000000000000000000000000000000000000000000000000073ffffffffffffffffffffffffffffffffffffffff163373ffffffffffffffffffffffffffffffffffffffff16146109cc57337f00000000000000000000000000000000000000000000000000000000000000006040517f1cf993f40000000000000000000000000000000000000000000000000000000081526004016109c3929190612d6a565b60405180910390fd5b6109d68282611529565b5050565b6109eb6109e5611468565b826116c9565b610a2a576040517f08c379a0000000000000000000000000000000000000000000000000000000008152600401610a2190612e05565b60405180910390fd5b610a3583838361175e565b505050565b610a426119c4565b600047905060003373ffffffffffffffffffffffffffffffffffffffff1682604051610a6d90612e56565b60006040518083038185875af1925050503d8060008114610aaa576040519150601f19603f3d011682016040523d82523d6000602084013e610aaf565b606091505b5050905080610aea576040517fac6757e100000000000000000000000000000000000000000000000000000000815260040160405180910390fd5b5050565b610b0983838360405180602001604052806000815250611051565b505050565b6060600b8281548110610b2457610b23612e6b565b5b906000526020600020018054610b3990612c15565b80601f0160208091040260200160405190810160405280929190818152602001828054610b6590612c15565b8015610bb25780601f10610b8757610100808354040283529160200191610bb2565b820191906000526020600020905b815481529060010190602001808311610b9557829003601f168201915b50505050509050919050565b610bc661238e565b6040518060600160405280600a8152602001601e81526020016064815250905090565b6000806002600084815260200190815260200160002060009054906101000a900473ffffffffffffffffffffffffffffffffffffffff169050600073ffffffffffffffffffffffffffffffffffffffff168173ffffffffffffffffffffffffffffffffffffffff1603610c91576040517f08c379a0000000000000000000000000000000000000000000000000000000008152600401610c8890612ee6565b60405180910390fd5b80915050919050565b6000600a54905090565b60008073ffffffffffffffffffffffffffffffffffffffff168273ffffffffffffffffffffffffffffffffffffffff1603610d14576040517f08c379a0000000000000000000000000000000000000000000000000000000008152600401610d0b90612f78565b60405180910390fd5b600360008373ffffffffffffffffffffffffffffffffffffffff1673ffffffffffffffffffffffffffffffffffffffff168152602001908152602001600020549050919050565b60096020528060005260406000206000915054906101000a900473ffffffffffffffffffffffffffffffffffffffff1681565b610d966119c4565b610da06000611a42565b565b6000600854905090565b6000600854341015610dea576040517f97a1f2be00000000000000000000000000000000000000000000000000000000815260040160405180910390fd5b7f000000000000000000000000000000000000000000000000000000000000000073ffffffffffffffffffffffffffffffffffffffff16635d3b1d307f00000000000000000000000000000000000000000000000000000000000000007f000000000000000000000000000000000000000000000000000000000000000060037f000000000000000000000000000000000000000000000000000000000000000060016040518663ffffffff1660e01b8152600401610ead959493929190613010565b6020604051808303816000875af1158015610ecc573d6000803e3d6000fd5b505050506040513d601f19601f82011682018060405250810190610ef09190613078565b9050336009600083815260200190815260200160002060006101000a81548173ffffffffffffffffffffffffffffffffffffffff021916908373ffffffffffffffffffffffffffffffffffffffff160217905550807f4823f4df3f460006009e39e89a1e0269b496b8303069af3688800a534a1315ac33604051610f7491906125d5565b60405180910390a290565b6000600760009054906101000a900473ffffffffffffffffffffffffffffffffffffffff16905090565b606060018054610fb890612c15565b80601f0160208091040260200160405190810160405280929190818152602001828054610fe490612c15565b80156110315780601f1061100657610100808354040283529160200191611031565b820191906000526020600020905b81548152906001019060200180831161101457829003601f168201915b5050505050905090565b61104d611046611468565b8383611b08565b5050565b61106261105c611468565b836116c9565b6110a1576040517f08c379a000000000000000000000000000000000000000000000000000000000815260040161109890612e05565b60405180910390fd5b6110ad84848484611c74565b50505050565b60606110be8261141d565b60006006600084815260200190815260200160002080546110de90612c15565b80601f016020809104026020016040519081016040528092919081815260200182805461110a90612c15565b80156111575780601f1061112c57610100808354040283529160200191611157565b820191906000526020600020905b81548152906001019060200180831161113a57829003601f168201915b505050505090506000611168611cd0565b9050600081510361117d5781925050506111c0565b6000825111156111b257808260405160200161119a9291906130e1565b604051602081830303815290604052925050506111c0565b6111bb84611ce7565b925050505b919050565b6000600560008473ffffffffffffffffffffffffffffffffffffffff1673ffffffffffffffffffffffffffffffffffffffff16815260200190815260200160002060008373ffffffffffffffffffffffffffffffffffffffff1673ffffffffffffffffffffffffffffffffffffffff16815260200190815260200160002060009054906101000a900460ff16905092915050565b600080611264610bbe565b90506000805b60038110156112f8578185101580156112a4575082816003811061129157611290612e6b565b5b6020020151826112a19190613134565b85105b156112c6578060028111156112bc576112bb612b54565b5b935050505061132b565b8281600381106112d9576112d8612e6b565b5b6020020151826112e99190613134565b9150808060010191505061126a565b506040517f7b11e31100000000000000000000000000000000000000000000000000000000815260040160405180910390fd5b919050565b6113386119c4565b600073ffffffffffffffffffffffffffffffffffffffff168173ffffffffffffffffffffffffffffffffffffffff16036113a7576040517f08c379a000000000000000000000000000000000000000000000000000000000815260040161139e906131da565b60405180910390fd5b6113b081611a42565b50565b60007f01ffc9a7000000000000000000000000000000000000000000000000000000007bffffffffffffffffffffffffffffffffffffffffffffffffffffffff1916827bffffffffffffffffffffffffffffffffffffffffffffffffffffffff1916149050919050565b61142681611d4f565b611465576040517f08c379a000000000000000000000000000000000000000000000000000000000815260040161145c90612ee6565b60405180910390fd5b50565b600033905090565b816004600083815260200190815260200160002060006101000a81548173ffffffffffffffffffffffffffffffffffffffff021916908373ffffffffffffffffffffffffffffffffffffffff160217905550808273ffffffffffffffffffffffffffffffffffffffff166114e383610be9565b73ffffffffffffffffffffffffffffffffffffffff167f8c5be1e5ebec7d5bd14f71427d1e84f3dd0314c0f7b2291e5b200ac8c7c3b92560405160405180910390a45050565b60006009600084815260200190815260200160002060009054906101000a900473ffffffffffffffffffffffffffffffffffffffff1690506000600a54905060006064846000815181106115805761157f612e6b565b5b60200260200101516115929190613229565b9050600061159f82611259565b90506115ab8484611dbb565b61166d83600b8360028111156115c4576115c3612b54565b5b815481106115d5576115d4612e6b565b5b9060005260206000200180546115ea90612c15565b80601f016020809104026020016040519081016040528092919081815260200182805461161690612c15565b80156116635780601f1061163857610100808354040283529160200191611663565b820191906000526020600020905b81548152906001019060200180831161164657829003601f168201915b5050505050611dd9565b600a54600a60008282546116819190613134565b925050819055507fd40e61b45bb7b3b44bb6ac152db508257ecf9dfbc6f62304a49f82a1bc3b6bfb81856040516116b992919061325a565b60405180910390a1505050505050565b6000806116d583610be9565b90508073ffffffffffffffffffffffffffffffffffffffff168473ffffffffffffffffffffffffffffffffffffffff161480611717575061171681856111c5565b5b8061175557508373ffffffffffffffffffffffffffffffffffffffff1661173d846107b7565b73ffffffffffffffffffffffffffffffffffffffff16145b91505092915050565b8273ffffffffffffffffffffffffffffffffffffffff1661177e82610be9565b73ffffffffffffffffffffffffffffffffffffffff16146117d4576040517f08c379a00000000000000000000000000000000000000000000000000000000081526004016117cb906132f5565b60405180910390fd5b600073ffffffffffffffffffffffffffffffffffffffff168273ffffffffffffffffffffffffffffffffffffffff1603611843576040517f08c379a000000000000000000000000000000000000000000000000000000000815260040161183a90613387565b60405180910390fd5b61184e838383611e46565b611859600082611470565b6001600360008573ffffffffffffffffffffffffffffffffffffffff1673ffffffffffffffffffffffffffffffffffffffff16815260200190815260200160002060008282546118a991906133a7565b925050819055506001600360008473ffffffffffffffffffffffffffffffffffffffff1673ffffffffffffffffffffffffffffffffffffffff16815260200190815260200160002060008282546119009190613134565b92505081905550816002600083815260200190815260200160002060006101000a81548173ffffffffffffffffffffffffffffffffffffffff021916908373ffffffffffffffffffffffffffffffffffffffff160217905550808273ffffffffffffffffffffffffffffffffffffffff168473ffffffffffffffffffffffffffffffffffffffff167fddf252ad1be2c89b69c2b068fc378daa952ba7f163c4a11628f55a4df523b3ef60405160405180910390a46119bf838383611e4b565b505050565b6119cc611468565b73ffffffffffffffffffffffffffffffffffffffff166119ea610f7f565b73ffffffffffffffffffffffffffffffffffffffff1614611a40576040517f08c379a0000000000000000000000000000000000000000000000000000000008152600401611a3790613427565b60405180910390fd5b565b6000600760009054906101000a900473ffffffffffffffffffffffffffffffffffffffff16905081600760006101000a81548173ffffffffffffffffffffffffffffffffffffffff021916908373ffffffffffffffffffffffffffffffffffffffff1602179055508173ffffffffffffffffffffffffffffffffffffffff168173ffffffffffffffffffffffffffffffffffffffff167f8be0079c531659141344cd1fd0a4f28419497f9722a3daafe3b4186f6b6457e060405160405180910390a35050565b8173ffffffffffffffffffffffffffffffffffffffff168373ffffffffffffffffffffffffffffffffffffffff1603611b76576040517f08c379a0000000000000000000000000000000000000000000000000000000008152600401611b6d90613493565b60405180910390fd5b80600560008573ffffffffffffffffffffffffffffffffffffffff1673ffffffffffffffffffffffffffffffffffffffff16815260200190815260200160002060008473ffffffffffffffffffffffffffffffffffffffff1673ffffffffffffffffffffffffffffffffffffffff16815260200190815260200160002060006101000a81548160ff0219169083151502179055508173ffffffffffffffffffffffffffffffffffffffff168373ffffffffffffffffffffffffffffffffffffffff167f17307eab39ab6107e8899845ad3d59bd9653f200f220920489ca2b5937696c3183604051611c679190612464565b60405180910390a3505050565b611c7f84848461175e565b611c8b84848484611e50565b611cca576040517f08c379a0000000000000000000000000000000000000000000000000000000008152600401611cc190613525565b60405180910390fd5b50505050565b606060405180602001604052806000815250905090565b6060611cf28261141d565b6000611cfc611cd0565b90506000815111611d1c5760405180602001604052806000815250611d47565b80611d2684611fd7565b604051602001611d379291906130e1565b6040516020818303038152906040525b915050919050565b60008073ffffffffffffffffffffffffffffffffffffffff166002600084815260200190815260200160002060009054906101000a900473ffffffffffffffffffffffffffffffffffffffff1673ffffffffffffffffffffffffffffffffffffffff1614159050919050565b611dd5828260405180602001604052806000815250612137565b5050565b611de282611d4f565b611e21576040517f08c379a0000000000000000000000000000000000000000000000000000000008152600401611e18906135b7565b60405180910390fd5b80600660008481526020019081526020016000209081611e419190613783565b505050565b505050565b505050565b6000611e718473ffffffffffffffffffffffffffffffffffffffff16612192565b15611fca578373ffffffffffffffffffffffffffffffffffffffff1663150b7a02611e9a611468565b8786866040518563ffffffff1660e01b8152600401611ebc94939291906138aa565b6020604051808303816000875af1925050508015611ef857506040513d601f19601f82011682018060405250810190611ef5919061390b565b60015b611f7a573d8060008114611f28576040519150601f19603f3d011682016040523d82523d6000602084013e611f2d565b606091505b506000815103611f72576040517f08c379a0000000000000000000000000000000000000000000000000000000008152600401611f6990613525565b60405180910390fd5b805181602001fd5b63150b7a0260e01b7bffffffffffffffffffffffffffffffffffffffffffffffffffffffff1916817bffffffffffffffffffffffffffffffffffffffffffffffffffffffff191614915050611fcf565b600190505b949350505050565b60606000820361201e576040518060400160405280600181526020017f30000000000000000000000000000000000000000000000000000000000000008152509050612132565b600082905060005b6000821461205057808061203990613938565b915050600a826120499190613980565b9150612026565b60008167ffffffffffffffff81111561206c5761206b61268b565b5b6040519080825280601f01601f19166020018201604052801561209e5781602001600182028036833780820191505090505b5090505b6000851461212b576001826120b791906133a7565b9150600a856120c69190613229565b60306120d29190613134565b60f81b8183815181106120e8576120e7612e6b565b5b60200101907effffffffffffffffffffffffffffffffffffffffffffffffffffffffffffff1916908160001a905350600a856121249190613980565b94506120a2565b8093505050505b919050565b61214183836121b5565b61214e6000848484611e50565b61218d576040517f08c379a000000000000000000000000000000000000000000000000000000000815260040161218490613525565b60405180910390fd5b505050565b6000808273ffffffffffffffffffffffffffffffffffffffff163b119050919050565b600073ffffffffffffffffffffffffffffffffffffffff168273ffffffffffffffffffffffffffffffffffffffff1603612224576040517f08c379a000000000000000000000000000000000000000000000000000000000815260040161221b906139fd565b60405180910390fd5b61222d81611d4f565b1561226d576040517f08c379a000000000000000000000000000000000000000000000000000000000815260040161226490613a69565b60405180910390fd5b61227960008383611e46565b6001600360008473ffffffffffffffffffffffffffffffffffffffff1673ffffffffffffffffffffffffffffffffffffffff16815260200190815260200160002060008282546122c99190613134565b92505081905550816002600083815260200190815260200160002060006101000a81548173ffffffffffffffffffffffffffffffffffffffff021916908373ffffffffffffffffffffffffffffffffffffffff160217905550808273ffffffffffffffffffffffffffffffffffffffff16600073ffffffffffffffffffffffffffffffffffffffff167fddf252ad1be2c89b69c2b068fc378daa952ba7f163c4a11628f55a4df523b3ef60405160405180910390a461238a60008383611e4b565b5050565b6040518060600160405280600390602082028036833780820191505090505090565b6000604051905090565b600080fd5b600080fd5b60007fffffffff0000000000000000000000000000000000000000000000000000000082169050919050565b6123f9816123c4565b811461240457600080fd5b50565b600081359050612416816123f0565b92915050565b600060208284031215612432576124316123ba565b5b600061244084828501612407565b91505092915050565b60008115159050919050565b61245e81612449565b82525050565b60006020820190506124796000830184612455565b92915050565b600081519050919050565b600082825260208201905092915050565b60005b838110156124b957808201518184015260208101905061249e565b60008484015250505050565b6000601f19601f8301169050919050565b60006124e18261247f565b6124eb818561248a565b93506124fb81856020860161249b565b612504816124c5565b840191505092915050565b6000602082019050818103600083015261252981846124d6565b905092915050565b6000819050919050565b61254481612531565b811461254f57600080fd5b50565b6000813590506125618161253b565b92915050565b60006020828403121561257d5761257c6123ba565b5b600061258b84828501612552565b91505092915050565b600073ffffffffffffffffffffffffffffffffffffffff82169050919050565b60006125bf82612594565b9050919050565b6125cf816125b4565b82525050565b60006020820190506125ea60008301846125c6565b92915050565b6125f9816125b4565b811461260457600080fd5b50565b600081359050612616816125f0565b92915050565b60008060408385031215612633576126326123ba565b5b600061264185828601612607565b925050602061265285828601612552565b9150509250929050565b61266581612531565b82525050565b6000602082019050612680600083018461265c565b92915050565b600080fd5b7f4e487b7100000000000000000000000000000000000000000000000000000000600052604160045260246000fd5b6126c3826124c5565b810181811067ffffffffffffffff821117156126e2576126e161268b565b5b80604052505050565b60006126f56123b0565b905061270182826126ba565b919050565b600067ffffffffffffffff8211156127215761272061268b565b5b602082029050602081019050919050565b600080fd5b600061274a61274584612706565b6126eb565b9050808382526020820190506020840283018581111561276d5761276c612732565b5b835b8181101561279657806127828882612552565b84526020840193505060208101905061276f565b5050509392505050565b600082601f8301126127b5576127b4612686565b5b81356127c5848260208601612737565b91505092915050565b600080604083850312156127e5576127e46123ba565b5b60006127f385828601612552565b925050602083013567ffffffffffffffff811115612814576128136123bf565b5b612820858286016127a0565b9150509250929050565b600080600060608486031215612843576128426123ba565b5b600061285186828701612607565b935050602061286286828701612607565b925050604061287386828701612552565b9150509250925092565b600060039050919050565b600081905092915050565b6000819050919050565b6128a681612531565b82525050565b60006128b8838361289d565b60208301905092915050565b6000602082019050919050565b6128da8161287d565b6128e48184612888565b92506128ef82612893565b8060005b8381101561292057815161290787826128ac565b9650612912836128c4565b9250506001810190506128f3565b505050505050565b600060608201905061293d60008301846128d1565b92915050565b600060208284031215612959576129586123ba565b5b600061296784828501612607565b91505092915050565b61297981612449565b811461298457600080fd5b50565b60008135905061299681612970565b92915050565b600080604083850312156129b3576129b26123ba565b5b60006129c185828601612607565b92505060206129d285828601612987565b9150509250929050565b600080fd5b600067ffffffffffffffff8211156129fc576129fb61268b565b5b612a05826124c5565b9050602081019050919050565b82818337600083830152505050565b6000612a34612a2f846129e1565b6126eb565b905082815260208101848484011115612a5057612a4f6129dc565b5b612a5b848285612a12565b509392505050565b600082601f830112612a7857612a77612686565b5b8135612a88848260208601612a21565b91505092915050565b60008060008060808587031215612aab57612aaa6123ba565b5b6000612ab987828801612607565b9450506020612aca87828801612607565b9350506040612adb87828801612552565b925050606085013567ffffffffffffffff811115612afc57612afb6123bf565b5b612b0887828801612a63565b91505092959194509250565b60008060408385031215612b2b57612b2a6123ba565b5b6000612b3985828601612607565b9250506020612b4a85828601612607565b9150509250929050565b7f4e487b7100000000000000000000000000000000000000000000000000000000600052602160045260246000fd5b60038110612b9457612b93612b54565b5b50565b6000819050612ba582612b83565b919050565b6000612bb582612b97565b9050919050565b612bc581612baa565b82525050565b6000602082019050612be06000830184612bbc565b92915050565b7f4e487b7100000000000000000000000000000000000000000000000000000000600052602260045260246000fd5b60006002820490506001821680612c2d57607f821691505b602082108103612c4057612c3f612be6565b5b50919050565b7f4552433732313a20617070726f76616c20746f2063757272656e74206f776e6560008201527f7200000000000000000000000000000000000000000000000000000000000000602082015250565b6000612ca260218361248a565b9150612cad82612c46565b604082019050919050565b60006020820190508181036000830152612cd181612c95565b9050919050565b7f4552433732313a20617070726f76652063616c6c6572206973206e6f7420746f60008201527f6b656e206f776e6572206e6f7220617070726f76656420666f7220616c6c0000602082015250565b6000612d34603e8361248a565b9150612d3f82612cd8565b604082019050919050565b60006020820190508181036000830152612d6381612d27565b9050919050565b6000604082019050612d7f60008301856125c6565b612d8c60208301846125c6565b9392505050565b7f4552433732313a2063616c6c6572206973206e6f7420746f6b656e206f776e6560008201527f72206e6f7220617070726f766564000000000000000000000000000000000000602082015250565b6000612def602e8361248a565b9150612dfa82612d93565b604082019050919050565b60006020820190508181036000830152612e1e81612de2565b9050919050565b600081905092915050565b50565b6000612e40600083612e25565b9150612e4b82612e30565b600082019050919050565b6000612e6182612e33565b9150819050919050565b7f4e487b7100000000000000000000000000000000000000000000000000000000600052603260045260246000fd5b7f4552433732313a20696e76616c696420746f6b656e2049440000000000000000600082015250565b6000612ed060188361248a565b9150612edb82612e9a565b602082019050919050565b60006020820190508181036000830152612eff81612ec3565b9050919050565b7f4552433732313a2061646472657373207a65726f206973206e6f74206120766160008201527f6c6964206f776e65720000000000000000000000000000000000000000000000602082015250565b6000612f6260298361248a565b9150612f6d82612f06565b604082019050919050565b60006020820190508181036000830152612f9181612f55565b9050919050565b6000819050919050565b612fab81612f98565b82525050565b600067ffffffffffffffff82169050919050565b612fce81612fb1565b82525050565b600061ffff82169050919050565b612feb81612fd4565b82525050565b600063ffffffff82169050919050565b61300a81612ff1565b82525050565b600060a0820190506130256000830188612fa2565b6130326020830187612fc5565b61303f6040830186612fe2565b61304c6060830185613001565b6130596080830184613001565b9695505050505050565b6000815190506130728161253b565b92915050565b60006020828403121561308e5761308d6123ba565b5b600061309c84828501613063565b91505092915050565b600081905092915050565b60006130bb8261247f565b6130c581856130a5565b93506130d581856020860161249b565b80840191505092915050565b60006130ed82856130b0565b91506130f982846130b0565b91508190509392505050565b7f4e487b7100000000000000000000000000000000000000000000000000000000600052601160045260246000fd5b600061313f82612531565b915061314a83612531565b925082820190508082111561316257613161613105565b5b92915050565b7f4f776e61626c653a206e6577206f776e657220697320746865207a65726f206160008201527f6464726573730000000000000000000000000000000000000000000000000000602082015250565b60006131c460268361248a565b91506131cf82613168565b604082019050919050565b600060208201905081810360008301526131f3816131b7565b9050919050565b7f4e487b7100000000000000000000000000000000000000000000000000000000600052601260045260246000fd5b600061323482612531565b915061323f83612531565b92508261324f5761324e6131fa565b5b828206905092915050565b600060408201905061326f6000830185612bbc565b61327c60208301846125c6565b9392505050565b7f4552433732313a207472616e736665722066726f6d20696e636f72726563742060008201527f6f776e6572000000000000000000000000000000000000000000000000000000602082015250565b60006132df60258361248a565b91506132ea82613283565b604082019050919050565b6000602082019050818103600083015261330e816132d2565b9050919050565b7f4552433732313a207472616e7366657220746f20746865207a65726f2061646460008201527f7265737300000000000000000000000000000000000000000000000000000000602082015250565b600061337160248361248a565b915061337c82613315565b604082019050919050565b600060208201905081810360008301526133a081613364565b9050919050565b60006133b282612531565b91506133bd83612531565b92508282039050818111156133d5576133d4613105565b5b92915050565b7f4f776e61626c653a2063616c6c6572206973206e6f7420746865206f776e6572600082015250565b600061341160208361248a565b915061341c826133db565b602082019050919050565b6000602082019050818103600083015261344081613404565b9050919050565b7f4552433732313a20617070726f766520746f2063616c6c657200000000000000600082015250565b600061347d60198361248a565b915061348882613447565b602082019050919050565b600060208201905081810360008301526134ac81613470565b9050919050565b7f4552433732313a207472616e7366657220746f206e6f6e20455243373231526560008201527f63656976657220696d706c656d656e7465720000000000000000000000000000602082015250565b600061350f60328361248a565b915061351a826134b3565b604082019050919050565b6000602082019050818103600083015261353e81613502565b9050919050565b7f45524337323155524953746f726167653a2055524920736574206f66206e6f6e60008201527f6578697374656e7420746f6b656e000000000000000000000000000000000000602082015250565b60006135a1602e8361248a565b91506135ac82613545565b604082019050919050565b600060208201905081810360008301526135d081613594565b9050919050565b60008190508160005260206000209050919050565b60006020601f8301049050919050565b600082821b905092915050565b6000600883026136397fffffffffffffffffffffffffffffffffffffffffffffffffffffffffffffffff826135fc565b61364386836135fc565b95508019841693508086168417925050509392505050565b6000819050919050565b600061368061367b61367684612531565b61365b565b612531565b9050919050565b6000819050919050565b61369a83613665565b6136ae6136a682613687565b848454613609565b825550505050565b600090565b6136c36136b6565b6136ce818484613691565b505050565b5b818110156136f2576136e76000826136bb565b6001810190506136d4565b5050565b601f82111561373757613708816135d7565b613711846135ec565b81016020851015613720578190505b61373461372c856135ec565b8301826136d3565b50505b505050565b600082821c905092915050565b600061375a6000198460080261373c565b1980831691505092915050565b60006137738383613749565b9150826002028217905092915050565b61378c8261247f565b67ffffffffffffffff8111156137a5576137a461268b565b5b6137af8254612c15565b6137ba8282856136f6565b600060209050601f8311600181146137ed57600084156137db578287015190505b6137e58582613767565b86555061384d565b601f1984166137fb866135d7565b60005b82811015613823578489015182556001820191506020850194506020810190506137fe565b86831015613840578489015161383c601f891682613749565b8355505b6001600288020188555050505b505050505050565b600081519050919050565b600082825260208201905092915050565b600061387c82613855565b6138868185613860565b935061389681856020860161249b565b61389f816124c5565b840191505092915050565b60006080820190506138bf60008301876125c6565b6138cc60208301866125c6565b6138d9604083018561265c565b81810360608301526138eb8184613871565b905095945050505050565b600081519050613905816123f0565b92915050565b600060208284031215613921576139206123ba565b5b600061392f848285016138f6565b91505092915050565b600061394382612531565b91507fffffffffffffffffffffffffffffffffffffffffffffffffffffffffffffffff820361397557613974613105565b5b600182019050919050565b600061398b82612531565b915061399683612531565b9250826139a6576139a56131fa565b5b828204905092915050565b7f4552433732313a206d696e7420746f20746865207a65726f2061646472657373600082015250565b60006139e760208361248a565b91506139f2826139b1565b602082019050919050565b60006020820190508181036000830152613a16816139da565b9050919050565b7f4552433732313a20746f6b656e20616c7265616479206d696e74656400000000600082015250565b6000613a53601c8361248a565b9150613a5e82613a1d565b602082019050919050565b60006020820190508181036000830152613a8281613a46565b905091905056fea2646970667358221220b5087e5d642e6e9647a491f43c600bc2447efe717ab6f40be4ad86d9d49a177c64736f6c63430008180033",
  "linkReferences": {},
  "deployedLinkReferences": {}
}